:020000040000FA
:06000000A0EF0AF012005F
:020006001200E6
:06000800EDEF08F012000C
:02000E001020C0
:060010004080010204081B
:06001800B1EF08F0120038
:02001E000400DC
:100020000E000000590F000008000000B01500008D
:10003000480F00001100000090150000D5000000DE
:100040002000000078150000300F000018000000AC
:100050000F01696B6A6B12003EDA26DAF9D94ACFD2
:10006000E6FF060EE66EE66AF3D927DA4DCFE6FF25
:10007000030E17DA4ECFE6FF060E51EF02F00F0126
:100080006951070A01E137D1010A01E1F2D0030AFF
:1000900001E1B0D0060A72E0070A32E0060A2AE05F
:1000A000030A17E0010A01E067D1570EE66E140E4D
:1000B000E66EE66AE66AD8D94E0EE66E140EE66E75
:1000C000E66A010EE66ED0D9C7DF0F01010E4F6F51
:1000D00088D00F015151521104E1320E516F526B11
:1000E000BBDFF2D901E149D10F014F6BB5DF0F0141
:1000F000020EF9D00F014F6BA5D90F01040EF3D0FA
:10010000C8D914E1B6D905E0BAD9E66AE66ADFD9FA
:100110000AD050510BE1010E506F48CFE6FFE66A5E
:10012000E66A53EC03F0E552E552E552DAD909E00C
:1001300089D90F014851000802E248050CD0170E7A
:100140000AD0D2D90AE07ED9170E0F01485D02E22B
:10015000482901D0000E486F1200B6D908E0BBD97B
:1001600048CFE6FF020EA6D90F01030EBCD095D9E9
:1001700001E003D148CFE6FF020EFAD08AD912E19E
:1001800078D906E07CD9030EE66EE66AA0D907D0DE
:10019000505108E1010E506F87D953EC03F0E5523E
:1001A000E552E5529ED909E04DD90F0149510008A9
:1001B00002E249050CD03B0E0AD096D90AE042D99A
:1001C0003B0E0F01495D02E2492901D0000E496F43
:1001D00012007AD908E068D93BD949CFE6FF010E71
:1001E00069D90F0180D059D901E0C7D049CFE6FFC6
:1001F000010EBED04ED915E13CD906E040D9E66AE1
:10020000010EE66E64D90AD050510BE1010E506F19
:100210004CCFE6FFE66AE66E53EC03F0E552E5529A
:10022000E5525FD909E00ED90F014C51000802E2F6
:100230004C050CD01F0E0AD057D90AE003D91F0E67
:100240000F014C5D02E24C2901D0000E4C6F1200F0
:100250003BD908E032D94CCFE6FF040E2BD90F0171
:10026000060E41D01AD901E088D04CCFE6FF040E2B
:100270007FD00FD914E1FDD805E001D9030E05D9CF
:1002800026D90AD050510BE1010E506F4DCFE6FF39
:10029000030EFBD853EC03F0E552E552E55221D9A9
:1002A00009E0D0D80F014D51010802E24D050CD0F4
:1002B000010E0AD019D90AE0C5D80C0E0F014D5D08
:1002C00002E24D2901D00C0E4D6F1200FDD80DE059
:1002D0004DCFE6FF050EC2D84DCFE6FF030EE1D8A5
:1002E000B1D80F01070E696F1200D7D846E14DCF84
:1002F000E6FF050E3DD0CDD814E1BBD805E0BFD850
:10030000060EC3D8E4D80AD050510BE1010E506F4D
:100310004ECFE6FF060EB9D853EC03F0E552E55296
:10032000E552DFD809E08ED80F014E51000802E2F5
:100330004E050CD0630E0AD0D7D80AE083D8630EDE
:100340000F014E5D02E24E2901D0000E4E6F1200E9
:10035000BBD809E04ECFE6FF060EA3D84ECFE6FF8E
:10036000060EA8D806D099D808E14ECFE6FF060EB3
:1003700075D80F01696B1200696B12000F016A5189
:10038000020A32E0030A1AE0010A54E1420EE66E64
:10039000140EE66E080EE66EE66A66D8390EE66E54
:1003A000140EE66E080E71D85FD8DF0EE66E0E0EE4
:1003B000E66EE66A42EC03F0E55236D00F01575183
:1003C000581139E1C80E576F586B82EC08F0E66E91
:1003D0000C0EE66EE66A3CD888EC08F0E66E0C0E71
:1003E00060D80F01020E24D0280EE66E140EE66EC1
:1003F00074EC09F0E552E5520C0EE66E8CEC09F057
:10040000E5521F0EE66E140EE66E74EC09F0E5522E
:10041000E552590EE66E8CEC09F0E5521C0EE66EC4
:10042000140EE66E74EC09F0E552E5520F01010E70
:100430006A6F12006A6B1200E66EE4EC06F0E55299
:10044000000912000F01DC0E536F050E546F1200ED
:1004500053EC03F0E552E552E5521200E66E7EECF5
:1004600007F0E552E552120032D8E552E552E55266
:1004700012001E0E556F566B0F0150511200506B3B
:100480004B0EE66E140EE66E1200E66E010EE66E80
:1004900012000F015551561112000F015351541102
:1004A0001200F3DF28EF02F049CFE6FF030EE66EFD
:1004B000E66A1200D3DF22EF02F04CCFE6FFE66AD5
:1004C000010EE66E28EF02F0050E1CEF02F060EC64
:1004D00003F0E552120048CFE6FFE66AE66A28EF2D
:0E04E00002F0040E1CEF02F0060E1CEF02F0FC
:0204EE003CD9F7
:1004F000020EE126DE6ADD6A4CD905E2DF2A010E32
:10050000FBE3DB2AF9D7020EE15C02E2E16AE55285
:10051000E16E2FD129D9040EE126DE6ADD6A39D9D0
:100520001AE2020EDB6A030EDB6A020EDBCF10F06A
:10053000030EDBCF11F0FA0E105C000E115806E22C
:10054000020EDB2A030EF1E3DB2AEFD7DF2A010ECE
:10055000E6E3DB2AE4D7040EE15C02E2E16AE5525D
:10056000E16E07D15BD981128186010EE66EBFDF95
:10057000E5528196010EE66EBADFE552FAD0F4D864
:10058000818439D1F1D8819436D148D9F00B41D941
:10059000FE0EDB38F00B8112E2D8EBD0E5D8E65244
:1005A000936AFA0EE66EB6DFE5520F0E8116F80E6C
:1005B00081160F0E8116300E2CD9300E2AD9300E2E
:1005C00028D9818ACCD8280EE66EDFDFE5520C0EE2
:1005D000E66EDBDFE552E552CCD0C6D8FE0EDB502E
:1005E000010A06E0010A0AE1FD0EDB50800F03D08C
:1005F000FD0EDB50C00FE66EC5DFE552BAD0B4D8B1
:10060000020EE126DF6A020EDF5C22E2010EDB6AE7
:10061000100EF36E010EDBCFF4FFF350F45C16E224
:10062000DF50100DF3CF10F0F4CF11F0D50E1026DF
:10063000000E1122010EDB501024E96E000E112075
:10064000EA6E200EEF6E010EDB2AE2D7DF2ADBD73F
:10065000020EE15C02E2E16AE552E16E8AD084D8E2
:1006600065CF10F066CF11F0040ED8901036113619
:10067000E806FBE19AD8FE0EDBCFEFFF672B000EFA
:10068000682377D071D879D865CF10F066CF11F094
:10069000040ED89010361136E806FBE186D8FC0E21
:1006A000DBCFEFFF66D060D8E65267D88AD8095012
:1006B000300F8FD886D80550300F8BD8E55259D0DF
:1006C00053D85BD891D80800F5500DE0FB0EDBCF76
:1006D000F6FFDB2AFC0EDBCFF7FF01E3DB2A080085
:1006E000F55077D8EFD745D03FD8E65246D8DF6AE5
:1006F000FA0EDB50DF5C0CE2DF50E76E75D8E75096
:10070000F626000EF7220800F55063D8DF2AF0D74E
:10071000E5522FD029D8E652E66AE66A5EDFE55256
:10072000E552DF6A100EDF5C07E2DF50EA6AD50FA0
:10073000E96E000E52D8F6D7E66A010EE66E4DDF7E
:10074000E552E552DF6A100EDF5C07E2DF50EA6A2D
:10075000E50FE96E000E41D8F6D7E5520AD0818642
:1007600063D8819614EF04F0D9CFE6FFE1CFD9FF2B
:100770001200E552E7CFD9FF1200FE0EDB50010B4D
:100780000F01656F666BFD0EDB500F0B676F686BBB
:100790001200DECF10F0DDCF11F0FE0EDB50136A39
:1007A000E850105C135011581200D50E1026000EA0
:1007B000112210500F016725E96E11506821EA6E71
:1007C00012000A0E106E0E6EFC0EDBCF09F0AEEFBB
:1007D0000AF0E66E44DFE5521200EA22EF50E66EC0
:1007E000CEDEE552DF2A1200FB0EDBCFF6FFFC0E59
:1007F000DBCFF7FF120018D8FE0EDBCFE6FFB2DE2C
:10080000E552FE0EDB38F00BE66EACDEE55281946D
:10081000B0D78112A4DF0F0E81161200A5DF0F0ED4
:100820008116FE0EDB501200010EE66E73DEE552FD
:020830001200B4
:0E08320013D9D59EFD0EDBCF30FFFE0EDBCFBF
:1008400031FFD59C23D9D59AD586F28AF294F184CA
:10085000D58E08D102D9CD90FD0EDBCF32FFFE0E32
:10086000DBCF33FF07D99D809E909F90CD8ECD8C9E
:10087000CD98CD9ACD96CD92CD80F4D0EED8CA94B5
:10088000CC6AFE0EDB500F01346F356BCB6E9D8250
:100890009E929F92CA90CA92CA84E4D0DED8B19048
:1008A000FD0EDBCF36FFFE0EDBCF37FFF6D807504D
:1008B000B36EF3D803C010F004C011F005C012F0FD
:1008C0000350B26EA082A192A292B18EB198B19A59
:1008D000B192B180C7D0DAD8D58E1200CBD8CD80F6
:1008E000120034CFCBFFCA841200D7D80350B26EA7
:1008F000D4D8ABD8B36EB1801200D59E1200CD9083
:100900001200CA941200B19012000F01382B000E91
:1009100039234051385D4151395905E3386B396B02
:100920000F01010E616F12000F013A2B000E3B23E5
:1009300042513A5D43513B5905E33A6B3B6B0F0122
:10094000010E626F12000F013C2B000E3D2344513B
:100950003C5D45513D5905E33C6B3D6B0F01010E7C
:10096000636F12000F013E2B000E3F2346513E5D88
:1009700047513F5905E33E6B3F6B0F01010E646F1A
:1009800012006BD8FD0EDBCF40FFFE0EDBCF41FF28
:100990000F01386B396B0F01616B64D05ED8FD0EAF
:1009A000DBCF42FFFE0EDBCF43FF050E0D6E0E6A5E
:1009B00042CF08F043CF09F07AEC0AF008C042FFBA
:1009C00009C043FF0F013A6B3B6B0F01626B4AD0CA
:1009D00044D8FD0EDBCF44FFFE0EDBCF45FF0F01F9
:1009E0003C6B3D6B0F01636B3DD037D8FD0EDBCF09
:1009F00046FFFE0EDBCF47FF0A0E0D6E0E6A46CF96
:100A000008F047CF09F07AEC0AF008C046FF09C0A9
:100A100047FF0F013E6B3F6B0F01646B23D0186AD9
:100A20001650135C106E17501458116E185015584C
:100A3000126E0C6A010E0D6E0E6A10C007F011C026
:100A400008F012C009F030EF0AF007C010F008C03B
:100A500011F009C012F007501200D9CFE6FFE1CF24
:100A6000D9FF1200E552E7CFD9FF120013681468CE
:100A7000156A1200F50E136E1468156A1CD803501F
:100A8000CF6EF4DF18D8E1DFCE6E12000DD8035020
:100A9000D66E0AD8DADFD76E1200E8DF36CF16F04E
:100AA00037CF17F00FEF05F0E1DF30CF16F031CF81
:100AB00017F00FEF05F032CF16F033CF17F00FEF2E
:020AC00005F03F
:0E0AC20054D86FD80B0EE66E140EE66EE66A80
:100AD000E66AFAD8FA0EE66E130EE66EE66A010EC4
:100AE000E66EF2D88AEC03F0B80EE66E0B0EE66EF8
:100AF0009ED8E552E552FFEC02F00F016451FDE093
:100B0000646B75EC06F00F014F5101E071D80F01D5
:100B1000050E515D000E525904E3050E515F000EA3
:100B2000525B0F01050E535D000E545904E3050E90
:100B3000535F000E545B0F01050E555D000E5659B4
:100B400004E3050E555F000E565B0F01050E575D61
:100B5000000E585904E3050E575F000E585B3FEC3A
:100B600000F0BEEC01F08AEC03F0C7D7CEEC02F047
:100B7000ADEC08F05AEC07F041EC08F028EC00F07E
:100B80005DEC09F0660EE66EB70EE66E4EEC04F014
:100B9000E552E552320EE66EE66AF5EC04F0E552F7
:100BA000E5521200250E8BD8600820E0010EE66E9B
:100BB000E66A7EEC07F0E552E552010EE66E7BD860
:100BC000020E79D8030E77D8040E75D8050E73D8A7
:100BD000060E81D8E66A280E6ED8260E6CD8270E2F
:100BE0007AD8600EE66E250E6BEF06F0F8EF05F092
:100BF000E66AA5EC07F0E5520F014A6F010E5FD8D7
:100C00000F01496F020E5BD80F01486F030E57D8D2
:100C10000F014B6F040E53D80F014C6F050E4FD8C8
:100C20000F014D6F060E4BD80F014E6F1200D9CF3A
:100C3000E6FFE1CFD9FF040EE126DE6ADD6ADECFF2
:100C400010F0DDCF11F0FD0EDBCF12F0FE0EDBCF8A
:100C500013F011501318E8AE02D0133404D0125020
:100C6000105C135011581DE2020EDB6A030EDB6AA2
:100C7000020EDBCF10F0030EDBCF11F0D890115035
:100C800004E6A00E105C000E115806E2020EDB2AEC
:100C9000030EEEE3DB2AECD7DF2A010ED0E3DB2ADA
:100CA000CED7040EE15C02E2E16AE552E16EE55264
:100CB000E7CFD9FF12000FD8010EE66E1200E66EE4
:100CC000A5EC07F0E552120060EC03F0E552E552A6
:100CD000E552E5521200E66E7EEC07F0E552E55271
:020CE000120000
:0E0CE2000F0E946E82681200AAD8030EE1264F
:100CF000DF6A040EDF5C56E2DF50EA6A590FE96EE4
:100D00000F0EEA22EF1C826E010EDB6A040EF36EF8
:100D1000010EDBCFF4FFF350F45C42E2010EDBCFB7
:100D2000E6FF040EDF02F350E552E724E76E020E01
:100D3000E7CFDBFF010EDB50EA6A5D0FE96E0F0EB5
:100D4000EA22EF5082140DE1020E8FD8E80E105CFB
:100D5000030E115822E2020E69D8EE2A000EEF228D
:100D60001CD0020E63D8000ED880EE54000EED5455
:100D700007E2020E7AD80A0E105C000E115802E348
:100D8000000E01D0010EE66E020E63D8E552E75068
:100D9000EF6E020E4BD8EE6AED6A010EDB2AB6D773
:100DA000DF2AA7D7030EE15C02E2E16AE552E16EB9
:100DB0004CD046D8FE0EDB50100802E2000E03D0E5
:100DC000FE0E34D8EF5041D03BD8E652FE0EDB5039
:100DD000100802E2000E05D0FE0E3BD8EFCFDFFF79
:100DE000DF50E55232D02CD8100EF36EFE0EDBCF62
:100DF000F4FFF350F45C16E2FE0E37D8FC0EDBCFA6
:100E000012F0FD0EDBCF13F0320E0D6E0E6A12C023
:100E100008F013C009F07AEC0AF01050085C115089
:100E2000095802E3000E01D0010E0FD0EA6ADB344C
:100E3000FE0BEA36E96E100EE9260F0EEA221200CA
:100E4000D9CFE6FFE1CFD9FF1200E552E7CFD9FFB6
:100E50001200DB50EA6A000FE96E0F0EEA22120060
:100E6000EECF10F0EFCF11F01200E0DF30EF07F01F
:100E70009BD8020EE126FE0EDB500F0BDF6EFE0E3E
:100E8000DB380F0B0A0D99D802E2E16AE552E16EF8
:100E900010508FD089D8020EE12698D80550DF6E09
:100EA00095D80950100D89D802E2E16AE552E16E49
:100EB00010507FD094869488C79EC79CC68AC686E9
:100EC000C694C692C690310EC86E12009E96C5801A
:100ED0009EA6FED712009E96C5849EA6FED712003F
:100EE00063D89E96FE0EDB50C96E9EA6FED761D0DB
:100EF0009E96C5869EA6FED7C950120055D86ED8BC
:100F0000010E6B6FE85004E0C550400BFAE0F8D7D3
:100F1000FE0EDBCFE6FF44D8010E6B6FE85004E015
:100F2000C550400BFAE0F8D7FD0EDBCFE6FFB2DF8D
:100F3000E552E66E35D8010E6B6FE85004E0C550FF
:100F4000400BFAE0F8D7C7DF34D02ED8E65246D8A7
:100F5000010E6B6FE85004E0C550400BFAE0F8D783
:100F6000FE0EDBCFE6FF1CD8010E6B6FE85004E0ED
:100F7000C550400BFAE0F8D7A9DFD10EE66E10D8C5
:100F8000010E6B6FE85004E0C550400BFAE0F8D753
:100F9000AFDFDF6EDFCFE6FF6BDFE552E55209D052
:100FA0009FDFE5520F011200D9CFE6FFE1CFD9FF55
:100FB0001200E552E7CFD9FF1200010EF3CFDBFF9D
:100FC000DB50DF24106E020EE15C12000A0E106E80
:100FD0000E6EFE0EDBCF09F0AEEF0AF077DFD00E1B
:060FE000E66ED0EF07F001
:0A0FE600B0D8E652DF6AFE0EDB50C1
:100FF000DF5C02E2DF2AFAD7E552ABD0A5D8030EB8
:10100000E126DF6A030EDF5C35E2020EDB6A010EC9
:10101000DB6A100EF36E010EDBCFF4FFF350F45CCD
:101020001EE282D87BD8EFCF11F07ED8010F76D8A0
:10103000EF50115C02E3000E01D0010E106E020EA3
:10104000DB50E8241024E76E020EE7CFDBFF010E31
:10105000DB50020FE76E010EE7CFDBFFDAD7DF5080
:10106000EA6A800FE96E000EEA22020EDBCFEFFF84
:10107000DF2AC8D7030EE15C02E2E16AE552E16EC5
:1010800068D09298809812005FD8020EE12692886C
:10109000010EE66EA8DFE55280B8FED780A8FED725
:1010A00080B8FED7DF6A500EDF5C1FE2010EDB6AFC
:1010B00080B803D042D8FCE20AD0DF502FD8010E0E
:1010C000DBCFEFFFDB6A80A807D037D8FCE292982D
:1010D000809894DFDF500DD0DF2820D8010EDBCFC1
:1010E000EFFF020EDF24DF6EDED788DF9298809854
:1010F000030E106E020EE15C02E2E16AE552E16E5F
:10110000105027D0000182511200000183511200BB
:10111000000180511200000181511200EA6A850F1E
:10112000E96E000EEA221200010EDBCFE6FF100E80
:10113000DF02F350E552E7241200010EDBCFF3FF8C
:10114000DB2AF35064081200D9CFE6FFE1CFD9FFC4
:0A1150001200E552E7CFD9FF1200AC
:06115A00F28ED08EF28C33
:101160001200D8CFE4FFE0CFE4FFE46E69D800EED0
:1011700000F0100EE80403E3EECFE4FFFBD700EE2F
:1011800010F0090EE80403E3EECFE4FFFBD7E652CC
:10119000F2B47ED89EB083D8A1B288D8F2B2F292CF
:1011A0009EAA03D09E9A96EC09F0E55200EE18F044
:1011B000090EE80403E3E5CFEDFFFBD700EE0FF0E7
:1011C000100EE80403E3E5CFEDFFFBD74ED8E55062
:1011D000E5CFE0FFE5CFD8FF100032D800EE00F0F9
:1011E000100EE80403E3EECFE4FFFBD700EE10F0AF
:1011F000090EE80403E3EECFE4FFFBD7E652F2B4B6
:1012000047D89EB04CD8A1B251D8F2B2F2929EBA51
:101210009E9A9EA802D096EC09F0E55200EE18F0D6
:10122000090EE80403E3E5CFEDFFFBD700EE0FF076
:10123000100EE80403E3E5CFEDFFFBD716D811004D
:10124000DACFE4FFE2CFDAFFE9CFE4FFEACFE4FF51
:10125000F6CFE4FFF7CFE4FFF5CFE4FFF3CFE4FFF1
:10126000F4CFE4FFFACFE4FF1200E5CFFAFFE5CFB9
:10127000F4FFE5CFF3FFE5CFF5FFE5CFF7FFE5CFCF
:10128000F6FFE5CFEAFFE5CFE9FFE5CFDAFF120091
:101290007DEC04F0F2946BEC04F085EF04F07FEC4D
:1012A00004F09E906EEC04F094EF04F083EC04F0F4
:0A12B000A19275EC04F0B2EF04F017
:0612BA00B06A810EAF6E68
:1012C000AC8AAC94B886AC98AB88AB8E9E9A9D8A5B
:1012D0009F9A949C948E120034D89EA8FED7FE0E3E
:1012E000DB50AD6E9E9832D02CD8FD0EDBCFF6FFD2
:1012F000FE0EDBCFF7FF0800F5500DE0FD0EDBCF53
:10130000F6FFDB2AFE0EDBCFF7FF01E3DB2A080046
:10131000F55020D8EAD71AD014D80BD80950300F7E
:1013200019D807D80550300F15D810D0AECFFFF020
:1013300012000A0E106E0E6EFE0EDBCF09F0AEEF3D
:101340000AF0D9CFE6FFE1CFD9FF1200E552E7CF8F
:0C135000D9FF1200E66EC0DFE55212006B
:04135C001E0EF66EFD
:10136000000EF76E000EF86E00010900F550FA6FDE
:101370000900F550FB6F03E1FA6701D03DD0090089
:10138000F550F56F0900F550F66F0900F550F76F4D
:1013900009000900F550E96E0900F550EA6E0900F0
:1013A00009000900F550F86F0900F550F96F0900C0
:1013B0000900F6CFFCF0F7CFFDF0F8CFFEF0F5C056
:1013C000F6FFF6C0F7FFF7C0F8FF0001F85302E19F
:1013D000F95307E00900F550EE6EF807F8E2F90757
:1013E000F9D7FCC0F6FFFDC0F7FFFEC0F8FF000113
:0A13F000FA07000EFB5BBFD71200E6
:0613FA00204D4F4E495446
:101400004F52494E4720535953200020454E5649CC
:10141000524F4E4D454E54414C2020007D23002C10
:101420002274656D70223A007B226964223A312C65
:101430002268756D6964223A0020483A20202025F0
:10144000200020543A20202020430020200020208B
:101450002F20202F20200020203A20203A2020007A
:10146000006A0EAE3BEF0AF00C6C0D1E0E1EE86A11
:101470000D220E22001E09AE45EF0AF0076C081E71
:10148000091EE86A08220922001E5DEC0AF009BE66
:1014900058EF0AF000AE000C076C081E091EE86A3F
:1014A00008220922036C041E051E04220522000CDA
:0A14B00000BE4CEF0AF00188FF0CAB
:0614BA00056A046A036AE2
:1014C000180EE76ED890073608360936033604360C
:1014D00005360C50035C0D5004580E50055807E3B8
:1014E0000C50035E0D50045A0E50055A072AE72E81
:0414F000EAD7120025
:0C14F400056A046A100EE76ED8900836F6
:101500000936043605360D50045C0E50055805E3C7
:101510000D50045E0E50055A082AE72EF0D712002F
:10152000800EF36E00EE00F00F0E01D81200EA609C
:1015300002D0EE6AFCD7F350E9601200EE6AFCD7E5
:101540001EEE00F02EEE00F0F86A019CAEEC09F001
:0C15500003EC00F061EC05F0FBD712008A
:04155C00056A080E06
:10156000E76ED890093605360E50055C02E3056E2D
:08157000092AE72EF7D712004B
:0815780000000000000000006B
:10158000000000000000000000000000000000005B
:10159000202020202020202020202020202020204B
:1015A000202020202020202020202020202020203B
:1015B000000000000000000000000000000000002B
:0115C000002A
:020000040030CA
:0100010002FC
:0100020003FA
:010003001EDE
:010005008179
:010006008178
:010008000FE8
:01000900C036
:01000A000FE6
:01000B00E014
:01000C000FE4
:01000D0040B2
:00000001FF
