:020000040000FA
:060000004DEF09F01200B3
:020006001200E6
:06000800DFEF06F012001C
:02000E001020C0
:060010004080010204081B
:06001800A6EF06F0120045
:02001E000400DC
:100020000E000000000F000008000000FC1200009D
:10003000E80000000D000000DC120000B00000002D
:1000400020000000C4120000D000000018000000D2
:10005000CCD9020EE126DE6ADD6AFAD905E2DF2A92
:10006000010EFBE3DB2AF9D7020EE15C02E2E16A52
:10007000E552E16EBFD1B9D9040EE126DE6ADD6A30
:10008000E7D91AE2020EDB6A030EDB6A020EDBCF4F
:1000900010F0030EDBCF11F0FA0E105C000E1158B9
:1000A00006E2020EDB2A030EF1E3DB2AEFD7DF2A9A
:1000B000010EE6E3DB2AE4D7040EE15C02E2E16A2A
:1000C000E552E16E97D107DA81128186010EE66E64
:1000D000BFDFE5528196010EE66EBADFE5528AD1A6
:1000E00084D98184E5D181D98194E2D1F4D9F00B0E
:1000F000EDD9FE0EDB38F00B811272D97BD175D9A8
:10010000E652936AFA0EE66EB6DFE5520F0E8116DE
:10011000F80E81160F0E8116300ED8D9300ED6D9B2
:10012000300ED4D9818A5CD9280EE66EDFDFE55225
:100130000C0EE66EDBDFE552E5525CD156D9FE0EC1
:10014000DB50010A06E0010A0AE1FD0EDB50800FD8
:1001500003D0FD0EDB50C00FE66EC5DFE5524AD17D
:1001600044D9020EE126DF6A020EDF5C22E2010EB4
:10017000DB6A100EF36E010EDBCFF4FFF350F45C7C
:1001800016E2DF50100DF3CF10F0F4CF11F0B00EE7
:100190001026000E1122010EDB501024E96E000E15
:1001A0001120EA6E200EEF6E010EDB2AE2D7DF2A65
:1001B000DBD7020EE15C02E2E16AE552E16E1AD1A0
:1001C00014D90CCF10F00DCF11F0040ED8901036CA
:1001D0001136E806FBE148D9FE0EDBCFEFFF0E2B10
:1001E000000E0F2307D101D916D90CCF10F00DCF77
:1001F00011F0040ED89010361136E806FBE134D920
:10020000FC0EDBCFEFFFF6D0F0D8060EE126DF6A5A
:10021000020EDB6ACA0EF36E030EF3CFDBFF9A0EFB
:10022000F36E040EF3CFDBFF3B0EF36E050EF3CF40
:10023000DBFFF1D82FD9D890030EEB50000A08E667
:10024000000EEE5C000EEE58000EEE58000EEE585A
:100250000FE220D9000EEE6CEF1EEE22EF1EEE2212
:10026000EF1EEF22ED52ED52ED522D0EEDD809D0DA
:10027000DED8105011101210131003E1300EE4D824
:1002800066D0DE520A0EDD6E010EDB5000085FE222
:10029000CED810C006F011C007F012C008F013C08D
:1002A00009F0ACD8E6EC08F0065007100810091069
:1002B00029E0010EDF6EF90EDBCF14F0FA0EDBCF72
:1002C00015F0FB0EDBCF16F0FC0EDBCF17F014C0E1
:1002D00006F015C007F016C008F017C009F08ED858
:1002E000E6EC08F006C010F007C011F008C012F0EC
:1002F00009C013F0300E1026000E11221222132214
:10030000105003D0DF5002E0300E9ED8C3D876D80C
:10031000B7D805C0EDFF04C0EDFF03C0EDFF02C07C
:10032000EFFFD950020FE96EDACFEAFF0A0E0B6E2B
:100330000C6A0D6A0E6AA4D809C0EDFF08C0EDFF73
:1003400007C0EDFF06C0EFFF010EDB069DD7200EB4
:100350007BD8200E79D8060EE15C02E2E16AE55214
:10036000E16E48D042D857D8FB0EDBCFF6FFFC0E2B
:10037000DBCFF7FF0800F5500DE0FB0EDBCFF6FFFB
:10038000DB2AFC0EDBCFF7FF01E3DB2A0800F55088
:100390005BD8EAD72FD029D8E652E66AE66ACEDEE5
:1003A000E552E552DF6A100EDF5C07E2DF50EA6AD1
:1003B000B00FE96E000E75D8F6D7E66A010EE66E4C
:1003C000BDDEE552E552DF6A100EDF5C07E2DF506A
:1003D000EA6AC00FE96E000E64D8F6D7E5520AD07B
:1003E00081867FD8819671EF02F0D9CFE6FFE1CF09
:1003F000D9FF1200E552E7CFD9FF1200020EDBCF82
:100400000BF0030EDBCF0CF0040EDBCF0DF0050E6E
:10041000DBCF0EF01200FE0EDB50010B0F010C6F54
:100420000D6BFD0EDB500F0B0E6F0F6B1200F90EF4
:10043000DBCF10F0FA0EDBCF11F0FB0EDBCF12F0AA
:10044000FC0EDBCF13F01200E66EBADEE5521200AE
:10045000DECF10F0DDCF11F0FE0EDB50136AE85056
:10046000105C135011581200B00E1026000E11220D
:1004700010500F010E25E96E11500F21EA6E120087
:10048000EECF06F0EECF07F0EECF08F0EFCF09F099
:10049000E6EF08F0D950F90FE96EFF0EDA20EA6EA8
:1004A0001200EA22EF50E66E1BDEE552DF2A120050
:1004B00018D8FE0EDBCFE6FF06DEE552FE0EDB3877
:1004C000F00BE66E00DEE552819494D7811288DF4E
:1004D0000F0E8116120089DF0F0E8116FE0EDB5003
:0C04E0001200010EE66EC7DDE5521200AE
:0404EC000001FF6BA1
:1004F00012000001FF51100A01E162D11F0A01E15F
:1005000041D1010A01E104D1030A01E1F0D0010A5D
:1005100001E1D5D0070A01E1B6D0010A01E197D087
:10052000030A01E18BD0010A01E181D00F0A01E148
:1005300077D0010A6EE0030A65E0010A5CE0070A71
:1005400001E16ED1010A55E0030A0CE0010A01E065
:1005500069D1C20EE66E100E9FD9B10EE66E100E76
:100560009ED972D0ACD905E0B0EC00F00001020ECB
:1005700000D1E80EE66E030EE66E050EE66E5DEC4B
:1005800006F0E552E552E55200090EE0B0EC00F04D
:10059000A00EE66E100E80D98F0EE66E100E7FD97B
:1005A00084D900010E0EE5D0080E5CD903E00001ED
:1005B000040EDFD00A0E56D903E00001050ED9D093
:1005C000090E50D903E00001060ED3D00C0E4AD913
:1005D00003E00001070ECDD00E0E44D903E0000168
:1005E000080EC7D00D0E3ED901E11DD10001090E44
:1005F000C0D083D9BED0750EE66E100E4DD95CEC1E
:1006000009F022D06D0EE66E100E46D95EEC09F0B0
:100610001BD0650EE66E100E3FD95DEC09F014D0CC
:100620005D0EE66E100E47D95FEC09F00DD0550E49
:10063000E66E100E40D961EC09F006D04D0EE66E64
:10064000100E39D960EC09F00001010E92D05CEC7B
:1006500009F061EC09F0E8D80001F051F1110FE167
:10066000860EE66E100E18D9440EE66E100E17D9DF
:10067000ECC0F0F0EDC0F1F000010B0EFF6F1FD9E0
:1006800001E1D1D042D05CEC09F060EC09F0CCD8AB
:100690000001EE51EF110FE13B0EE66E100E37D95F
:1006A000EAC0EEF0EBC0EFF0E8C0F0F0E9C0F1F026
:1006B00000010C0EFF6F03D901E1B5D026D05EEC2E
:1006C00009F05FEC09F0B0D80001EE51EF110BE139
:1006D000290EE66E100E1BD9ECC0EEF0EDC0EFF067
:1006E00000010D0EFF6FEBD801E19DD00ED05DEC47
:1006F00009F05FEC09F098D80001F051F11102E126
:10070000FCD8FF6FDCD801E18ED00001030E31D0A0
:10071000040EA8D816E0B0EC00F0180EE66E100E2D
:10072000BBD8070EE66E100ECDD8EAC010F0EBC0B5
:1007300011F0CCD8EAC008F0EBC009F099D80F0E40
:1007400018D0060E8FD817E0B0EC00F0F60EE66E6B
:100750000F0EA2D8E50EE66E0F0EB4D8ECC010F066
:10076000EDC011F0B3D8ECC008F0EDC009F080D8AE
:10077000100EFF6F1200A3D852E10001F251F311E5
:1007800052E14DD0060E6ED806E0640E0001EA5F1D
:10079000000EEB5B08D0040E65D80BE0640E000180
:1007A000EA27000EEB2381D8EAC010F0EBC011F06D
:1007B0001DD085D828E10001F251F31134E123D096
:1007C000060E50D806E0640E0001EC5F000EED5BF3
:1007D00008D0040E47D811E0640E0001EC27000E8B
:1007E000ED2363D8ECC010F0EDC011F06FD810C04D
:1007F00008F011C009F047EF04F061D804E10001EE
:10080000F251F31110E10001EA510001EC25000161
:10081000E86F0001EB510001ED210001E96F0001DB
:10082000FF6B1200FF6B1200EEC010F0EFC011F072
:100830004DD8EEC008F0EFC009F04CD8E66A6DD88C
:10084000F0C010F0F1C011F041D8F0C008F0F1C0D4
:1008500009F047EF04F0B2EC01F0E552E552E55241
:10086000E5521200E66E4EEC06F0E5520009120069
:100870000ED81BD800011200E8C0EEF0E9C0EFF07E
:10088000EAC0F0F0EBC0F1F000010A0E120022D82D
:10089000010EE66E8DEF04F0E66EE66A45D0E66E78
:1008A000E66A010EE66E2BEF04F00001E80EF26F2F
:1008B000030EF36F1200E66E080EE66E35D0050EDD
:1008C00032EF04F0E66E010EE66E2ED0640E0D6E71
:1008D0000E6A120027EC09F008C010F009C011F0F0
:1008E000126A136A08C0E6FF09C0E6FF12C0E6FFFD
:1008F00013C0E6FF080EE66E1200860EE66E100EBE
:10090000CBDF7D0EE66E100ECADF3CEF04F0C4DFD5
:10091000320EE66E100E4FEF04F004EC01F0146E90
:0E092000060EE15E14501200E66A2BEF04F0A2
:02092E000FD9DF
:10093000D59EFD0EDBCFD0F0FE0EDBCFD1F0D59CE7
:100940001FD9D59AD586F28AF294F184D58E04D136
:10095000FED8CD90FD0EDBCFD2F0FE0EDBCFD3F074
:1009600003D99D809E909F90CD8ECD8CCD98CD9AB1
:10097000CD96CD92CD80F0D0EAD8CA94CC6AFE0E46
:10098000DB500001D46FD56BCB6E9D829E929F92FF
:10099000CA90CA92CA84E0D0DAD8B190FD0EDBCFFB
:1009A000D6F0FE0EDBCFD7F0F2D80750B36EEFD8FB
:1009B00003C010F004C011F005C012F00350B26E75
:1009C000A082A192A292B18EB198B19AB192B18057
:1009D000C3D0D6D8D58E1200C7D8CD801200D4C0CF
:1009E000CBFFCA841200D3D80350B26ED0D8A7D898
:1009F000B36EB1801200D59E1200CD901200CA9441
:100A00001200B19012000001D82B000ED923E05142
:100A1000D85DE151D95905E3D86BD96B0F01010EAF
:100A2000086F12000001DA2B000EDB23E251DA5DC1
:100A3000E351DB5905E3DA6BDB6B0F01010E096F44
:100A400012000001DC2B000EDD23E451DC5DE551DA
:100A5000DD5905E3DC6BDD6B0F01010E0A6F12003F
:100A60000001DE2B000EDF23E651DE5DE751DF598A
:100A700005E3DE6BDF6B0F01010E0B6F120067D811
:100A8000FD0EDBCFE0F0FE0EDBCFE1F00001D86B16
:100A9000D96B0F01086B60D05AD8FD0EDBCFE2F0A6
:100AA000FE0EDBCFE3F0010E0F0B000105E0D89046
:100AB000E333E233E806FBE10001DA6BDB6B0F01A5
:100AC000096B4AD044D8FD0EDBCFE4F0FE0EDBCF3D
:100AD000E5F00001DC6BDD6B0F010A6B3DD037D810
:100AE000FD0EDBCFE6F0FE0EDBCFE7F00A0E0D6E5B
:100AF0000E6AE6C008F0E7C009F027EC09F008C06C
:100B0000E6F009C0E7F00001DE6BDF6B0F010B6B55
:100B100023D0186A1650135C106E17501458116EBB
:100B200018501558126E0C6A010E0D6E0E6A10C028
:100B300007F011C008F012C009F0B9EF08F007C0C3
:100B400010F008C011F009C012F007501200D9CF00
:100B5000E6FFE1CFD9FF1200E552E7CFD9FF12003F
:100B600013681468156A1200F50E136E1468156A7E
:100B70001CD80350CF6EF4DF18D8E1DFCE6E120020
:100B80000DD80350D66E0AD8DADFD76E1200E8DF30
:100B9000D6C016F0D7C017F089EF05F0E1DFD0C05E
:100BA00016F0D1C017F089EF05F0D2C016F0D3C00F
:060BB00017F089EF05F0CB
:0A0BB6000F0E946E82681200AAD898
:100BC000030EE126DF6A040EDF5C56E2DF50EA6ABC
:100BD000000FE96E0F0EEA22EF1C826E010EDB6A37
:100BE000040EF36E010EDBCFF4FFF350F45C42E22F
:100BF000010EDBCFE6FF040EDF02F350E552E724DF
:100C0000E76E020EE7CFDBFF010EDB50EA6A040F4E
:100C1000E96E0F0EEA22EF5082140DE1020E8FD81A
:100C2000E80E105C030E115822E2020E69D8EE2A7B
:100C3000000EEF221CD0020E63D8000ED880EE54B6
:100C4000000EED5407E2020E7AD8050E105C000E7D
:100C5000115802E3000E01D0010EE66E020E63D8B9
:100C6000E552E750EF6E020E4BD8EE6AED6A010EC8
:100C7000DB2AB6D7DF2AA7D7030EE15C02E2E16ADE
:100C8000E552E16E4CD046D8FE0EDB50100802E271
:100C9000000E03D0FE0E34D8EF5041D03BD8E652C0
:100CA000FE0EDB50100802E2000E05D0FE0E3BD80F
:100CB000EFCFDFFFDF50E55232D02CD8100EF36EAD
:100CC000FE0EDBCFF4FFF350F45C16E2FE0E37D8D5
:100CD000FC0EDBCF12F0FD0EDBCF13F0320E0D6EEB
:100CE0000E6A12C008F013C009F027EC09F010508A
:100CF000085C1150095802E3000E01D0010E0FD01C
:100D0000EA6ADB34FE0BEA36E96E900EE926000E45
:100D1000EA221200D9CFE6FFE1CFD9FF1200E55257
:100D2000E7CFD9FF1200DB50EA6A800FE96E000EB0
:100D3000EA221200EECF10F0EFCF11F01200E0DF48
:040D40009AEF06F030
:0C0D4400F28ED08EF28C1200D8CFE4FFAB
:100D5000E0CFE4FFE46E62D800EE00F0100EE8048D
:100D600003E3EECFE4FFFBD700EE10F0090EE8043A
:100D700003E3EECFE4FFFBD7E652F2B477D89EB0A0
:100D80007CD8A1B281D8F2B2F2929EBA9E9AE55274
:100D900000EE18F0090EE80403E3E5CFEDFFFBD702
:100DA00000EE0FF0100EE80403E3E5CFEDFFFBD7F4
:100DB0004AD8E550E5CFE0FFE5CFD8FF10002ED8A8
:100DC00000EE00F0100EE80403E3EECFE4FFFBD7E3
:100DD00000EE10F0090EE80403E3EECFE4FFFBD7CA
:100DE000E652F2B443D89EB048D8A1B24DD8F2B280
:100DF000F2929EBA9E9AE55200EE18F0090EE804AF
:100E000003E3E5CFEDFFFBD700EE0FF0100EE80493
:100E100003E3E5CFEDFFFBD716D81100DACFE4FFEF
:100E2000E2CFDAFFE9CFE4FFEACFE4FFF6CFE4FF59
:100E3000F7CFE4FFF5CFE4FFF3CFE4FFF4CFE4FF17
:100E4000FACFE4FF1200E5CFFAFFE5CFF4FFE5CFDC
:100E5000F3FFE5CFF5FFE5CFF7FFE5CFF6FFE5CFF1
:100E6000EAFFE5CFE9FFE5CFDAFF1200FBEC04F083
:100E7000F294E9EC04F003EF05F0FDEC04F09E9031
:100E8000ECEC04F012EF05F001EC05F0A192F3ECAC
:060E900004F030EF05F054
:0A0E960040D8D40EE66E0F0EE66E93
:100EA000E66AE66AB2EC01F0E552E552E552E55237
:100EB000CBEC01F0D00EE66E070EE66E47D8E55299
:100EC000E552B0EC00F00F010B51FDE00B6BDFECD5
:100ED00005F00001050EEE5D000EEF5904E3050E6E
:100EE000EE5F000EEF5B0001050EF05D000EF159A4
:100EF00004E3050EF05F000EF15B0001050EF25DEC
:100F0000000EF35904E3050EF25F000EF35B79EC7B
:100F100002F0CBEC01F0D7D77FEC00F0A2EC06F0AA
:100F2000DBEC05F076EC02F05BEC09F0660EE66EA9
:100F3000B70EE66ECCEC04F0E552E552320EE66EEA
:100F4000E66A6FEC05F0E552E5521200D9CFE6FFF4
:100F5000E1CFD9FF040EE126DE6ADD6ADECF10F0B4
:100F6000DDCF11F0FD0EDBCF12F0FE0EDBCF13F064
:100F700011501318E8AE02D0133404D01250105C94
:100F8000135011581DE2020EDB6A030EDB6A020EDB
:100F9000DBCF10F0030EDBCF11F0D890115004E638
:100FA000A00E105C000E115806E2020EDB2A030EA2
:100FB000EEE3DB2AECD7DF2A010ED0E3DB2ACED723
:100FC000040EE15C02E2E16AE552E16EE552E7CF30
:040FD000D9FF120033
:0C0FD400205452414646494320204C491D
:100FE000474854200059454C4C4F573A2020202068
:100FF00020202020200020202020414A555354202A
:101000004D4F4445202000475245454E3A20202070
:101010002020202020202000202020414A55535409
:10102000204D4F4445202020003159454C4C4F570E
:1010300020003252454420202020003147524545AF
:101040004E2020003259454C4C4F57200059454CFA
:101050004C4F573200475245454E203200524544CE
:10106000203220200059454C4C4F57310047524503
:10107000454E203100524544203120200032475255
:1010800045454E2020003152454420202020004775
:101090005245454E202020202059454C4C4F5700AA
:1010A000202043484F4F5345204C49474854202067
:1010B00000205F5F5F5F4D414E55414C5F5F5F5F5A
:1010C0002000202020202020202020202020202040
:0310D000202000DD
:0C10D4001E0EF66E000EF76E000EF86E99
:1010E00000010900F550FA6F0900F550FB6F03E1AC
:1010F000FA6701D03DD00900F550F56F0900F550B1
:10110000F66F0900F550F76F09000900F550E96E18
:101110000900F550EA6E090009000900F550F86F62
:101120000900F550F96F09000900F6CFFCF0F7CF80
:10113000FDF0F8CFFEF0F5C0F6FFF6C0F7FFF7C000
:10114000F8FF0001F85302E1F95307E00900F550F8
:10115000EE6EF807F8E2F907F9D7FCC0F6FFFDC01C
:10116000F7FFFEC0F8FF0001FA07000EFB5BBFD7D8
:0211700012006B
:0E117200006A0EAEC4EF08F00C6C0D1E0E1ECF
:10118000E86A0D220E22001E09AECEEF08F0076CB1
:10119000081E091EE86A08220922001E0AEC09F04E
:1011A00009BEE1EF08F000AE000C076C081E091E36
:1011B000E86A08220922036C041E051E0422052287
:0C11C000000C00BED5EF08F00188FF0C09
:0411CC00056A046A42
:1011D000036A026A200EE76ED89006360736083694
:1011E000093602360336043605360B50025C0C50C5
:1011F00003580D5004580E50055809E30B50025E79
:101200000C50035A0D50045A0E50055A062AE72E68
:04121000E4D712000D
:0C121400056A046A036A180EE76ED890A1
:101220000736083609360336043605360C50035C9B
:101230000D5004580E50055807E30C50035E0D5036
:0E124000045A0E50055A072AE72EEAD712006C
:02124E00056A2F
:10125000046A100EE76ED890083609360436053653
:101260000D50045C0E50055805E30D50045E0E5001
:0A127000055A082AE72EF0D71200F5
:06127A00800EF36E00EE91
:1012800000F00F0E01D81200EA6002D0EE6AFCD71F
:0A129000F350E9601200EE6AFCD78B
:06129A001EEE00F02EEE36
:1012A00000F0F86A019C6AEC08F003EC00F04BECEB
:0612B00007F0FBD712005D
:0A12B60012001200120012001200D4
:0412C0001200120006
:0C12C4000000000000000000000000001E
:0C12D00000000000000000000000000012
:0412DC00202020208E
:1012E00020202020202020202020202020202020FE
:0C12F00020202020202020202020202072
:0412FC00E803BC0245
:091300002C0100000000000000B7
:020000040030CA
:0100010002FC
:0100020003FA
:010003001EDE
:010005008179
:010006008178
:010008000FE8
:01000900C036
:01000A000FE6
:01000B00E014
:01000C000FE4
:01000D0040B2
:00000001FF
