:020000040000FA
:060000002FEF0EF01200CC
:020006001200E6
:06000800A2EF0BF0120054
:02000E000A07DF
:06001000030000000000E7
:0600180030EF0BF01200B6
:02001E000400DC
:10002000C01C0000180F0000180000000E000000A7
:10003000300F000008000000A01C0000D0000000ED
:1000400020000000881C0000000F000018000000C5
:100050000001FE6B12000001FE51100A01E175D390
:100060001F0A01E14CD3010A01E1BCD2030A01E1FC
:1000700056D2010A01E1F4D1070A01E190D1010A47
:1000800001E12ED1030A01E119D1010A01E106D1F2
:100090000F0A01E1F3D0010A01E1E1D0030A01E115
:1000A000CFD0010A01E1BDD0070A01E18FD3010AD7
:1000B00001E197D0030A1DE0010A01E089D3860E11
:1000C000E66E1A0EE66EE66AE66AC5EC06F0E552E2
:1000D000E552E552E552750EE66E1A0EE66EE66AD8
:1000E000010EE66EC5EC06F0E552E552E552E5522A
:1000F000F4D0050EE66ED5EC0AF0E552000905E0F5
:1001000020EC05F00001020EECD2E80EE66E030EC4
:10011000E66E050EE66EF7EC0AF0E552E552E552A2
:10012000000922E020EC05F0640EE66E1A0EE66E81
:10013000E66AE66AC5EC06F0E552E552E552E5529C
:10014000530EE66E1A0EE66EE66A010EE66EC5EC1A
:1001500006F0E552E552E552E5520A0E0F01356F01
:10016000366B00010E0EBDD2080EE66ED5EC0AF01D
:10017000E552000903E00001040EB3D20A0EE66E58
:10018000D5EC0AF0E552000903E00001050EA9D202
:10019000090EE66ED5EC0AF0E552000903E0000115
:1001A000060E9FD20C0EE66ED5EC0AF0E552000961
:1001B00003E00001070E95D20E0EE66ED5EC0AF0B4
:1001C000E552000903E00001080E8BD20D0EE66E29
:1001D000D5EC0AF0E552000901E1FBD20001090E5D
:1001E00080D24A0EE66E1A0EE66EE66AE66AC5EC44
:1001F00006F0E552E552E552E552410EE66E1A0E62
:10020000E66EE66A010EE66EC5EC06F0E552E552D2
:10021000E552E55230CF33FF31CF34FF00010A0EF3
:1002200060D2390EE66E1A0EE66EE66AE66AC5EC34
:1002300006F0E552E552E552E5523EEC0EF04DD0A7
:10024000310EE66E1A0EE66EE66AE66AC5EC06F058
:10025000E552E552E552E55240EC0EF03ED0290E53
:10026000E66E1A0EE66EE66AE66AC5EC06F0E55240
:10027000E552E552E5523FEC0EF02FD0210EE66E2E
:100280001A0EE66E080EE66EE66AC5EC06F0E5525A
:10029000E552E552E55241EC0EF01FD0190EE66E24
:1002A0001A0EE66E080EE66EE66AC5EC06F0E5523A
:1002B000E552E552E55243EC0EF00FD0110EE66E1A
:1002C0001A0EE66E080EE66EE66AC5EC06F0E5521A
:1002D000E552E552E55242EC0EF00001010E01D26A
:1002E0003EEC0EF043EC0EF00F0137512EE0376B71
:1002F00033CF10F0116A126A136A33CFE6FF11C0D0
:10030000E6FF12C0E6FF13C0E6FF080EE66EE66ADF
:10031000A4EC05F0146E060EE15E145034CF10F01C
:10032000116A126A136A34CFE6FF11C0E6FF12C0E9
:10033000E6FF13C0E6FF080EE66E010EE66EA4ECC3
:1003400005F0146E060EE15E14500F0134511EE1EB
:100350004A0EE66E1A0EE66EE66AE66AC5EC06F02E
:10036000E552E552E552E552080EE66E1A0EE66ECB
:10037000E66A010EE66EC5EC06F0E552E552E5527E
:10038000E55232CF34FF00010B0EFE6F050EE66E14
:10039000D5EC0AF0E552000901E11BD220D13EEC78
:1003A0000EF042EC0EF00F0137512EE0376B33CFD9
:1003B00010F0116A126A136A33CFE6FF11C0E6FF2C
:1003C00012C0E6FF13C0E6FF080EE66EE66AA4EC74
:1003D00005F0146E060EE15E145034CF10F0116A71
:1003E000126A136A34CFE6FF11C0E6FF12C0E6FFBF
:1003F00013C0E6FF080EE66E010EE66EA4EC05F0F3
:10040000146E060EE15E14500F01335120E1FF0E11
:10041000E66E190EE66EE66AE66AC5EC06F0E5528F
:10042000E552E552E552F60EE66E190EE66EE66A04
:10043000010EE66EC5EC06F0E552E552E552E552D6
:1004400031CF33FF30CF34FF00010C0EFE6F050EAD
:10045000E66ED5EC0AF0E552000901E1BAD1BFD051
:1004600040EC0EF041EC0EF00F0137512EE0376BEF
:1004700033CF10F0116A126A136A33CFE6FF11C04E
:10048000E6FF12C0E6FF13C0E6FF080EE66EE66A5E
:10049000A4EC05F0146E060EE15E145034CF10F09B
:1004A000116A126A136A34CFE6FF11C0E6FF12C068
:1004B000E6FF13C0E6FF080EE66E010EE66EA4EC42
:1004C00005F0146E060EE15E14500F0133511EE16B
:1004D000ED0EE66E190EE66EE66AE66AC5EC06F00B
:1004E000E552E552E552E552F60EE66E190EE66E5D
:1004F000E66A010EE66EC5EC06F0E552E552E552FD
:10050000E55232CF33FF00010D0EFE6F050EE66E91
:10051000D5EC0AF0E552000901E15BD160D03FEC77
:100520000EF041EC0EF00F0137512EE0376B33CF58
:1005300010F0116A126A136A33CFE6FF11C0E6FFAA
:1005400012C0E6FF13C0E6FF080EE66EE66AA4ECF2
:1005500005F0146E060EE15E145034CF10F0116AEF
:10056000126A136A34CFE6FF11C0E6FF12C0E6FF3D
:1005700013C0E6FF080EE66E010EE66EA4EC05F071
:10058000146E060EE15E14500F01345120E14A0E44
:10059000E66E1A0EE66EE66AE66AC5EC06F0E5520D
:1005A000E552E552E552410EE66E1A0EE66EE66A37
:1005B000010EE66EC5EC06F0E552E552E552E55255
:1005C00030CF33FF31CF34FF00010A0EFE6F050E2E
:1005D000E66ED5EC0AF0E552000901E1FAD000011F
:1005E000030E7FD0040EE66ED5EC0AF0E55200094A
:1005F00039E020EC05F0DC0EE66E190EE66EE66AD8
:10060000E66AC5EC06F0E552E552E552E552CB0E3E
:10061000E66E190EE66E010EE66EE66AC5EC06F0B1
:10062000E552E552E552E55231CF10F0116A126AF7
:10063000136A31CFE6FF11C0E6FF12C0E6FF13C018
:10064000E6FF080EE66E010EE66EA4EC05F0146EF1
:10065000060EE15E14500A0E0F01356F366B000175
:100660000F0E3FD0060EE66ED5EC0AF0E5520009FB
:100670003AE020EC05F0BA0EE66E190EE66EE66A78
:10068000E66AC5EC06F0E552E552E552E552A90EE0
:10069000E66E190EE66E010EE66EE66AC5EC06F031
:1006A000E552E552E552E55232CF10F0116A126A76
:1006B000136A32CFE6FF11C0E6FF12C0E6FF13C097
:1006C000E6FF080EE66E010EE66EA4EC05F0146E71
:1006D000060EE15E14500A0E0F01356F366B0001F5
:1006E000100EFE6F1200050EE66ED5EC0AF0E55214
:1006F00000096BE10F01355136116BE166D0060E32
:10070000E66ED5EC0AF0E552000903E00F0131076F
:1007100009D0040EE66ED5EC0AF0E552000909E0B6
:100720000F01312B0A0E0F01356F366B31CF10F0F0
:1007300025D0050EE66ED5EC0AF0E55200093FE142
:100740000F013551361145E13AD0060EE66ED5EC73
:100750000AF0E552000903E00F01320709D0040E48
:10076000E66ED5EC0AF0E55200091EE00F01322BCF
:100770000A0E0F01356F366B32CF10F0116A126A14
:10078000136A10C0E6FF11C0E6FF12C0E6FF13C0F7
:10079000E6FF080EE66E010EE66EA4EC05F0146EA0
:1007A000060EE15E14501200050EE66ED5EC0AF05E
:1007B000E552000904E10F01355136110AE10F013C
:1007C00031510F0132250F01306F0001FE6B120015
:0407D000FE6B1200AA
:0C07D400D9CFE6FFE1CFD9FF020EE126ED
:1007E000DE6ADD6ADECF10F0DDCF11F0FE0EDB50E9
:1007F000136AE850105C1350115805E2DF2A010E0D
:10080000F1E3DB2AEFD7020EE15C02E2E16AE55296
:10081000E16EE552E7CFD9FF1200D9CFE6FFE1CF75
:10082000D9FF040EE126DE6ADD6ADECF10F0DDCFEF
:1008300011F0FE0EDB50136AE850105C1350115893
:100840001AE2020EDB6A030EDB6A020EDBCF10F047
:10085000030EDBCF11F0FA0E105C000E115806E209
:10086000020EDB2A030EF1E3DB2AEFD7DF2A010EAB
:10087000DCE3DB2ADAD7040EE15C02E2E16AE5524E
:10088000E16EE552E7CFD9FF1200D9CFE6FFE1CF05
:10089000D9FF0F0E8116FE0EDB5081128186010EEC
:1008A000E66E98DFE5528196010EE66E93DFE55223
:1008B000E552E7CFD9FF1200D9CFE6FFE1CFD9FF4C
:1008C0008184010EE66EA9DFE552FE0EDBCFE6FF66
:1008D000DCDFE552FE0EDB38F00BE66ED6DFE552CC
:1008E0008194E552E7CFD9FF1200D9CFE6FFE1CFDF
:1008F000D9FF8194010EE66E90DFE552FE0EDBCF4C
:10090000E6FFC3DFE552FE0EDB38F00BE66EBDDF1F
:10091000E5528194E552E7CFD9FF1200D9CFE6FF27
:10092000E1CFD9FF0F0E8116FE0EDB50F00B8112C6
:100930008186010EE66E71DFE5528196010EE66E4C
:100940006CDFE5520F0E8116FE0EDB38F00B8112C4
:100950008186010EE66E61DFE5528196010EE66E3C
:100960005CDFE552E552E7CFD9FF1200D9CFE6FFB1
:10097000E1CFD9FFE652936AFA0EE66E4EDFE552FA
:100980000F0E8116F80E81160F0E8116300E811291
:100990008186010EE66E41DFE5528196010EE66E1C
:1009A0003CDFE5520F0E8116300E81128186010E5A
:1009B000E66E33DFE5528196010EE66E2EDFE552DC
:1009C0000F0E8116300E81128186010EE66E25DF34
:1009D000E5528196010EE66E20DFE5520F0E81167C
:1009E000818A8186010EE66E18DFE5528196010E3E
:1009F000E66E13DFE552280EE66E90DFE5520C0E30
:100A0000E66E8CDFE552E552E552E7CFD9FF1200E2
:100A1000D9CFE6FFE1CFD9FFFE0EDB50010A06E099
:100A2000010A0AE1FD0EDB50800F03D0FD0EDB5002
:100A3000C00FE66E5ADFE552E552E7CFD9FF12004C
:100A4000D9CFE6FFE1CFD9FF020EE126DF6A020E21
:100A5000DF5C22E2010EDB6A100EF36E010EDBCFCB
:100A6000F4FFF350F45C16E2DF50100DF3CF10F0FA
:100A7000F4CF11F0D00E1026000E1122010EDB5023
:100A80001024E96E000E1120EA6E200EEF6E010EAA
:100A9000DB2AE2D7DF2ADBD7020EE15C02E2E16A61
:100AA000E552E16EE552E7CFD9FF1200D9CFE6FF5C
:100AB000E1CFD9FF38CF10F039CF11F0040ED89024
:100AC00010361136E806FBE1D00E1026000E11227A
:100AD00010500F013A25E96E11503B21EA6EFE0ECF
:100AE000DBCFEFFF3A2B000E3B23E552E7CFD9FFD8
:100AF0001200D9CFE6FFE1CFD9FFFE0EDB50010B8C
:100B00000F01386F396BFD0EDB500F0B3A6F3B6BEB
:100B100038CF10F039CF11F0040ED89010361136BE
:100B2000E806FBE1D00E1026000E112210500F0136
:100B30003A25E96E11503B21EA6EFC0EDBCFEFFF48
:100B4000E552E7CFD9FF1200D9CFE6FFE1CFD9FFB9
:100B5000060EE126DF6A020EDB6ACA0EF36E030E92
:100B6000F3CFDBFF9A0EF36E040EF3CFDBFF3B0EE9
:100B7000F36E050EF3CFDBFFFE0EDB50010B0F0112
:100B8000386F396BFD0EDB500F0B3A6F3B6BD95052
:100B9000F90FE96EFF0EDA20EA6ED890030EEB50E3
:100BA000000A08E6000EEE5C000EEE58000EEE584D
:100BB000000EEE5816E2D950F90FE96EFF0EDA205A
:100BC000EA6E000EEE6CEF1EEE22EF1EEE22EF1E1E
:100BD000EF22ED52ED52ED522D0EE66E67DFE5523B
:100BE00016D0F90EDBCF10F0FA0EDBCF11F0FB0EB2
:100BF000DBCF12F0FC0EDBCF13F0105011101210EF
:100C0000131005E1300EE66E51DFE552ACD0DE5236
:100C10000A0EDD6E010EDB50000801E3A4D0F90ED0
:100C2000DBCF10F0FA0EDBCF11F0FB0EDBCF12F0B2
:100C3000FC0EDBCF13F010C006F011C007F012C09D
:100C400008F013C009F0020EDBCF0BF0030EDBCF70
:100C50000CF0040EDBCF0DF0050EDBCF0EF0C8EC70
:100C60000DF0065007100810091034E0010EDF6E79
:100C7000F90EDBCF14F0FA0EDBCF15F0FB0EDBCF55
:100C800016F0FC0EDBCF17F014C006F015C007F00D
:100C900016C008F017C009F0020EDBCF0BF0030EF0
:100CA000DBCF0CF0040EDBCF0DF0050EDBCF0EF02A
:100CB000C8EC0DF006C010F007C011F008C012F02B
:100CC00009C013F0300E1026000E1122122213223A
:100CD000105003D0DF5004E0300EE66EE7DEE55240
:100CE000D950F90FE96EFF0EDA20EA6E020EDBCF63
:100CF0000BF0030EDBCF0CF0040EDBCF0DF0050E76
:100D0000DBCF0EF0EECF06F0EECF07F0EECF08F01F
:100D1000EFCF09F0C8EC0DF005C0EDFF04C0EDFF0A
:100D200003C0EDFF02C0EFFFD950020FE96EDACF2A
:100D3000EAFF0A0E0B6E0C6A0D6A0E6AEECF06F021
:100D4000EECF07F0EECF08F0EFCF09F0C8EC0DF0D2
:100D500009C0EDFF08C0EDFF07C0EDFF06C0EFFFC3
:100D6000010EDB0657D7200EE66EA0DEE552200E00
:100D7000E66E9CDEE552060EE15C02E2E16AE552B7
:100D8000E16EE552E7CFD9FF1200D9CFE6FFE1CF00
:100D9000D9FFFE0EDB50010B0F01386F396BFD0ED2
:100DA000DB500F0B3A6F3B6BFB0EDBCFF6FFFC0EFD
:100DB000DBCFF7FF0800F5500FE0FB0EDBCFF6FFAF
:100DC000DB2AFC0EDBCFF7FF01E3DB2A0800F5503E
:100DD000E66E6CDEE552E8D7E552E7CFD9FF1200A8
:100DE000D9CFE6FFE1CFD9FFE652E66AE66A10DE28
:100DF000E552E552DF6A100EDF5C0CE2DF50EA6A72
:100E0000D00FE96E000EEA22EF50E66E55DDE55296
:100E1000DF2AF1D7E66A010EE66EFADDE552E55209
:100E2000DF6A100EDF5C0CE2DF50EA6AE00FE96E69
:100E3000000EEA22EF50E66E3FDDE552DF2AF1D7E1
:0A0E4000E552E552E7CFD9FF12009A
:060E4A00D9CFE6FFE1CF65
:100E5000D9FFD59EFD0EDBCF00FFFE0EDBCF01FFDD
:100E6000D59C13681468156A00CF16F001CF17F0EF
:100E7000186A1650135C106E17501458116E1850E3
:100E80001558126E0C6A010E0D6E0E6A10C007F036
:100E900011C008F012C009F09BEC0DF00350D66EA3
:100EA00013681468156A00CF16F001CF17F0186A9E
:100EB0001650135C106E17501458116E18501558B8
:100EC000126E0C6A010E0D6E0E6A10C007F011C092
:100ED00008F012C009F09BEC0DF007C010F008C03C
:100EE00011F009C012F00750D76ED59AD586F28A54
:100EF000F294F184D58EE552E7CFD9FF1200D9CF15
:100F0000E6FFE1CFD9FFCD90FD0EDBCF02FFFE0E55
:100F1000DBCF03FFF50E136E1468156A02CF16F0CF
:100F200003CF17F0186A1650135C106E1750145840
:100F3000116E18501558126E0C6A010E0D6E0E6A65
:100F400010C007F011C008F012C009F09BEC0DF0C2
:100F50000350CF6E13681468156A02CF16F003CFE2
:100F600017F0186A1650135C106E17501458116E53
:100F700018501558126E0C6A010E0D6E0E6A10C0D4
:100F800007F011C008F012C009F09BEC0DF007C08B
:100F900010F008C011F009C012F00750CE6E9D800D
:100FA0009E909F90CD8ECD8CCD98CD9ACD96CD92A2
:100FB000CD80E552E7CFD9FF1200D9CFE6FFE1CFD0
:100FC000D9FFCA94CC6AFE0EDB500F01046F056B8B
:100FD000CB6E9D829E929F92CA90CA92CA84E5521D
:100FE000E7CFD9FF1200D9CFE6FFE1CFD9FFB1900B
:100FF000FD0EDBCF06FFFE0EDBCF07FF1368146884
:10100000156A06CF16F007CF17F0186A1650135C52
:10101000106E17501458116E18501558126E0C6A35
:10102000010E0D6E0E6A10C007F011C008F012C05C
:1010300009F09BEC0DF00750B36E13681468156A45
:1010400006CF16F007CF17F0186A1650135C106E13
:1010500017501458116E18501558126E0C6A010E64
:101060000D6E0E6A10C007F011C008F012C009F032
:101070009BEC0DF003C010F004C011F005C012F09D
:101080000350B26EA082A192A292B18EB198B19A91
:10109000B192B180E552E7CFD9FF1200136814680E
:1010A000156A00CF16F001CF17F0186A1650135CBE
:1010B000106E17501458116E18501558126E0C6A95
:1010C000010E0D6E0E6A10C007F011C008F012C0BC
:1010D00009F09BEC0DF00350D66E13681468156A86
:1010E00000CF16F001CF17F0186A1650135C106E7F
:1010F00017501458116E18501558126E0C6A010EC4
:101100000D6E0E6A10C007F011C008F012C009F091
:101110009BEC0DF007C010F008C011F009C012F0F0
:101120000750D76ED58E1200F50E136E1468156A2F
:1011300002CF16F003CF17F0186A1650135C106E2A
:1011400017501458116E18501558126E0C6A010E73
:101150000D6E0E6A10C007F011C008F012C009F041
:101160009BEC0DF00350CF6E13681468156A02CF24
:1011700016F003CF17F0186A1650135C106E175054
:101180001458116E18501558126E0C6A010E0D6E1F
:101190000E6A10C007F011C008F012C009F09BECF5
:1011A0000DF007C010F008C011F009C012F0075090
:1011B000CE6ECD80120004CFCBFFCA84120013681C
:1011C0001468156A06CF16F007CF17F0186A165084
:1011D000135C106E17501458116E18501558126E7B
:1011E0000C6A010E0D6E0E6A10C007F011C008F0F7
:1011F00012C009F09BEC0DF00350B26E1368146836
:10120000156A06CF16F007CF17F0186A1650135C50
:10121000106E17501458116E18501558126E0C6A33
:10122000010E0D6E0E6A10C007F011C008F012C05A
:1012300009F09BEC0DF007C010F008C011F009C0D8
:1012400012F00750B36EB1801200D59E1200CD90FF
:101250001200CA941200B19012000F01082B000E68
:1012600009231051085D1151095905E3086B096BF9
:101270000001010EFA6F12000F010A2B000E0B2362
:1012800012510A5D13510B5905E30A6B0B6B0001F8
:10129000010EFB6F12000F010C2B000E0D231451D9
:1012A0000C5D15510D5905E30C6B0D6B0001010E22
:1012B000FC6F12000F010E2B000E0F2316510E5D56
:1012C00017510F5905E30E6B0F6B0001010EFD6FF7
:1012D0001200D9CFE6FFE1CFD9FFFD0EDBCF10FF23
:1012E000FE0EDBCF11FF0F01086B096B0001FA6BDB
:1012F000E552E7CFD9FF1200D9CFE6FFE1CFD9FF02
:10130000FD0EDBCF12FFFE0EDBCF13FF010E0F0B26
:101310000F0105E0D89013331233E806FBE10F010B
:101320000A6B0B6B0001FB6BE552E7CFD9FF120094
:10133000D9CFE6FFE1CFD9FFFD0EDBCF14FFFE0EC4
:10134000DBCF15FF0F010C6B0D6B0001FC6BE55241
:10135000E7CFD9FF1200D9CFE6FFE1CFD9FFFD0ECD
:10136000DBCF16FFFE0EDBCF17FF0A0E0D6E0E6AE7
:1013700016CF08F017CF09F009EC0EF008C016FFE1
:1013800009C017FF0F010E6B0F6B0001FD6BE552DB
:06139000E7CFD9FF1200B7
:0A1396000F0E946E82681200D9CF8A
:1013A000E6FFE1CFD9FF030EE126DF6A040EDF5C22
:1013B00001E3D8D0DF50EA6A280FE96E0F0EEA2267
:1013C000EF1C826E010EDB6A040EF36E010EDBCFA2
:1013D000F4FFF350F45C01E3C3D0010EDBCFE6FF72
:1013E000040EDF02F350E552E724E76E020EE7CF6A
:1013F000DBFFDB50EA6A800FE96E000EEA22EF5055
:10140000E66E020EDB50EA6A900FE96E000EEA22E9
:10141000E552E750EF6E010EDB50EA6A2C0FE96EE1
:101420000F0EEA22EF508214E66E020EDB50EA6ADB
:10143000800FE96E000EEA22E552E750EF6E020ED1
:10144000DB50EA6A800FE96E000EEA22EFCF10F05F
:10145000020EDB50EA6A900FE96E000EEA22EF50AE
:10146000105C01E07AD0020EDB50EA6A800FE96E70
:10147000000EEA22EF50E66E020EDB50EA6A180F09
:10148000E96E0F0EEA22E552E750EF6E020EDB50D6
:10149000EA6A180FE96E0F0EEA22EF5021E1020E00
:1014A000EA6ADB34FE0BEA36E96EB00EE926000E7E
:1014B000EA22EECF10F0EFCF11F0E80E105C030E31
:1014C00011584BE2020EEA6ADB34FE0BEA36E96E93
:1014D000B00EE926000EEA22EE2A000EEF223DD0E1
:1014E000020EEA6ADB34FE0BEA36E96EB00EE9263C
:1014F000000EEA22000ED880EE54000EED5413E2E6
:10150000020EEA6ADB34FE0BEA36E96EB00EE9261B
:10151000000EEA22EECF10F0EFCF11F0320E105C89
:10152000000E115802E3000E01D0010EE66E020E0D
:10153000DB50EA6AA00FE96E000EEA22E552E7509E
:10154000EF6E020EEA6ADB34FE0BEA36E96EB00E8D
:10155000E926000EEA22EE6AED6A010EDB2A34D794
:10156000DF2A24D7030EE15C02E2E16AE552E16E74
:10157000E552E7CFD9FF1200D9CFE6FFE1CFD9FF7F
:10158000FE0EDB50100802E2000E0BD0FE0EEA6ADF
:10159000DB34FE0BEA36E96EB00EE926000EEA22D5
:1015A000EF50E552E7CFD9FF1200D9CFE6FFE1CFE8
:1015B000D9FFE652FE0EDB50100802E2000E12D0F8
:1015C000FE0EDB50EA6AA00FE96E000EEA22EFCFB2
:1015D000DFFFFE0EDB50EA6AA00FE96E000EEA2282
:1015E000EF6ADF50E552E552E7CFD9FF1200D9CFBD
:1015F000E6FFE1CFD9FF100EF36EFE0EDBCFF4FF56
:10160000F350F45C22E2FE0EEA6ADB34FE0BEA36AB
:10161000E96EB00EE926000EEA22EECF10F0EFCF11
:1016200011F0FC0EDBCF12F0FD0EDBCF13F00A0E33
:101630000D6E0E6A12C008F013C009F009EC0EF02E
:101640001050085C1150095802E3000E01D0010E41
:08165000E552E7CFD9FF1200BB
:08165800F28ED08EF28C12001C
:10166000D8CFE4FFE0CFE4FFE46EDACFE4FFE2CFCF
:10167000DAFFE9CFE4FFEACFE4FFF6CFE4FFF7CFEC
:10168000E4FFF5CFE4FFF3CFE4FFF4CFE4FFFACFBC
:10169000E4FF00EE00F0100EE80403E3EECFE4FFF9
:1016A000FBD700EE10F0090EE80403E3EECFE4FFF1
:1016B000FBD7E652F2A407D025EC09F0F2944EECE9
:1016C00008F02DEC09F09EA007D027EC09F09E90C1
:1016D00094EC08F03CEC09F0A1A207D02BEC09F047
:1016E000A192DFEC08F05AEC09F0F2B2F2929EBA45
:1016F0009E9AE55200EE18F0090EE80403E3E5CFE8
:10170000EDFFFBD700EE0FF0100EE80403E3E5CF8A
:10171000EDFFFBD7E5CFFAFFE5CFF4FFE5CFF3FF11
:10172000E5CFF5FFE5CFF7FFE5CFF6FFE5CFEAFF21
:10173000E5CFE9FFE5CFDAFFE550E5CFE0FFE5CF04
:10174000D8FF1000DACFE4FFE2CFDAFFE9CFE4FF01
:10175000EACFE4FFF6CFE4FFF7CFE4FFF5CFE4FFF5
:10176000F3CFE4FFF4CFE4FFFACFE4FF00EE00F0A4
:10177000100EE80403E3EECFE4FFFBD700EE10F019
:10178000090EE80403E3EECFE4FFFBD7E652F2A430
:1017900007D025EC09F0F2944EEC08F02DEC09F09E
:1017A0009EA007D027EC09F09E9094EC08F03CEC4A
:1017B00009F0A1A207D02BEC09F0A192DFEC08F010
:1017C0005AEC09F0F2B2F2929EBA9E9AE55200EEFD
:1017D00018F0090EE80403E3E5CFEDFFFBD700EEB8
:1017E0000FF0100EE80403E3E5CFEDFFFBD7E5CFE4
:1017F000FAFFE5CFF4FFE5CFF3FFE5CFF5FFE5CF47
:10180000F7FFE5CFF6FFE5CFEAFFE5CFE9FFE5CF4C
:04181000DAFF1100EA
:0C18140041D8980EE66E190EE66EE66AEA
:10182000E66AC5EC06F0E552E552E552E552F0EC09
:1018300006F0D00EE66E070EE66E6AD8E552E55267
:1018400020EC05F00001FA5118E0FA6B0F0133515A
:10185000000801E233070F013451000801E23407A8
:101860000F01000ED8803555000E365503E23507BE
:10187000000E365B0F01010E376F0001FB5103E0D4
:10188000FB6BCFEC09F00001FD5103E0FD6BF0ECC8
:1018900006F02BEC00F0D6D7D398D38AD38CB6ECD5
:1018A00004F02CEC0BF0CBEC09F028EC00F03DEC54
:1018B0000EF0570EE66E120EE66E25EC07F0E552BE
:1018C000E552AE0EE66E240EE66E7FEC07F0E552B2
:1018D000E552660EE66EB70EE66EF3EC07F0E552E3
:1018E000E552E80EE66E030EE66E69EC09F0E5528D
:1018F000E5520A0EE66EE66A7CEC09F0E552E55226
:10190000320EE66EE66AABEC09F0E552E5521200E3
:10191000D9CFE6FFE1CFD9FF040EE126DE6ADD6A0A
:10192000DECF10F0DDCF11F0FD0EDBCF12F0FE0E9A
:10193000DBCF13F011501318E8AE02D0133404D0EB
:101940001250105C135011581DE2020EDB6A030E98
:10195000DB6A020EDBCF10F0030EDBCF11F0D89064
:10196000115004E6A00E105C000E115806E2020EA3
:10197000DB2A030EEEE3DB2AECD7DF2A010ED0E3ED
:10198000DB2ACED7040EE15C02E2E16AE552E16EA9
:08199000E552E7CFD9FF120078
:08199800205452414646494328
:1019A00020204C49474854200059454C4C4F573A49
:1019B0002020202020202020200020202020414AFC
:1019C000555354204D4F4445202000475245454E25
:1019D0003A202020202020202020200020202041EC
:1019E0004A555354204D4F4445202020003159453D
:1019F0004C4C4F57200032524544202020200031CB
:101A0000475245454E2020003259454C4C4F5720F7
:101A10000059454C4C4F573200475245454E2032F5
:101A200000524544203220200059454C4C4F57313C
:101A300000475245454E2031005245442031202078
:101A40000032475245454E20200031524544202067
:101A5000202000475245454E202020202059454C4B
:101A60004C4F5700202043484F4F5345204C494787
:101A70004854202000205F5F5F5F4D414E55414C30
:101A80005F5F5F5F200020205452554E4720204E5C
:071A900047484941202000F6
:081A98001E0EF66E000EF76E43
:101AA000000EF86E00010900F550F56F0900F550C1
:101AB000F66F03E1F56701D03DD00900F550F06FF6
:101AC0000900F550F16F0900F550F26F09000900A7
:101AD000F550E96E0900F550EA6E090009000900A9
:101AE000F550F36F0900F550F46F09000900F6CFC7
:101AF000F7F0F7CFF8F0F8CFF9F0F0C0F6FFF1C04B
:101B0000F7FFF2C0F8FF0001F35302E1F45307E0DE
:101B10000900F550EE6EF307F8E2F407F9D7F7C0C5
:101B2000F6FFF8C0F7FFF9C0F8FF0001F507000E57
:061B3000F65BBFD71200B6
:0A1B3600006A0EAEA6EF0DF00C6C75
:101B40000D1E0E1EE86A0D220E22001E09AEB0EF19
:101B50000DF0076C081E091EE86A08220922001E03
:101B6000ECEC0DF009BEC3EF0DF000AE000C076CFD
:101B7000081E091EE86A08220922036C041E051EBD
:101B800004220522000C00BEB7EF0DF00188FF0C07
:101B9000056A046A036A026A200EE76ED890063668
:101BA00007360836093602360336043605360B503A
:101BB000025C0C5003580D5004580E50055809E3B0
:101BC0000B50025E0C50035A0D50045A0E50055A29
:081BD000062AE72EE4D71200FB
:081BD800056A046A036A180E95
:101BE000E76ED890073608360936033604360536D0
:101BF0000C50035C0D5004580E50055807E30C5070
:101C0000035E0D50045A0E50055A072AE72EEAD7F4
:021C10001200C0
:0E1C1200056A046A100EE76ED890083609368F
:101C2000043605360D50045C0E50055805E30D5082
:0E1C3000045E0E50055A082AE72EF0D7120067
:021C3E00800E16
:101C4000F36E00EE00F00F0E01D81200EA6002D031
:0E1C5000EE6AFCD7F350E9601200EE6AFCD792
:021C5E001EEE78
:101C600000F02EEE00F0F86A019C4CEC0DF003EC55
:0A1C700000F00AEC0CF0FBD71200A4
:061C7A001200120012002E
:081C8000120012001200120014
:081C8800000000000000000054
:101C90000000000000000000000000000000000044
:101CA0002020202020202020202020202020202034
:101CB0002020202020202020202020202020202024
:101CC0000000000000000000000000000000000014
:081CD00010204080010204080D
:020000040030CA
:0100010002FC
:0100020003FA
:010003001EDE
:010005008179
:010006008178
:010008000FE8
:01000900C036
:01000A000FE6
:01000B00E014
:01000C000FE4
:01000D0040B2
:00000001FF
