:020000040000FA
:0600000047EF0BF01200B7
:020006001200E6
:0600080081EF09F0120077
:02000E001020C0
:060010004080010204081B
:0600180048EF09F01200A0
:02001E000500DB
:100020000E000000340F0000080000002E17000032
:10003000180F0000120000000E170000E000000082
:1000400020000000DE160000B000000030000000BC
:0C005000C6160000000F000018000000A1
:04005C000DDA020EA9
:10006000E126DE6ADD6A36DA05E2DF2A010EFBE30D
:10007000DB2AF9D7020EE15C02E2E16AE552E16EA9
:1000800000D2FAD9040EE126DE6ADD6A23DA1AE22A
:10009000020EDB6A030EDB6A020EDBCF10F0030EEA
:1000A000DBCF11F0FA0E105C000E115806E2020EC2
:1000B000DB2A030EF1E3DB2AEFD7DF2A010EE6E3AA
:1000C000DB2AE4D7040EE15C02E2E16AE552E16E6C
:1000D000D8D14BDA81128186010EE66EBFDFE55280
:1000E0008196010EE66EBADFE552CBD1C5D9818487
:1000F00029D2C2D9819426D238DAF00B31DAFE0E39
:10010000DB38F00B8112A7D9BCD1B6D9E652936A7D
:10011000FA0EE66EB6DFE5520F0E8116F80E811666
:100120000F0E8116300E1CDA300E1ADA300E18DA85
:10013000818A91D9280EE66EDFDFE5520C0EE66E5D
:10014000DBDFE552E5529DD197D9FE0EDB50010A67
:1001500006E0010A0AE1FD0EDB50800F03D0FD0E20
:10016000DB50C00FE66EC5DFE5528BD185D9020E9C
:10017000E126DF6A020EDF5C22E2010EDB6A100E6E
:10018000F36E010EDBCFF4FFF350F45C16E2DF50A8
:10019000100DF3CF10F0F4CF11F0E00E1026000E8A
:1001A0001122010EDB501024E96E000E1120EA6EC0
:1001B000200EEF6E010EDB2AE2D7DF2ADBD7020E1C
:1001C000E15C02E2E16AE552E16E5BD155D940CFD4
:1001D00010F041CF11F0040ED89010361136E80619
:1001E000FBE184D9FE0EDBCFEFFF422B000E432351
:1001F00048D1C1D940CF10F041CF11F0040ED890B2
:1002000010361136E806FBE171D9FC0EDBCFEFFFAB
:1002100038D132D9060EE126DF6AE80EF36E020EFF
:10022000F3CFDBFF030EF36EDB6E040EDB6A050E0D
:10023000DB6A16D971D9D890030EEB50000A08E694
:10024000000EEE5C000EEE58000EEE58000EEE585A
:100250000FE262D9000EEE6CEF1EEE22EF1EEE22D0
:10026000EF1EEF22ED52ED52ED522D0E1BD90FD0A5
:100270001DD9105011101210131009E1200E12D9BF
:10028000200E10D9200E0ED9300E0CD968D0DE52B7
:10029000040EDD6E010EDB50000861E207D910C0CC
:1002A00006F011C007F012C008F013C009F0EDD835
:1002B000E0EC0AF0065007100810091029E0010EC2
:1002C000DF6EF90EDBCF14F0FA0EDBCF15F0FB0E6C
:1002D000DBCF16F0FC0EDBCF17F014C006F015C014
:1002E00007F016C008F017C009F0CFD8E0EC0AF00C
:1002F00006C010F007C011F008C012F009C013F0DA
:10030000300E1026000E112212221322105005D09A
:10031000DF5002E0300E01D0200EC4D8FDD8B5D891
:10032000F1D805C0EDFF04C0EDFF03C0EDFF02C032
:10033000EFFFD950020FE96EDACFEAFF0A0E0B6E1B
:100340000C6A0D6A0E6ADED809C0EDFF08C0EDFF29
:1003500007C0EDFF06C0EFFF010EDB069BD7060EC0
:10036000E15C02E2E16AE552E16E8BD004D9E3D8A8
:100370000800F5500DE0FB0EDBCFF6FFDB2AFC0E8C
:10038000DBCFF7FF01E3DB2A0800F5508BD8EFD76E
:1003900078D072D8E65264D8DF6AFA0EDB50DF5CA0
:1003A0000CE2DF50E76EC7D8E750F626000EF722C2
:1003B0000800F55077D8DF2AF0D7E55262D05CD834
:1003C000E652E66AE66AC0DEE552E552DF6A100EE2
:1003D000DF5C07E2DF50EA6AE00FE96E000E73D8D7
:1003E000F6D7E66A010EE66EAFDEE552E552DF6A49
:1003F000100EDF5C07E2DF50EA6AF00FE96E000ED4
:1004000062D8F6D7E5523DD0B6D88DD80950300F16
:1004100049D889D80550300F45D833D02DD8E65269
:10042000FE0EDB50080DF350400FE66E62DEE55223
:10043000DF6A080EDF5C0DE2DF50E76EFC0EDBCFFB
:10044000E9FFFD0EDBCFEAFFE750E926000E3BD8BF
:10045000F0D7E55216D0818691D88196BEEF02F092
:10046000FE0EDB50010B0F01406F416BFD0EDB50A8
:100470000F0B426F436B1200D9CFE6FFE1CFD9FFDC
:100480001200E552E7CFD9FF1200020EDBCF0BF0CE
:10049000030EDBCF0CF0040EDBCF0DF0050EDBCF2F
:1004A0000EF01200E66E92DEE5521200F90EDBCF7E
:1004B00010F0FA0EDBCF11F0FB0EDBCF12F0FC0ECA
:1004C000DBCF13F01200EA22EF50E66E0FDEE552AA
:1004D000DF2A1200DECF10F0DDCF11F0FE0EDB5070
:1004E000136AE850105C135011581200E00E1026E9
:1004F000000E112210500F014225E96E11504321C8
:10050000EA6E1200EECF06F0EECF07F0EECF08F065
:10051000EFCF09F0E0EF0AF0D950F90FE96EFF0EC6
:10052000DA20EA6E12000A0E106E0E6EFC0EDBCFA1
:1005300009F055EF0BF0FB0EDBCFF6FFFC0EDBCF27
:10054000F7FF12001BD8FE0EDBCFE6FFC2DDE5523F
:10055000FE0EDB38F00BE66EBCDDE552819491D7E0
:10056000811279DF0F0E8116120086DF0F0E8116C1
:10057000FE0EDB50120080DF30EF02F0010EE66E5F
:0605800080DDE5521200CF
:0A058600E66AF6EC08F0E5520F01FA
:100590001A6F010E0DDA0F01196F020E09DA0F0141
:1005A000186F040E05DA0F011B6F050E01DA0F013B
:1005B0001C6F060EFDD90F011D6F12003FDA2EDAF7
:1005C000E5D91ACFE6FF0A0EE66EE66ADFD92CDA25
:1005D0003BDA1DCFE6FF0A0EF0D9C6EF04F00F019B
:1005E000446B456B12000F0145510A0A01E178D1B5
:1005F000030A01E140D1010A01E101D10E0A01E142
:10060000C3D0030A01E184D0010A01E17DD0070AC9
:1006100073E0010A4EE0030A16E0010A01E09AD1F4
:10062000560EE66E150E1ADA460EE66E150E1FDA37
:10063000DF0EE66E0D0EE66EE66AF9EC00F0E552AE
:10064000C0D9010E85D1E66A42EC0AF0E552F3CF3B
:100650001EFFF4CF1FFFF3CF10F0F4CF11F0126A9A
:10066000136AF3CFE6FFF4CFE6FF12C0E6FF13C034
:10067000E6FF070EE66EE66AADD90F0120CF10F057
:1006800021CF11F0202B000E2123126A136A10C013
:10069000E6FF11C0E6FF12C0E6FF13C0E6FF070E3B
:1006A0008CD998D90F012251231101E054D154D98A
:1006B0004DD10F012451251105E1320E246F256B18
:1006C00062DF7CDFB8D903E00F01040E456F0F0134
:1006D0002251231101E03FD1260EE66E150EBED940
:1006E000160EE66E150EC3D90F014C0E226F040EC6
:1006F000236F0F01030E2CD10F012251231101E0B2
:100700002AD10F01456B12003BD90F01050E20D1F4
:100710006CD912E141D905E045D9E66AE66AA3D968
:1007200008D0010E446F18CFE6FFE66AE66A04ECD3
:1007300002F0E552E552E5528BD909E021D90F01CB
:100740001851000802E218050CD0170E0AD083D900
:100750000AE016D9170E0F01185D02E2182901D020
:10076000000E186F120067D907E068D918CFE6FFAE
:10077000020E43D9060EECD03CD901E0ECD04AD9A8
:1007800018CFE6FF020EDFD030D910E105D906E020
:1007900009D9050EE66EE66A66D905D0010E446FEA
:1007A0003DD904EC02F0E552E552E55251D909E099
:1007B000E7D80F011951000802E219050CD03B0ED1
:1007C0000AD049D90AE0DCD83B0E0F01195D02E2DC
:1007D000192901D0000E196F12002DD908E01ED979
:1007E000D5D819CFE6FF010E08D9080EB1D001D92E
:1007F00001E0B1D00FD919CFE6FF010EA4D0F5D892
:1008000013E1CAD806E0CED8E66A010EE66E2BD90F
:1008100008D0010E446F1BCFE6FFE66AE66E04ECDB
:1008200002F0E552E552E55213D909E0A9D80F01CB
:100830001B51000802E21B050CD01F0E0AD00BD979
:100840000AE09ED81F0E0F011B5D02E21B2901D09A
:10085000000E1B6F1200EFD807E0E6D81BCFE6FFB3
:10086000040ECBD8090E74D0C4D875E1D3D81BCFF1
:10087000E6FF040E68D0B9D810E18ED805E092D812
:10088000050E9BD8F0D806D0010E446FAAD895D893
:1008900004EC02F0E552E552E552DAD809E070D8EE
:1008A0000F011C51010802E21C050CD00C0E0AD0ED
:1008B000D2D80AE065D80C0E0F011C5D02E21C299B
:1008C00001D0010E1C6F1200B6D805E0BDD889D842
:1008D00094D80A0E3DD08DD83EE19CD882D833D032
:1008E00084D812E159D805E05DD80A0E66D8BBD885
:1008F00008D0010E446F1DCFE6FF0A0E5ED804EC4F
:1009000002F0E552E552E552A3D809E039D80F01CB
:100910001D51000802E21D050CD0630E0AD09BD8C1
:100920000AE02ED8630E0F011D5D02E21D2901D0E1
:10093000000E1D6F12005DD802E07DD80CE06AD871
:100940001DCFE6FF060EE66ECFEC08F03AD8020E99
:10095000456F1200456B1200360EE66E150E7ED8FE
:10096000360EE66E150EE66EE66A010EE66E7BD872
:10097000E5521200E66E39EC08F0E552000912006B
:100980000F01E80E266F030E276F120004EC02F031
:10099000E552E552E55212001E0E286F296B0F0139
:1009A00044511200446B130EE66E150EE66E1200F3
:1009B000E66EF6EC08F0E5521200E66E010EE66E09
:1009C0001200E552E5520F01E80E226F030E236F6D
:1009D0000F01120009EC01F0146E060EE15E1450D6
:1009E00012001CCFE6FF050E12000F01285129113D
:1009F00012000F01265127111200E66ECFEC08F00D
:100A0000E552E552BDDF0F0112002DD8E552E55247
:100A1000E5521200A1DFE552E552120019CFE6FFC0
:100A2000050EE66EE66A12001BCFE6FFE66A010ECF
:100A3000E66EC6EF04F0090EBAEF04F018CFE6FF39
:100A4000E66AE66AC6EF04F0CCDFB7DFC6EF04F073
:100A5000080EBAEF04F00A0EBAEF04F0E66EE66A8A
:100A6000E66A05EF05F0B6EC01F0E5521200E66E1D
:0A0A7000E66A010EE66E05EF05F0E0
:060A7A000FD9D59EFD0E10
:100A8000DBCF00FFFE0EDBCF01FFD59C1FD9D59A2F
:100A9000D586F28AF294F184D58E04D1FED8CD9019
:100AA000FD0EDBCF02FFFE0EDBCF03FF03D99D80DF
:100AB0009E909F90CD8ECD8CCD98CD9ACD96CD9297
:100AC000CD80F0D0EAD8CA94CC6AFE0EDB500F017C
:100AD000046F056BCB6E9D829E929F92CA90CA92C4
:100AE000CA84E0D0DAD8B190FD0EDBCF06FFFE0E4F
:100AF000DBCF07FFF2D80750B36EEFD803C010F07A
:100B000004C011F005C012F00350B26EA082A19291
:100B1000A292B18EB198B19AB192B180C3D0D6D819
:100B2000D58E1200C7D8CD80120004CFCBFFCA8467
:100B30001200D3D80350B26ED0D8A7D8B36EB1800C
:100B40001200D59E1200CD901200CA941200B190EE
:100B500012000F01082B000E09231051085D1151DE
:100B6000095905E3086B096B0F01010E3C6F120078
:100B70000F010A2B000E0B2312510A5D13510B5962
:100B800005E30A6B0B6B0F01010E3D6F12000F01A5
:100B90000C2B000E0D2314510C5D15510D5905E35E
:100BA0000C6B0D6B0F01010E3E6F12000F010E2B2F
:100BB000000E0F2316510E5D17510F5905E30E6BF2
:100BC0000F6B0F01010E3F6F120067D8FD0EDBCFD8
:100BD00010FFFE0EDBCF11FF0F01086B096B0F0139
:100BE0003C6B60D05AD8FD0EDBCF12FFFE0EDBCF80
:100BF00013FF010E0F0B0F0105E0D89013331233D2
:100C0000E806FBE10F010A6B0B6B0F013D6B4AD04D
:100C100044D8FD0EDBCF14FFFE0EDBCF15FF0F0116
:100C20000C6B0D6B0F013E6B3DD037D8FD0EDBCF4B
:100C300016FFFE0EDBCF17FF0A0E0D6E0E6A16CFE3
:100C400008F017CF09F021EC0BF008C016FF09C01F
:100C500017FF0F010E6B0F6B0F013F6B23D0186A4C
:100C60001650135C106E17501458116E185015580A
:100C7000126E0C6A010E0D6E0E6A10C007F011C0E4
:100C800008F012C009F0B3EF0AF007C010F008C076
:100C900011F009C012F007501200D9CFE6FFE1CFE2
:100CA000D9FF1200E552E7CFD9FF1200136814688C
:100CB000156A1200F50E136E1468156A1CD80350DD
:100CC000CF6EF4DF18D8E1DFCE6E12000DD80350DE
:100CD000D66E0AD8DADFD76E1200E8DF06CF16F03C
:100CE00007CF17F02FEF06F0E1DF00CF16F001CFAE
:100CF00017F02FEF06F002CF16F003CF17F02FEF0B
:020D000006F0FB
:0E0D020063D880D8020EE66E150EE66EE66A25
:100D1000E66AB6EC01F0E552E552E552E552DFEC49
:100D200001F0D00EE66E070EE66EBFD8E552E55232
:100D3000B6EC00F0DFEC01F00DD9E66A060E1DD925
:100D4000010EE66E070E19D9020EE66E080E15D9D1
:100D5000030EE66E060E0CD9040EE66E070E08D9D9
:100D6000050EE66E080E04D9DFEC01F00F013F51CD
:100D7000FDE03F6BC5EC07F00F01050E225D000E94
:100D8000235904E3050E225F000E235B0F01050EBD
:100D9000245D000E255904E3050E245F000E255B3B
:100DA0000F01050E285D000E295904E3050E285F8A
:100DB000000E295B0F01050E265D000E2759D4E3B6
:100DC000050E265F000E275BCFD785EC00F044ECC4
:100DD00009F0C1EC07F0ABEC08F03CEC0AF0BAD833
:100DE000EFEC02F0660EE66EB70EE66E72EC05F002
:100DF000E552E552320EE66EE66A15EC06F0E55273
:100E0000E5522CEF07F0250EE66EF6EC08F0E55201
:100E1000600820E0010EE66EE66ACFEC08F0E552CD
:100E2000E552010EE66E85D8020E83D8030E81D8F6
:100E3000040E7FD8050E7DD8060E94D8E66A280EDB
:100E400078D8260E76D8270E8DD8600EE66E250E41
:100E5000B2EF07F0C3EF02F0B00EE66E000EE66EE2
:100E6000E66A0EEC02F0E552E552E552B80EE66E87
:100E7000000EE66E010E61D8C00EE66E000EE66E44
:100E8000020E5BD8C80EE66E000EE66E030E55D855
:100E9000D00EE66E000EE66E040E4FD8D80EE66E4B
:100EA000000EE66E050E9DEF07F0D9CFE6FFE1CF0D
:100EB000D9FF040EE126DE6ADD6ADECF10F0DDCF59
:100EC00011F0FD0EDBCF12F0FE0EDBCF13F0115050
:100ED0001318E8AE02D0133404D01250105C135033
:100EE00011581DE2020EDB6A030EDB6A020EDBCF35
:100EF00010F0030EDBCF11F0D890115004E6A00ED5
:100F0000105C000E115806E2020EDB2A030EEEE31F
:100F1000DB2AECD7DF2A010ED0E3DB2ACED7040E82
:100F2000E15C02E2E16AE552E16EE552E7CFD9FF0A
:100F3000120018D8010EE66E1200E66E0EEC02F0FA
:100F4000E552E552E5521200F9EC00F0E552E552A7
:100F5000E5521200E80EE66E030EE66EA6DFE552DD
:100F6000E5521200E66ECFEC08F0E552E5521200B1
:100F7000E66E010EE66EA4EF07F0E66EE66AA4EFF9
:020F800007F078
:0E0F82000F0E946E82681200B2D8030EE126A4
:100F9000DF6A040EDF5C5BE2DF50EA6A340FE96E61
:100FA0000F0EEA22EF1C826E010EDB6A040EF36E56
:100FB000010EDBCFF4FFF350F45C47E2010EDBCF10
:100FC000E6FF040EDF02F350E552E724E76E020E5F
:100FD000E7CFDBFF010EDB50EA6A380FE96E0F0E38
:100FE000EA22EF5082140DE1020E90D8C80E105C78
:100FF000000E115827E2020E71D8EE2A000EEF22E1
:1010000021D0020E6BD8000ED880EE54000EED54A5
:1010100007E2020E7BD80A0E105C000E115802E3A4
:10102000000E01D0010EE66E020EDB50EA6A800F60
:10103000E96E000EEA22E552E750EF6E020E4ED83E
:10104000EE6AED6A010EDB2AB1D7DF2AA2D7030EC2
:10105000E15C02E2E16AE552E16E4FD049D8FE0E52
:10106000DB50100802E2000E03D0FE0E37D8EF501E
:1010700044D03ED8E652FE0EDB50100807E3FE0EC9
:101080002DD8020EEE1801E1ED5002E0000E01D065
:10109000010EE55232D02CD8100EF36EFE0EDBCFCF
:1010A000F4FFF350F45C16E2FE0E30D8FC0EDBCFFA
:1010B00012F0FD0EDBCF13F0320E0D6E0E6A12C071
:1010C00008F013C009F021EC0BF01050085C11502F
:1010D000095802E3000E01D0010E0FD0EA6ADB349A
:1010E000FE0BEA36E96E900EE926000EEA221200A7
:1010F000D9CFE6FFE1CFD9FF1200E552E7CFD9FF04
:101100001200EECF10F0EFCF11F01200E7DF81EF09
:0211100008F0E5
:0E1112009BD8020EE126FE0EDB500F0BDF6EA7
:10112000FE0EDB380F0B0A0D99D802E2E16AE55298
:10113000E16E10508FD089D8020EE12698D8055064
:10114000DF6E95D80950100D89D802E2E16AE552A8
:10115000E16E10507FD094869488C79EC79CC68A43
:10116000C686C694C692C690310EC86E12009E9670
:10117000C5809EA6FED712009E96C5849EA6FED769
:10118000120063D89E96FE0EDB50C96E9EA6FED757
:1011900061D09E96C5869EA6FED7C950120055D82E
:1011A0006ED8010E466FE85004E0C550400BFAE0DF
:1011B000F8D7FE0EDBCFE6FF44D8010E466FE850AD
:1011C00004E0C550400BFAE0F8D7FD0EDBCFE6FF98
:1011D000B2DFE552E66E35D8010E466FE85004E006
:1011E000C550400BFAE0F8D7C7DF34D02ED8E6520E
:1011F00046D8010E466FE85004E0C550400BFAE0B7
:10120000F8D7FE0EDBCFE6FF1CD8010E466FE85084
:1012100004E0C550400BFAE0F8D7A9DFD10EE66E26
:1012200010D8010E466FE85004E0C550400BFAE0BC
:10123000F8D7AFDFDF6EDFCFE6FF6BDFE552E552B9
:1012400009D09FDFE5520F011200D9CFE6FFE1CFB1
:10125000D9FF1200E552E7CFD9FF1200010EF3CFFC
:10126000DBFFDB50DF24106E020EE15C12000A0E81
:10127000106E0E6EFE0EDBCF09F055EF0BF077DF30
:08128000D00EE66E21EF09F02B
:08128800F28ED08EF28C1200F0
:10129000D8CFE4FFE0CFE4FFE46E62D800EE00F0C8
:1012A000100EE80403E3EECFE4FFFBD700EE10F0EE
:1012B000090EE80403E3EECFE4FFFBD7E652F2B4F5
:1012C00077D89EB07CD8A1B281D8F2B2F2929EBA01
:1012D0009E9AE55200EE18F0090EE80403E3E5CF0C
:1012E000EDFFFBD700EE0FF0100EE80403E3E5CFAF
:1012F000EDFFFBD74AD8E550E5CFE0FFE5CFD8FFBB
:1013000010002ED800EE00F0100EE80403E3EECF3C
:10131000E4FFFBD700EE10F0090EE80403E3EECF84
:10132000E4FFFBD7E652F2B443D89EB048D8A1B24E
:101330004DD8F2B2F2929EBA9E9AE55200EE18F0A3
:10134000090EE80403E3E5CFEDFFFBD700EE0FF055
:10135000100EE80403E3E5CFEDFFFBD716D811002C
:10136000DACFE4FFE2CFDAFFE9CFE4FFEACFE4FF30
:10137000F6CFE4FFF7CFE4FFF5CFE4FFF3CFE4FFD0
:10138000F4CFE4FFFACFE4FF1200E5CFFAFFE5CF98
:10139000F4FFE5CFF3FFE5CFF5FFE5CFF7FFE5CFAE
:1013A000F6FFE5CFEAFFE5CFE9FFE5CFDAFF120070
:1013B000A1EC05F0F2948FEC05F0A9EF05F0A3EC99
:1013C00005F09E9092EC05F0B8EF05F0A7EC05F063
:0A13D000A19299EC05F0D6EF05F0AC
:0613DA001E0EF66E000E6F
:1013E000F76E000EF86E0F010900F5502F6F09001F
:1013F000F550306F03E12F6701D03DD00900F55063
:101400002A6F0900F5502B6F0900F5502C6F090069
:101410000900F550E96E0900F550EA6E090009006F
:101420000900F5502D6F0900F5502E6F09000900D5
:10143000F6CF31FFF7CF32FFF8CF33FF2ACFF6FFD9
:101440002BCFF7FF2CCFF8FF0F012D5302E12E53C6
:1014500007E00900F550EE6E2D07F8E22E07F9D7E8
:1014600031CFF6FF32CFF7FF33CFF8FF0F012F0751
:08147000000E305BBFD7120033
:0814780092680B0EC16E040E18
:10148000C06E1200D9CFE6FFE1CFD9FF020EE126F0
:10149000FE0EDB50040DF350C26EC280C282C2B297
:1014A000FED7C450DE6EDD6ADECF12F0DDCF13F062
:1014B000D89012361336D89012361336060EC3CF94
:1014C000E7FF070B04E0E742E79EE806FCE1E75090
:1014D0001224106E000E132010C0DEFFDD6EDECF72
:1014E00010F0DDCF11F010C0F3FF11C0F4FF020EB9
:1014F000E15C02E2E16AE552E16EE552E7CFD9FF35
:021500001200D7
:0E150200205441534B202031382F30322F32ED
:1015100033200020200020202020202020202020F8
:10152000202020202000202053494D202020202052
:101530002020202020002020202F202020202F20AD
:1015400020202020200048554D49203A20202020EE
:1015500020202025200054454D50203A20202020D6
:06156000202020204300C2
:0A156600006A0EAEBEEF0AF00C6C36
:101570000D1E0E1EE86A0D220E22001E09AEC8EFD7
:101580000AF0076C081E091EE86A08220922001EDC
:1015900004EC0BF009BEDBEF0AF000AE000C076CA8
:1015A000081E091EE86A08220922036C041E051E93
:1015B00004220522000C00BECFEF0AF00188FF0CC8
:1015C000056A046A036A026A200EE76ED89006363E
:1015D00007360836093602360336043605360B5010
:1015E000025C0C5003580D5004580E50055809E386
:1015F0000B50025E0C50035A0D50045A0E50055AFF
:08160000062AE72EE4D71200D0
:08160800056A046A036A180E6A
:10161000E76ED890073608360936033604360536A5
:101620000C50035C0D5004580E50055807E30C5045
:10163000035E0D50045A0E50055A072AE72EEAD7CA
:02164000120096
:0E164200056A046A100EE76ED8900836093665
:10165000043605360D50045C0E50055805E30D5058
:0E166000045E0E50055A082AE72EF0D712003D
:02166E00800EEC
:10167000F36E00EE00F00F0E01D81200EA6002D007
:0E168000EE6AFCD7F350E9601200EE6AFCD768
:02168E001EEE4E
:1016900000F02EEE00F0F86A019CEDEC09F003EC8E
:0A16A00000F081EC06F0FBD7120009
:0616AA00056A080EE76E60
:1016B000D890093605360E50055C02E3056E092AFE
:0616C000E72EF7D712002F
:0A16C600000000000000000000001A
:0E16D00000000000000000000000000000000C
:0216DE0000000A
:1016E000000102020202040A1F00000000000000C4
:1016F000001008080808020204080F00000000009B
:0E17000000001F110E00080804021E00000069
:02170E00202099
:1017100020202020202020202020202020202020C9
:0E1720002020202020202020202020202020FB
:02172E000000B9
:1017300000000000000000000000000000000000A9
:020000040030CA
:0100010002FC
:0100020003FA
:010003001EDE
:010005008179
:010006008178
:010008000FE8
:01000900C036
:01000A000FE6
:01000B00E014
:01000C000FE4
:01000D0040B2
:00000001FF
