:020000040000FA
:06000000B5EF0CF0120048
:020006001200E6
:0600080009EF0BF01200ED
:02000E001020C0
:060010004080010204081B
:06001800D0EF0AF0120017
:02001E000400DC
:100020000E000000680F000008000000DA19000050
:100030008000000073000000BA190000300F0000BB
:1000400020000000A2190000500F0000180000005E
:100050000001FD6B1200930EE66E000E63DB9B0E3B
:10006000E66E000EE66E010E35DBA30EE66E000EA8
:10007000E66E020E2FDBAB0EE66E000EE66E030E92
:1000800029DBB30EE66E000EE66E040E23DBBB0E1C
:10009000E66E000EE66E050E6AEF03F0C30EE66E26
:1000A000000E40DBCB0EE66E000EE66E010E12DB9C
:1000B000D30EE66E000EE66E020E0CDBDB0EE66E75
:1000C000000EE66E030E06DBE30EE66E000EE66E35
:1000D000040E00DBEB0EE66E000EE66E050E6AEF18
:1000E00003F0D9CFE6FFE1CFD9FFFE0EDB50070AC0
:1000F00024E0010A1EE0030A18E0010A12E0070AE0
:100100000CE0010A06E0030A1CE1A00EE66E170EE1
:1001100017D09C0EE66E170E13D0980EE66E170ED3
:100120000FD0940EE66E170E0BD0900EE66E170EE3
:1001300007D08C0EE66E170E03D0880EE66E170EF3
:100140002CDBE552E7CFD9FF120009DB03DB82C0CD
:1001500010F0D3DA82C0E6FFACDA060EE66EBEDA45
:10016000E6DAE55205DB1FDB9BEF03F00001FD51F2
:100170000C0A01E161D2070A01E12ED2010A01E174
:10018000F6D1030A01E1C9D1010A01E18FD10F0AB9
:1001900001E159D1010A01E122D1030A01E1DFD0D5
:1001A000010A01E1A7D0070A6FE0010A67E0030A2C
:1001B00022E0010A01E071D2740EE66E170E05DB33
:1001C000630EE66E170EE9DA0001895104E0600E55
:1001D000E66E170E05D0895108E15C0EE66E170E2B
:1001E000E66E0A0EE66EE66A71DAAFDF0001010E16
:1001F0008B6F0001A5D1A9DF000189511DE000012D
:1002000087510001805D18E1000188510001815D86
:1002100013E10001825110E14B0EE66E170ED5DAA4
:100220003A0EE66E170EB9DA0001300E8D6F750EBC
:100230008E6F00010C0EFD6FCDDA04E086DF000149
:10024000020E7ED1E80EE66E030EE66E090EE66E35
:10025000CCEC09F0E552E552E552000901E11ED26D
:10026000290EE66E170EB1DA180EE66E170E95DA45
:1002700027DA00018B6B0001090E62D100018B6B44
:100280001FDA0001040E5CD149DA0DE12FDA06E035
:1002900038DA030EE66EE66A19DA05D08A5103E110
:1002A000010E8A6F57DA99DA09E00ADA0001815102
:1002B000000802E281050CD03B0E0AD091DA0AE078
:1002C000FFD93B0E0001815D02E2812901D0000EC1
:1002D000816F12007FDA07E03DDA81C0E6FF010E90
:1002E00059DA050E2DD116DA01E0D8D181C0E6FF2A
:1002F000010E2FD113DA0CE1F9D905E002DAE66A32
:10030000E66AE4D905D08A5103E1010E8A6F27DA43
:1003100064DA09E0D5D900018051000802E28005C5
:100320000CD0170E0AD05CDA0AE0CAD9170E000109
:10033000805D02E2802901D0000E806F12004ADA4F
:1003400007E00DDA80C0E6FF020E24DA030EF8D0D3
:10035000E1D901E0A3D180C0E6FF020EFAD0DED9D8
:1003600016E1C4D90EE08A6B110EE66E170EE66E2A
:10037000E66A010EE66E9AEC05F0E552E552E552AA
:1003800005D08A5104E1010E8A6FD1D9E55225DAF0
:1003900009E096D900018351010802E283050CD0DF
:1003A000070E0AD01DDA0AE08BD9070E0001835D23
:1003B00002E2832901D0000E836F12000BDA08E0FD
:1003C000B6D9E55283C0E6FF030EE4D9060EB8D0D5
:1003D000A1D901E063D183C0E6FF030EBAD09ED954
:1003E0000BE184D904E08DD9050E11DA05D08A51CC
:1003F00003E1010E8A6FBCD9F0D909E061D900018F
:100400008451000802E284050CD01F0E0AD0E8D9FE
:100410000AE056D91F0E0001845D02E2842901D052
:10042000000E846F1200D6D907E0A2D984C0E6FF7F
:10043000040EB0D9070E84D06DD901E02FD184C04D
:10044000E6FF040E86D06AD90BE150D904E059D9F1
:10045000080EDDD905D08A5103E1010E8A6FA3D9B8
:10046000BCD909E02DD900018551010802E28505BA
:100470000CD0010E0AD0B4D90AE022D90C0E00012A
:10048000855D02E2852901D00C0E856F1200A2D98C
:1004900006E085C0E6FF050E7DD9080E51D03AD999
:1004A00001E0FCD085C0E6FF050E53D037D90FE13F
:1004B0001DD908E08A6B0C0EE66E170EE66E0B0E69
:1004C000A6D905D08A5103E1010E8A6F34D985D9A6
:1004D00009E0F6D800018651000802E286050CD03A
:1004E000630E0AD07DD90AE0EBD8630E0001865D69
:1004F00002E2862901D0000E866F12006BD906E059
:100500001AD986C0E6FF060E8ED924D003D901E0A1
:10051000C5D086C0E6FF060E1CD05FD913E0290EB9
:10052000E66E170E52D9FB0EE66E160E36D929D995
:1005300043D90001010E896FE66E280E2BD90A0EF1
:10054000FD6F12004DD909E00001896B89C0E6FFFB
:10055000280EC6D80001FD6B12000001010E8D1996
:1005600005E18E5101E09AD00001FD6B1200D6D852
:100570000BE1BCD804E0C5D8030E49D905D08A5197
:1005800003E1010E8A6FFDD828D909E099D800014E
:100590008751000802E287050CD0170E0AD020D937
:1005A0000AE08ED8170E0001875D02E2872901D08C
:1005B000000E876F12000ED908E0E3D887C0E6FF6F
:1005C000260EE8D80B0EFD6F1200A4D867E187C095
:1005D000E6FF260E85D85ED0A1D80BE187D804E0CF
:1005E00090D80B0E14D905D08A5103E1010E8A6F01
:1005F000E3D8F3D809E064D800018851000802E28A
:1006000088050CD03B0E0AD0EBD80AE059D83B0E37
:100610000001885D02E2882901D0000E886F120077
:10062000D9D802E177D83AE1F7D80B0E38D888C08C
:10063000E6FF270EF8D82ED00001915192110FE15C
:100640002C0E916F010E926F00018C5103E08C6BA8
:1006500002DD05D08C5103E1010E8C6F1FDDE66ACF
:10066000060ED1D8010EE66E070ECDD8020EE66E4C
:10067000080EC9D8030EE66E060EB5D8040EE66E57
:10068000070EB1D8050EE66E080EADD8A3D802E16C
:1006900041D804E10001FD6B1200FD6B1200E66E13
:1006A000010EE66EA9D0E66EBDEC09F0E552000938
:1006B000120011C0E6FF12C0E6FF13C0E6FF1200F1
:1006C0000001980E8D6F3A0E8E6F12009AEC05F0B5
:1006D000E5528ED0E66EE9EC05F08AD0E66A8CD061
:1006E000E66E57EC0AF0E552E55212002C0E8F6FC1
:1006F000010E906F00018A511200116A126A136A8A
:1007000012008A6B150EE66E170EE66E1200E1EC13
:1007100004F06ED000018D518E11120000018F5136
:1007200090111200E66EE66AE9EC05F061D083C034
:10073000E6FF71EF00F0850EE66E170EE66E0B0E0B
:1007400066D886C010F0D9DF86C0E6FFB2DF0D0E96
:100750004FEF03F061D8030EE66E6EEF03F080C03A
:1007600010F0CBDF80C0E6FFA4DFE66A6EEF03F097
:1007700084C010F0C2DF84C0E6FF9BDF050E4FEFA0
:1007800003F087C010F0B9DF87C0E6FF92DF030EE9
:100790004FEF03F048D800011200E66EE66A010E42
:1007A000E66E66EF03F085C010F0A7DF85C0E6FFB8
:1007B00080DF080E4FEF03F088C010F09EDF88C086
:1007C000E6FF77DF0B0E4FEF03F0E66EE66AE66AB0
:1007D00066EF03F0090E53EF03F0050E53EF03F03D
:1007E0000D0E53EF03F0E66E010EE66E87EF03F099
:1007F000E552E552E5521200F2EC04F0146E060EDA
:10080000E15E14501200E66EE66A87EF03F0E66ED2
:10081000010EE66E66EF03F081C010F06EDF81C05E
:0C082000E6FF59EF03F05CDF60EF03F02F
:04082C00F4D9020EEB
:10083000E126DE6ADD6A30DA05E2DF2A010EFBE33B
:10084000DB2AF9D7020EE15C02E2E16AE552E16ED1
:10085000E7D1E1D9040EE126DE6ADD6A1DDA1AE28B
:10086000020EDB6A030EDB6A020EDBCF10F0030E12
:10087000DBCF11F0FA0E105C000E115806E2020EEA
:10088000DB2A030EF1E3DB2AEFD7DF2A010EE6E3D2
:10089000DB2AE4D7040EE15C02E2E16AE552E16E94
:1008A000BFD13EDA81128186010EE66EBFDFE552CE
:1008B0008196010EE66EBADFE552B2D1ACD98184E1
:1008C0001CD2A9D9819419D22BDAF00B24DAFE0EAE
:1008D000DB38F00B81129AD9A3D19DD9E652936AE5
:1008E000FA0EE66EB6DFE5520F0E8116F80E81168F
:1008F0000F0E8116300E0FDA300E0DDA300E0BDAD5
:10090000818A84D9280EE66EDFDFE5520C0EE66E92
:10091000DBDFE552E55284D17ED9FE0EDB50010AC1
:1009200006E0010A0AE1FD0EDB50800F03D0FD0E48
:10093000DB50C00FE66EC5DFE55272D16CD9020EF6
:10094000E126DF6A020EDF5C22E2010EDB6A100E96
:10095000F36E010EDBCFF4FFF350F45C16E2DF50D0
:10096000100DF3CF10F0F4CF11F0300E10260F0E53
:100970001122010EDB501024E96E000E1120EA6EE8
:10098000200EEF6E010EDB2AE2D7DF2ADBD7020E44
:10099000E15C02E2E16AE552E16E42D13CD974CFFA
:1009A00010F075CF11F0040ED89010361136E8060D
:1009B000FBE17ED9FE0EDBCFEFFF762B000E772317
:1009C0002FD129D931D974CF10F075CF11F0040E81
:1009D000D89010361136E806FBE16AD9FC0EDBCF61
:1009E000EFFF1ED118D9060EE126DF6A020EDB6A80
:1009F000CA0EF36E030EF3CFDBFF9A0EF36E040EF6
:100A0000F3CFDBFF3B0EF36E050EF3CFDBFF0CD90C
:100A10008DD902E6000E62D90EE21FD9000EEE6CEF
:100A2000EF1EEE22EF1EEE22EF1EEF22ED52ED52F0
:100A3000ED522D0E11D018D91050111012101310A4
:100A400005E1300E25D9300E23D96DD06FD902E6DD
:100A50000A0E44D902E2300E1BD9DE520A0EDD6EB8
:100A6000010EDB5000085FE2FFD810C006F011C095
:100A700007F012C008F013C009F0E2D84EEC0CF0F9
:100A8000065007100810091029E0010EDF6EF90E5C
:100A9000DBCF14F0FA0EDBCF15F0FB0EDBCF16F038
:100AA000FC0EDBCF17F014C006F015C007F016C01F
:100AB00008F017C009F0C4D84EEC0CF006C010F0D6
:100AC00007C011F008C012F009C013F0300E102654
:100AD000000E112212221322105003D0DF5002E028
:100AE000300ED6D8BAD8ACD8EFD805C0EDFF04C0C8
:100AF000EDFF03C0EDFF02C0EFFFD950020FE96E1A
:100B0000DACFEAFF0A0E0B6E0C6A0D6A0E6ADCD8A9
:100B100009C0EDFF08C0EDFF07C0EDFF06C0EFFF05
:100B2000010EDB069DD7060EE15C02E2E16AE552AA
:100B3000E16E76D070D878D8D9D80800F5500DE09D
:100B4000FB0EDBCFF6FFDB2AFC0EDBCFF7FF01E36A
:100B5000DB2A0800F5509CD8EFD762D05CD8E6526B
:100B600063D8DF6AFA0EDB50DF5C0CE2DF50E76E21
:100B7000BDD8E750F626000EF7220800F55088D8B9
:100B8000DF2AF0D7E5524CD046D8E652E66AE66A4C
:100B9000C3DEE552E552DF6A100EDF5C07E2DF508C
:100BA000EA6A300FE96E0F0E6CD8F6D7E66A010ECE
:100BB000E66EB2DEE552E552DF6A100EDF5C07E258
:100BC000DF50EA6A400FE96E0F0E5BD8F6D7E552A8
:100BD00027D021D8E652FE0EDB50080DF350400F0F
:100BE000E66E6FDEE552DF6A080EDF5C0DE2DF5075
:100BF000E76EFC0EDBCFE9FFFD0EDBCFEAFFE7502F
:100C0000E926000E3ED8F0D7E5520AD0818694D866
:100C100081969CEF06F0D9CFE6FFE1CFD9FF120015
:100C2000E552E7CFD9FF1200FE0EDB50010B0F019A
:100C3000746F756BFD0EDB500F0B766F776B1200C8
:100C4000020EDBCF0BF0030EDBCF0CF0040EDBCF7C
:100C50000DF0050EDBCF0EF01200D950F90FE96E42
:100C6000FF0EDA20EA6E1200F90EDBCF10F0FA0E5A
:100C7000DBCF11F0FB0EDBCF12F0FC0EDBCF13F05D
:100C80001200EA22EF50E66E19DEE552DF2A12006A
:100C9000E66E84DEE5521200DECF10F0DDCF11F0FB
:100CA000FE0EDB50136AE850105C1350115812000E
:100CB000300E10260F0E112210500F017625E96E0E
:100CC00011507721EA6E1200EECF06F0EECF07F05A
:100CD000EECF08F0EFCF09F04EEF0CF0EE5C000E17
:100CE000EE58000EEE58000EEE581200FB0EDBCF51
:100CF000F6FFFC0EDBCFF7FF12001ED8FE0EDBCF97
:100D0000E6FFCFDDE552FE0EDB38F00BE66EC9DD07
:100D1000E552819485D7811279DF0F0E811612007A
:100D20007ADF0F0E8116FE0EDB50120096DFD89090
:100D3000030EEB50000A1200010EE66E8ADDE5524A
:020D400012009F
:0E0D42005DD876D8EA0EE66E160EE66EE66A0C
:100D5000E66A9AEC05F0E552E552E552E5523DD9D6
:100D6000B9D89EEC04F0E80EE66E030EE66EDBD812
:100D7000E552E552E66A060E45D9010EE66E070E0B
:100D800041D9020EE66E080E3DD9030EE66E060E40
:100D900034D9040EE66E070E30D9050EE66E080E45
:100DA0002CD91BD90F017351FDE0736B4EEC09F088
:100DB0000001320E8D5D000E8E5904E3320E8D5F00
:100DC000000E8E5B0001320E8F5D000E905904E321
:100DD000320E8F5F000E905B0001320E915D000EAF
:100DE000925904E3320E915F000E925B00018B5129
:100DF00001E045D8B6EC00F0C4EC05F0D3D76DECBB
:100E000004F0CCEC0AF04AEC09F033EC0AF028ECE0
:100E100000F0660EE66EB70EE66E3BEC08F0E552AB
:100E2000E552320EE66EE66ADEEC08F0E552E55277
:100E30001200250EC0D8600820E0010EE66EE66ABA
:100E400057EC0AF0E552E552010EE66EB0D8020EFC
:100E5000AED8030EACD8040EAAD8050EA8D8060E3C
:100E6000C6D8E66A280EA3D8260EA1D8270EBFD86A
:100E7000600EE66E250EF7EF07F03FEF07F0E66A2B
:100E80007EEC0AF0E5520001826F010E94D8000159
:100E9000816F020E90D80001806F030E8CD8000184
:100EA000836F040E88D80001846F050E84D800017A
:100EB000856F060E80D80001866F260E7CD8000153
:100EC000876F270E78D80001886F280E74D800012C
:100ED000896F1200930EE66E000EE66EE66AE9EC8C
:100EE00005F0E552E552E5529B0EE66E000EE66E09
:100EF000010E66D8A30EE66E000EE66E020E60D8F6
:100F0000AB0EE66E000EE66E030E5AD8B30EE66E1A
:100F1000000EE66E040E54D8BB0EE66E000EE66EB2
:100F2000050EE0EF07F0D9CFE6FFE1CFD9FF040EC1
:100F3000E126DE6ADD6ADECF10F0DDCF11F0FD0EB6
:100F4000DBCF12F0FE0EDBCF13F011501318E8AE1A
:100F500002D0133404D01250105C135011581DE20B
:100F6000020EDB6A030EDB6A020EDBCF10F0030E0B
:100F7000DBCF11F0D890115004E6A00E105C000EEB
:100F8000115806E2020EDB2A030EEEE3DB2AECD751
:100F9000DF2A010ED0E3DB2ACED7040EE15C02E2A9
:100FA000E16AE552E16EE552E7CFD9FF12001FD8A2
:100FB000010EE66E1200E66E7EEC0AF0E5521200BB
:100FC000E66EE9EC05F0E552E552E5521200E1EC7F
:100FD00004F0E552E552E5521200C4EC05F0D00EE3
:100FE000E66E070EE66E9FDFE552E5521200E66EF2
:100FF00057EC0AF0E552E5521200E66E010EE66E7D
:0C100000E7EF07F0E66EE66AE7EF07F0A6
:04100C000FD9D59E85
:10101000FD0EDBCF50FFFE0EDBCF51FFD59C1FD95D
:10102000D59AD586F28AF294F184D58E04D1FED871
:10103000CD90FD0EDBCF52FFFE0EDBCF53FF03D969
:101040009D809E909F90CD8ECD8CCD98CD9ACD9643
:10105000CD92CD80F0D0EAD8CA94CC6AFE0EDB5097
:101060000F01546F556BCB6E9D829E929F92CA90DA
:10107000CA92CA84E0D0DAD8B190FD0EDBCF56FF19
:10108000FE0EDBCF57FFF2D80750B36EEFD803C088
:1010900010F004C011F005C012F00350B26EA0822F
:1010A000A192A292B18EB198B19AB192B180C3D0FF
:1010B000D6D8D58E1200C7D8CD80120054CFCBFF22
:1010C000CA841200D3D80350B26ED0D8A7D8B36E5A
:1010D000B1801200D59E1200CD901200CA94120069
:1010E000B19012000F01582B000E59236051585D2A
:1010F0006151595905E3586B596B0F01010E706F1F
:1011000012000F015A2B000E5B2362515A5D63518E
:101110005B5905E35A6B5B6B0F01010E716F120097
:101120000F015C2B000E5D2364515C5D65515D59C0
:1011300005E35C6B5D6B0F01010E726F12000F0116
:101140005E2B000E5F2366515E5D67515F5905E3BC
:101150005E6B5F6B0F01010E736F120067D8FD0E9F
:10116000DBCF60FFFE0EDBCF61FF0F01586B596BC9
:101170000F01706B60D05AD8FD0EDBCF62FFFE0E00
:10118000DBCF63FF010E0F0B0F0105E0D890633337
:101190006233E806FBE10F015A6B5B6B0F01716B69
:1011A0004AD044D8FD0EDBCF64FFFE0EDBCF65FFD7
:1011B0000F015C6B5D6B0F01726B3DD037D8FD0E7C
:1011C000DBCF66FFFE0EDBCF67FF0A0E0D6E0E6AE9
:1011D00066CF08F067CF09F08FEC0CF008C066FF0F
:1011E00009C067FF0F015E6B5F6B0F01736B23D04C
:1011F000186A1650135C106E17501458116E185060
:101200001558126E0C6A010E0D6E0E6A10C007F0B2
:1012100011C008F012C009F021EF0CF007C010F067
:1012200008C011F009C012F007501200D9CFE6FF34
:10123000E1CFD9FF1200E552E7CFD9FF12001368C2
:101240001468156A1200F50E136E1468156A1CD81E
:101250000350CF6EF4DF18D8E1DFCE6E12000DD848
:101260000350D66E0AD8DADFD76E1200E8DF56CF09
:1012700016F057CF17F0F8EF08F0E1DF50CF16F077
:1012800051CF17F0F8EF08F052CF16F053CF17F008
:04129000F8EF08F07B
:0C1294000F0E946E82681200AAD8030EA0
:1012A000E126DF6A040EDF5C56E2DF50EA6A680F6F
:1012B000E96E0F0EEA22EF1C826E010EDB6A040E4D
:1012C000F36E010EDBCFF4FFF350F45C42E2010E4B
:1012D000DBCFE6FF040EDF02F350E552E724E76EB2
:1012E000020EE7CFDBFF010EDB50EA6A6C0FE96EFE
:1012F0000F0EEA22EF5082140DE1020E8FD8C80EB5
:10130000105C000E115822E2020E69D8EE2A000E7F
:10131000EF221CD0020E63D8000ED880EE54000ECF
:10132000ED5407E2020E7AD80A0E105C000E115836
:1013300002E3000E01D0010EE66E020E63D8E55204
:10134000E750EF6E020E4BD8EE6AED6A010EDB2A13
:10135000B6D7DF2AA7D7030EE15C02E2E16AE552C5
:10136000E16E4CD046D8FE0EDB50100802E2000EB3
:1013700003D0FE0E34D8EF5041D03BD8E652FE0EDB
:10138000DB50100802E2000E05D0FE0E3BD8EFCF76
:10139000DFFFDF50E55232D02CD8100EF36EFE0E78
:1013A000DBCFF4FFF350F45C16E2FE0E37D8FC0EF0
:1013B000DBCF12F0FD0EDBCF13F0320E0D6E0E6A96
:1013C00012C008F013C009F08FEC0CF01050085C4C
:1013D0001150095802E3000E01D0010E0FD0EA6A45
:1013E000DB34FE0BEA36E96E100EE9260F0EEA2218
:1013F0001200D9CFE6FFE1CFD9FF1200E552E7CFC7
:10140000D9FF1200DB50EA6A000FE96E0F0EEA22E4
:101410001200EECF10F0EFCF11F01200E0DF09EF75
:021420000AF0D0
:0E1422009BD8020EE126FE0EDB500F0BDF6E94
:10143000FE0EDB380F0B0A0D99D802E2E16AE55285
:10144000E16E10508FD089D8020EE12698D8055051
:10145000DF6E95D80950100D89D802E2E16AE55295
:10146000E16E10507FD094869488C79EC79CC68A30
:10147000C686C694C692C690310EC86E12009E965D
:10148000C5809EA6FED712009E96C5849EA6FED756
:10149000120063D89E96FE0EDB50C96E9EA6FED744
:1014A00061D09E96C5869EA6FED7C950120055D81B
:1014B0006ED8010EFF6FE85004E0C550400BFAE013
:1014C000F8D7FE0EDBCFE6FF44D8010EFF6FE850E1
:1014D00004E0C550400BFAE0F8D7FD0EDBCFE6FF85
:1014E000B2DFE552E66E35D8010EFF6FE85004E03A
:1014F000C550400BFAE0F8D7C7DF34D02ED8E652FB
:1015000046D8010EFF6FE85004E0C550400BFAE0EA
:10151000F8D7FE0EDBCFE6FF1CD8010EFF6FE850B8
:1015200004E0C550400BFAE0F8D7A9DFD10EE66E13
:1015300010D8010EFF6FE85004E0C550400BFAE0F0
:10154000F8D7AFDFDF6EDFCFE6FF6BDFE552E552A6
:1015500009D09FDFE55200011200D9CFE6FFE1CFAD
:10156000D9FF1200E552E7CFD9FF1200010EF3CFE9
:10157000DBFFDB50DF24106E020EE15C12000A0E6E
:10158000106E0E6EFE0EDBCF09F0C3EF0CF077DFAE
:08159000D00EE66EA9EF0AF08F
:08159800F28ED08EF28C1200DD
:1015A000D8CFE4FFE0CFE4FFE46E62D800EE00F0B5
:1015B000100EE80403E3EECFE4FFFBD700EE10F0DB
:1015C000090EE80403E3EECFE4FFFBD7E652F2B4E2
:1015D00077D89EB07CD8A1B281D8F2B2F2929EBAEE
:1015E0009E9AE55200EE18F0090EE80403E3E5CFF9
:1015F000EDFFFBD700EE0FF0100EE80403E3E5CF9C
:10160000EDFFFBD74AD8E550E5CFE0FFE5CFD8FFA7
:1016100010002ED800EE00F0100EE80403E3EECF29
:10162000E4FFFBD700EE10F0090EE80403E3EECF71
:10163000E4FFFBD7E652F2B443D89EB048D8A1B23B
:101640004DD8F2B2F2929EBA9E9AE55200EE18F090
:10165000090EE80403E3E5CFEDFFFBD700EE0FF042
:10166000100EE80403E3E5CFEDFFFBD716D8110019
:10167000DACFE4FFE2CFDAFFE9CFE4FFEACFE4FF1D
:10168000F6CFE4FFF7CFE4FFF5CFE4FFF3CFE4FFBD
:10169000F4CFE4FFFACFE4FF1200E5CFFAFFE5CF85
:1016A000F4FFE5CFF3FFE5CFF5FFE5CFF7FFE5CF9B
:1016B000F6FFE5CFEAFFE5CFE9FFE5CFDAFF12005D
:1016C0006AEC08F0F29458EC08F072EF08F06CEC59
:1016D00008F09E905BEC08F081EF08F070EC08F0E9
:0A16E000A19262EC08F09FEF08F001
:0616EA002020534D415287
:1016F000542020434C4F434B202000483A202020C8
:101700002020204D3A2020202020200020202020B2
:101710000020202000202000203C4F4E3E20202092
:1017200020203C4F46463E20002020205455524E5B
:1017300020414C41524D3A20200052454E474747E8
:1017400047472052454E474747470052494E474773
:1017500047472052494E4747474747004F464600B4
:101760004F4E00202020202020202F20202F20201E
:101770002020200020203A20203A20202020202055
:10178000202020200032300053554E005341540099
:10179000465249005448550057454E00545545009F
:0417A0004D4F4E005B
:0C17A4001E0EF66E000EF76E000EF86EC2
:1017B00000010900F550F86F0900F550F96F03E1D9
:1017C000F86701D03DD00900F550F36F0900F550DE
:1017D000F46F0900F550F56F09000900F550E96E46
:1017E0000900F550EA6E090009000900F550F66F8E
:1017F0000900F550F76F09000900F6CFFAF0F7CFAE
:10180000FBF0F8CFFCF0F3C0F6FFF4C0F7FFF5C033
:10181000F8FF0001F65302E1F75307E00900F55025
:10182000EE6EF607F8E2F707F9D7FAC0F6FFFBC04D
:10183000F7FFFCC0F8FF0001F807000EF95BBFD707
:02184000120094
:0E184200006A0EAE2CEF0CF00C6C0D1E0E1E8C
:10185000E86A0D220E22001E09AE36EF0CF0076C6E
:10186000081E091EE86A08220922001E72EC0CF00C
:1018700009BE49EF0CF000AE000C076C081E091EF3
:10188000E86A08220922036C041E051E04220522B0
:0C189000000C00BE3DEF0CF00188FF0CC6
:04189C00056A046A6B
:1018A000036A026A200EE76ED890063607360836BD
:1018B000093602360336043605360B50025C0C50EE
:1018C00003580D5004580E50055809E30B50025EA2
:1018D0000C50035A0D50045A0E50055A062AE72E92
:0418E000E4D7120037
:0C18E400056A046A036A180EE76ED890CB
:1018F0000736083609360336043605360C50035CC5
:101900000D5004580E50055807E30C50035E0D505F
:0E191000045A0E50055A072AE72EEAD7120095
:02191E00056A58
:10192000046A100EE76ED89008360936043605367C
:101930000D50045C0E50055805E30D50045E0E502A
:0A194000055A082AE72EF0D712001E
:06194A00800EF36E00EEBA
:1019500000F00F0E01D81200EA6002D0EE6AFCD748
:0A196000F350E9601200EE6AFCD7B4
:06196A001EEE00F02EEE5F
:1019700000F0F86A019CD2EC0BF003EC00F0A1EC53
:0619800006F0FBD7120087
:0A198600056A080EE76ED8900936D6
:1019900005360E50055C02E3056E092AE72EF7D7DF
:0219A000120033
:0E19A200000000000000000000000000000037
:0A19B000000000000000000000002D
:0619BA0020202020202067
:1019C0002020202020202020202020202020202017
:0A19D00020202020202020202020CD
:0619DA0000000000000007
:1019E00000000000000000000000000000000000F7
:1019F0000102020202040A1F0000000000000000B1
:101A00001008080808020204080F00000000000087
:101A1000001F110E00080804021E00000000000054
:101A20000408121414000000040E1111110000002B
:101A30000402090505100904000000000011001F40
:0D1A40000000000000011204000000000082
:020000040030CA
:0100010002FC
:0100020003FA
:010003001EDE
:010005008179
:010006008178
:010008000FE8
:01000900C036
:01000A000FE6
:01000B00E014
:01000C000FE4
:01000D0040B2
:00000001FF
