:020000040000FA
:060000007BEF12F012007C
:020006001200E6
:06000800D3EF10F012001E
:01000E0000F1
:0600180061EF10F0120080
:02001E000500DB
:1000200075250000180F000018000000662500006C
:10003000F00000000F00000046250000D000000086
:10004000200000000E000000440F0000010000002E
:0C0050002E250000000F0000180000002A
:04005C000F01426BE3
:100060001200D9CFE6FFE1CFD9FFFE0EDB50070A21
:1000700024E0010A1EE0030A18E0010A12E0070A60
:100080000CE0010A06E0030A25E12C0EE66E230EC1
:1000900017D0280EE66E230E13D0240EE66E230E24
:1000A0000FD0200EE66E230E0BD01C0EE66E230E34
:1000B00007D0180EE66E230E03D0140EE66E230E44
:1000C000E66EE66A010EE66E85EC09F0E552E55251
:1000D000E552E552E552E7CFD9FF1200F0C010F02B
:1000E000116A126A136AF0C0E6FF11C0E6FF12C07F
:1000F000E6FF13C0E6FFE66AE66A53EC08F0146E0A
:10010000060EE15E1450F1C010F0116A126A136A13
:10011000F1C0E6FF11C0E6FF12C0E6FF13C0E6FF24
:10012000030EE66EE66A53EC08F0146E060EE15E0E
:100130001450F2C010F0116A126A136AF2C0E6FF9E
:1001400011C0E6FF12C0E6FF13C0E6FF060EE66E22
:10015000E66A53EC08F0146E060EE15E1450F3C02C
:10016000E6FF7FDFE552F4C010F0116A126A136AED
:10017000F4C0E6FF11C0E6FF12C0E6FF13C0E6FFC1
:10018000050EE66E010EE66E53EC08F0146E060ED8
:10019000E15E1450F5C010F0116A126A136AF5C0DE
:1001A000E6FF11C0E6FF12C0E6FF13C0E6FF080E2F
:1001B000E66E010EE66E53EC08F0146E060EE15E7C
:1001C0001450110EE66E230EE66E0B0EE66E010E57
:1001D000E66E85EC09F0E552E552E552E552F6C0CF
:1001E00010F0116A126A136AF6C0E6FF11C0E6FF4A
:1001F00012C0E6FF13C0E6FF0D0EE66E010EE66EBE
:1002000053EC08F0146E060EE15E145012000F015C
:1002100042510C0A02E18AEF06F0070A02E105EFFB
:1002200006F0010A02E173EF05F0030A01E1E6D3EB
:10023000010A01E13DD30F0A01E1C5D2010A01E142
:1002400036D2030A01E1CFD1010A01E146D1070A02
:1002500001E1B9D0010A01E1ADD0030A3AE0010A97
:1002600002E097EF06F0000EE66E230EE66EE66AF9
:10027000E66A85EC09F0E552E552E552E552EF0EEB
:10028000E66E220EE66EE66A010EE66E85EC09F079
:10029000E552E552E552E5520001F95104E0EC0E59
:1002A000E66E220E05D0F9510DE1E80EE66E220E43
:1002B000E66E0A0EE66EE66A85EC09F0E552E55256
:1002C000E552E5520BDF0001010EFC6F0F01F6EF66
:1002D00005F00001FA5102E0FA6B00DF0001F9516C
:1002E0002CE00001F7510001F05D27E10001F85119
:1002F0000001F15D22E10001F2511FE1D70EE66E2F
:10030000220EE66EE66AE66A85EC09F0E552E552F1
:10031000E552E552C60EE66E220EE66EE66A010E64
:10032000E66E85EC09F0E552E552E552E552000132
:100330001E0EFD6F0F010C0E426F050EE66EC2EC35
:100340000DF0E552000905E0C9DE0F01020EF6EFDF
:1003500005F0E80EE66E030EE66E050EE66EE4ECC2
:100360000DF0E552E552E552000902E198EF06F082
:10037000B50EE66E220EE66EE66AE66A85EC09F0D8
:10038000E552E552E552E552A40EE66E220EE66E07
:10039000E66A010EE66E85EC09F0E552E552E5529B
:1003A000E55200010F0EFD6F0001FC6B0F01090EFD
:1003B000F6EF05F00001FC6B00010F0EFD6F0F0161
:1003C000040EF6EF05F00001FE512EE12C0EFE6F3B
:1003D0000001FB510FE0FB6BA10EE66E220EE66EF4
:1003E000030EE66EE66A85EC09F0E552E552E55249
:1003F000E5521AD0FB5118E1010EFB6FF1C010F06D
:10040000116A126A136AF1C0E6FF11C0E6FF12C05A
:10041000E6FF13C0E6FF030EE66EE66A53EC08F053
:10042000146E060EE15E1450040EE66EC2EC0DF082
:10043000E55200090BE000010F0EFD6F0001F151C4
:10044000000802E2F10513D03B0E11D0060EE66E55
:10045000C2EC0DF0E55200090CE000010F0EFD6F3B
:100460003B0E0001F15D02E2F12901D0000EF16FB7
:100470001200050EE66EC2EC0DF0E552000924E014
:10048000F1C010F0116A126A136AF1C0E6FF11C0E0
:10049000E6FF12C0E6FF13C0E6FF030EE66EE66A53
:1004A00053EC08F0146E060EE15E1450F1C0E6FF46
:1004B000010EE66EEDEC0FF0E552E55200010F0E75
:1004C000FD6F0F01050E92D30001FD5102E098EF80
:1004D00006F0F1C0E6FF010EFBD20001FE512CE157
:1004E0002C0EFE6F0001FB510EE0FB6BA10EE66EC1
:1004F000220EE66EE66AE66A85EC09F0E552E55200
:10050000E552E55219D0FB5117E1010EFB6FF0C027
:1005100010F0116A126A136AF0C0E6FF11C0E6FF1C
:1005200012C0E6FF13C0E6FFE66AE66A53EC08F085
:10053000146E060EE15E1450040EE66EC2EC0DF071
:10054000E55200090BE000010F0EFD6F0001F051B4
:10055000000802E2F00513D0170E11D0060EE66E69
:10056000C2EC0DF0E55200090CE000010F0EFD6F2A
:10057000170E0001F05D02E2F02901D0000EF06FCD
:100580001200050EE66EC2EC0DF0E552000923E004
:10059000F0C010F0116A126A136AF0C0E6FF11C0D1
:1005A000E6FF12C0E6FF13C0E6FFE66AE66A53EC18
:1005B00008F0146E060EE15E1450F0C0E6FF020E65
:1005C000E66EEDEC0FF0E552E55200010F0EFD6F07
:1005D0000F01030E0BD30001FD5101E0A9D3F0C0C0
:1005E000E6FF020E75D20001FE511BE12C0EFE6FDC
:1005F0000001FB510EE0FB6B9D0EE66E220EE66ED7
:10060000E66A010EE66E85EC09F0E552E552E55228
:1006100007D0FB5106E1010EFB6FF3C0E6FF21DDC1
:10062000E552040EE66EC2EC0DF0E55200090BE057
:1006300000010F0EFD6F0001F351010802E2F30506
:1006400013D0070E11D0060EE66EC2EC0DF0E55287
:1006500000090CE000010F0EFD6F070E0001F35DB5
:1006600002E2F32901D0000EF36F1200050EE66ED0
:10067000C2EC0DF0E552000912E0F3C0E6FFF1DC38
:10068000E552F3C0E6FF030EE66EEDEC0FF0E55227
:10069000E55200010F0EFD6F0F01060EA7D20001FB
:1006A000FD5101E045D3F3C0E6FF030E11D2000176
:1006B000FE5130E12C0EFE6F0001FB5110E0FB6B90
:1006C000A10EE66E220EE66E050EE66E010EE66ED9
:1006D00085EC09F0E552E552E552E5521BD0FB519D
:1006E00019E1010EFB6FF4C010F0116A126A136A6F
:1006F000F4C0E6FF11C0E6FF12C0E6FF13C0E6FF3C
:10070000050EE66E010EE66E53EC08F0146E060E52
:10071000E15E1450040EE66EC2EC0DF0E5520009E5
:100720000BE000010F0EFD6F0001F451000802E222
:10073000F40513D01F0E11D0060EE66EC2EC0DF0BC
:10074000E55200090CE000010F0EFD6F1F0E0001C5
:10075000F45D02E2F42901D0000EF46F1200050EE0
:10076000E66EC2EC0DF0E552000925E0F4C010F091
:10077000116A126A136AF4C0E6FF11C0E6FF12C0E4
:10078000E6FF13C0E6FF050EE66E010EE66E53ECC3
:1007900008F0146E060EE15E1450F4C0E6FF040E7D
:1007A000E66EEDEC0FF0E552E55200010F0EFD6F25
:1007B0000F01070E1BD20001FD5101E0B9D2F4C0B8
:1007C000E6FF040E85D10001FE5130E12C0EFE6FD4
:1007D0000001FB5110E0FB6BA10EE66E220EE66EEF
:1007E000080EE66E010EE66E85EC09F0E552E55264
:1007F000E552E5521BD0FB5119E1010EFB6FF5C02C
:1008000010F0116A126A136AF5C0E6FF11C0E6FF24
:1008100012C0E6FF13C0E6FF080EE66E010EE66E9C
:1008200053EC08F0146E060EE15E1450040EE66EF2
:10083000C2EC0DF0E55200090BE000010F0EFD6F58
:100840000001F551010802E2F50513D0010E11D0A7
:10085000060EE66EC2EC0DF0E55200090CE0000158
:100860000F0EFD6F0C0E0001F55D02E2F52901D0BF
:100870000C0EF56F1200050EE66EC2EC0DF0E5529F
:1008800000090EE0F5C0E6FF050EE66EEDEC0FF098
:10089000E552E55200010F0EFD6F0F01080EA6D1C3
:1008A0000001FD5101E044D2F5C0E6FF050E10D174
:1008B0000001FE513EE12C0EFE6F0001FB5110E0E5
:1008C000FB6B980EE66E220EE66E0B0EE66E010EC8
:1008D000E66E85EC09F0E552E552E552E55229D085
:1008E000FB5127E1010EFB6F110EE66E230EE66E43
:1008F0000B0EE66E010EE66E85EC09F0E552E55250
:10090000E552E552F6C010F0116A126A136AF6C099
:10091000E6FF11C0E6FF12C0E6FF13C0E6FF0D0EB2
:10092000E66E010EE66E53EC08F0146E060EE15E04
:100930001450040EE66EC2EC0DF0E55200090BE017
:1009400000010F0EFD6F0001F651000802E2F605EE
:1009500013D0630E11D0060EE66EC2EC0DF0E55218
:1009600000090CE000010F0EFD6F630E0001F65D43
:1009700002E2F62901D0000EF66F1200050EE66EB7
:10098000C2EC0DF0E552000931E0110EE66E230EC7
:10099000E66E0B0EE66E010EE66E85EC09F0E55292
:1009A000E552E552E552F6C010F0116A126A136A78
:1009B000F6C0E6FF11C0E6FF12C0E6FF13C0E6FF77
:1009C0000D0EE66E010EE66E53EC08F0146E060E88
:1009D000E15E1450F6C0E6FF060EE66EEDEC0FF099
:1009E000E552E55200010F0EFD6F9ED10001FD5151
:1009F00001E09ED1F6C0E6FF060E6AD0040EE66E58
:100A0000C2EC0DF0E552000957E0B50EE66E220E7D
:100A1000E66EE66AE66A85EC09F0E552E552E552D3
:100A2000E552870EE66E220EE66EE66A010EE66E6F
:100A300085EC09F0E552E552E552E552F7C010F0B9
:100A4000116A126A136AF7C0E6FF11C0E6FF12C00E
:100A5000E6FF13C0E6FF030EE66E010EE66E53ECF2
:100A600008F0146E060EE15E1450F8C010F0116A22
:100A7000126A136AF8C0E6FF11C0E6FF12C0E6FF73
:100A800013C0E6FF0B0EE66E010EE66E53EC08F0A7
:100A9000146E060EE15E14500001010EF96FE66E51
:100AA000280EE66EEDEC0FF0E552E55200010F0E58
:100AB000FD6F0F010A0E9AD0060EE66EC2EC0DF025
:100AC000E55200090BE00001F96BF9C0E6FF280EC2
:100AD000E66EEDEC0FF0E552E55226D10001FD0582
:100AE00001E026D121D10001FE5130E12C0EFE6F34
:100AF0000001FB5110E0FB6BA10EE66E220EE66ECC
:100B0000030EE66E010EE66E85EC09F0E552E55245
:100B1000E552E5521BD0FB5119E1010EFB6FF7C006
:100B200010F0116A126A136AF7C0E6FF11C0E6FFFF
:100B300012C0E6FF13C0E6FF030EE66E010EE66E7E
:100B400053EC08F0146E060EE15E1450040EE66ECF
:100B5000C2EC0DF0E55200090BE000010F0EFD6F35
:100B60000001F751000802E2F70513D0170E11D06B
:100B7000060EE66EC2EC0DF0E55200090CE0000135
:100B80000F0EFD6F170E0001F75D02E2F72901D08D
:100B9000000EF76F1200050EE66EC2EC0DF0E55286
:100BA000000926E0F7C010F0116A126A136AF7C054
:100BB000E6FF11C0E6FF12C0E6FF13C0E6FF030E1A
:100BC000E66E010EE66E53EC08F0146E060EE15E62
:100BD0001450F7C0E6FF260EE66EEDEC0FF0E5527E
:100BE000E55200010F0EFD6F0F010B0E426F120058
:100BF0000001FD5101E09CD0F7C0E6FF260EE66E35
:100C0000EDEC0FF0E552E5528FD00001FE5130E1DE
:100C10002C0EFE6F0001FB5110E0FB6BA10EE66E87
:100C2000220EE66E0B0EE66E010EE66E85EC09F006
:100C3000E552E552E552E5521BD0FB5119E1010E98
:100C4000FB6FF8C010F0116A126A136AF8C0E6FF71
:100C500011C0E6FF12C0E6FF13C0E6FF0B0EE66E02
:100C6000010EE66E53EC08F0146E060EE15E1450B1
:100C7000040EE66EC2EC0DF0E55200090BE0000137
:100C80000F0EFD6F0001F851000802E2F80513D0C5
:100C90003B0E11D0060EE66EC2EC0DF0E5520009D7
:100CA0000CE000010F0EFD6F3B0E0001F85D02E24B
:100CB000F82901D0000EF86F1200050EE66EC2ECA6
:100CC0000DF0E552000903E10001FD5131E1F1C0F1
:100CD00010F0116A126A136AF1C0E6FF11C0E6FF54
:100CE00012C0E6FF13C0E6FF0B0EE66E010EE66EC5
:100CF00053EC08F0146E060EE15E1450F8C0E6FFE7
:100D0000270EE66EEDEC0FF0E552E55200010F0EF6
:100D1000FD6F0AD0050EE66EC2EC0DF0E55200093B
:100D200003E10001FD5104E10F01426B1200426B2F
:020D30001200AF
:0E0D3200D9CFE6FFE1CFD9FF020EE126DE6A3F
:100D4000DD6ADECF10F0DDCF11F0FE0EDB50136A4E
:100D5000E850105C1350115805E2DF2A010EF1E350
:100D6000DB2AEFD7020EE15C02E2E16AE552E16EB6
:100D7000E552E7CFD9FF1200D9CFE6FFE1CFD9FF87
:100D8000040EE126DE6ADD6ADECF10F0DDCF11F061
:100D9000FE0EDB50136AE850105C135011581AE233
:100DA000020EDB6A030EDB6A020EDBCF10F0030ECD
:100DB000DBCF11F0FA0E105C000E115806E2020EA5
:100DC000DB2A030EF1E3DB2AEFD7DF2A010EDCE397
:100DD000DB2ADAD7040EE15C02E2E16AE552E16E59
:100DE000E552E7CFD9FF1200D9CFE6FFE1CFD9FF17
:100DF0000F0E8116FE0EDB5081128186010EE66E0B
:100E000098DFE5528196010EE66E93DFE552E552DA
:100E1000E7CFD9FF1200D9CFE6FFE1CFD9FF818418
:100E2000010EE66EA9DFE552FE0EDBCFE6FFDCDF4A
:100E3000E552FE0EDB38F00BE66ED6DFE55281940C
:100E4000E552E7CFD9FF1200D9CFE6FFE1CFD9FFB6
:100E50008194010EE66E90DFE552FE0EDBCFE6FFD9
:100E6000C3DFE552FE0EDB38F00BE66EBDDFE55268
:100E70008194E552E7CFD9FF1200D9CFE6FFE1CF49
:100E8000D9FF0F0E8116FE0EDB50F00B811281860A
:100E9000010EE66E71DFE5528196010EE66E6CDFA3
:100EA000E5520F0E8116FE0EDB38F00B81128186A3
:100EB000010EE66E61DFE5528196010EE66E5CDFA3
:100EC000E552E552E7CFD9FF1200D9CFE6FFE1CFD7
:100ED000D9FFE652936AFA0EE66E4EDFE5520F0E28
:100EE0008116F80E81160F0E8116300E8112818642
:100EF000010EE66E41DFE5528196010EE66E3CDFA3
:100F0000E5520F0E8116300E81128186010EE66EBB
:100F100033DFE5528196010EE66E2EDFE5520F0EAD
:100F20008116300E81128186010EE66E25DFE552B4
:100F30008196010EE66E20DFE5520F0E8116818A42
:100F40008186010EE66E18DFE5528196010EE66E8F
:100F500013DFE552280EE66E90DFE5520C0EE66ECA
:100F60008CDFE552E552E552E7CFD9FF1200D9CF29
:100F7000E6FFE1CFD9FFFE0EDB50010A06E0010AD1
:100F80000AE1FD0EDB50800F03D0FD0EDB50C00FD9
:100F9000E66E5ADFE552E552E7CFD9FF1200D9CF0E
:100FA000E6FFE1CFD9FF020EE126DF6A020EDF5C29
:100FB00022E2010EDB6A100EF36E010EDBCFF4FFAE
:100FC000F350F45C16E2DF50100DF3CF10F0F4CFC5
:100FD00011F0D00E1026000E1122010EDB5010244D
:100FE000E96E000E1120EA6E200EEF6E010EDB2A74
:100FF000E2D7DF2ADBD7020EE15C02E2E16AE552CA
:10100000E16EE552E7CFD9FF1200D9CFE6FFE1CF7D
:10101000D9FF3ECF10F03FCF11F0040ED89010361C
:101020001136E806FBE1D00E1026000E11221050FA
:101030000F014025E96E11504121EA6EFE0EDBCF13
:10104000EFFF402B000E4123E552E7CFD9FF1200FE
:10105000D9CFE6FFE1CFD9FFFE0EDB50010B0F0128
:101060003E6F3F6BFD0EDB500F0B406F416B3ECF71
:1010700010F03FCF11F0040ED89010361136E8066C
:10108000FBE1D00E1026000E112210500F0140255A
:10109000E96E11504121EA6EFC0EDBCFEFFFE55205
:1010A000E7CFD9FF1200D9CFE6FFE1CFD9FF060E77
:1010B000E126DF6A020EDB6ACA0EF36E030EF3CF7F
:1010C000DBFF9A0EF36E040EF3CFDBFF3B0EF36EE5
:1010D000050EF3CFDBFFFE0EDB50010B0F013E6F61
:1010E0003F6BFD0EDB500F0B406F416BD950F90F7A
:1010F000E96EFF0EDA20EA6ED890030EEB50000A7C
:1011000008E6000EEE5C000EEE58000EEE58000EE3
:10111000EE5813E2D950F90FE96EFF0EDA20EA6EAD
:10112000000EEE6CEF1EEE22EF1EEE22EF1EEF22FF
:10113000ED52ED52ED522D0E2FD0F90EDBCF10F007
:10114000FA0EDBCF11F0FB0EDBCF12F0FC0EDBCF83
:1011500013F0105011101210131009E1300EE66E4A
:1011600054DFE552300EE66E50DFE552C4D0D95060
:10117000F90FE96EFF0EDA20EA6ED890030EEB50FD
:10118000000A08E60A0EEE5C000EEE58000EEE585D
:10119000000EEE5804E2300EE66E37DFE552DE5206
:1011A0000A0EDD6E010EDB50000801E3A4D0F90E3B
:1011B000DBCF10F0FA0EDBCF11F0FB0EDBCF12F01D
:1011C000FC0EDBCF13F010C006F011C007F012C008
:1011D00008F013C009F0020EDBCF0BF0030EDBCFDB
:1011E0000CF0040EDBCF0DF0050EDBCF0EF014EC8F
:1011F00012F0065007100810091034E0010EDF6EDF
:10120000F90EDBCF14F0FA0EDBCF15F0FB0EDBCFBF
:1012100016F0FC0EDBCF17F014C006F015C007F077
:1012200016C008F017C009F0020EDBCF0BF0030E5A
:10123000DBCF0CF0040EDBCF0DF0050EDBCF0EF094
:1012400014EC12F006C010F007C011F008C012F044
:1012500009C013F0300E1026000E112212221322A4
:10126000105003D0DF5004E0300EE66ECEDEE552C3
:10127000D950F90FE96EFF0EDA20EA6E020EDBCFCD
:101280000BF0030EDBCF0CF0040EDBCF0DF0050EE0
:10129000DBCF0EF0EECF06F0EECF07F0EECF08F08A
:1012A000EFCF09F014EC12F005C0EDFF04C0EDFF24
:1012B00003C0EDFF02C0EFFFD950020FE96EDACF95
:1012C000EAFF0A0E0B6E0C6A0D6A0E6AEECF06F08C
:1012D000EECF07F0EECF08F0EFCF09F014EC12F0EC
:1012E00009C0EDFF08C0EDFF07C0EDFF06C0EFFF2E
:1012F000010EDB0657D7060EE15C02E2E16AE55219
:10130000E16EE552E7CFD9FF1200D9CFE6FFE1CF7A
:10131000D9FFFE0EDB50010B0F013E6F3F6BFD0E40
:10132000DB500F0B406F416BFB0EDBCFF6FFFC0E6B
:10133000DBCFF7FF0800F5500FE0FB0EDBCFF6FF29
:10134000DB2AFC0EDBCFF7FF01E3DB2A0800F550B8
:10135000E66E5BDEE552E8D7E552E7CFD9FF120033
:10136000D9CFE6FFE1CFD9FFE652FE0EDB50010BED
:101370000F013E6F3F6BFD0EDB500F0B406F416B5B
:10138000DF6AFA0EDB50DF5C13E2DF50E76EFB0E24
:10139000DBCFF6FFFC0EDBCFF7FFE750F626000EA3
:1013A000F7220800F550E66E30DEE552DF2AE9D775
:1013B000E552E552E7CFD9FF1200D9CFE6FFE1CFE2
:1013C000D9FFE652E66AE66AD2DDE552E552DF6A07
:1013D000100EDF5C0CE2DF50EA6AD00FE96E000EFF
:1013E000EA22EF50E66E17DDE552DF2AF1D7E66A12
:1013F000010EE66EBCDDE552E552DF6A100EDF5CE1
:101400000CE2DF50EA6AE00FE96E000EEA22EF50CC
:10141000E66E01DDE552DF2AF1D7E552E552E7CF6E
:04142000D9FF1200DE
:0C142400D9CFE6FFE1CFD9FFD59EFD0E29
:10143000DBCF00FFFE0EDBCF01FFD59C13681468E5
:10144000156A00CF16F001CF17F0186A1650135C1A
:10145000106E17501458116E18501558126E0C6AF1
:10146000010E0D6E0E6A10C007F011C008F012C018
:1014700009F0E7EC11F00350D66E13681468156A92
:1014800000CF16F001CF17F0186A1650135C106EDB
:1014900017501458116E18501558126E0C6A010E20
:1014A0000D6E0E6A10C007F011C008F012C009F0EE
:1014B000E7EC11F007C010F008C011F009C012F0FD
:1014C0000750D76ED59AD586F28AF294F184D58EDC
:1014D000E552E7CFD9FF1200D9CFE6FFE1CFD9FF20
:1014E000CD90FD0EDBCF02FFFE0EDBCF03FFF50E2E
:1014F000136E1468156A02CF16F003CF17F0186A3E
:101500001650135C106E17501458116E1850155861
:10151000126E0C6A010E0D6E0E6A10C007F011C03B
:1015200008F012C009F0E7EC11F00350CF6E136819
:101530001468156A02CF16F003CF17F0186A165018
:10154000135C106E17501458116E18501558126E07
:101550000C6A010E0D6E0E6A10C007F011C008F083
:1015600012C009F0E7EC11F007C010F008C011F04C
:1015700009C012F00750CE6E9D809E909F90CD8E38
:10158000CD8CCD98CD9ACD96CD92CD80E552E7CF3A
:10159000D9FF1200D9CFE6FFE1CFD9FFCA94CC6AB8
:1015A000FE0EDB500F01046F056BCB6E9D829E9289
:1015B0009F92CA90CA92CA84E552E7CFD9FF12001F
:1015C000D9CFE6FFE1CFD9FFB190FD0EDBCF06FF0B
:1015D000FE0EDBCF07FF13681468156A06CF16F0FE
:1015E00007CF17F0186A1650135C106E1750145876
:1015F000116E18501558126E0C6A010E0D6E0E6A9F
:1016000010C007F011C008F012C009F0E7EC11F0AB
:101610000750B36E13681468156A06CF16F007CF2B
:1016200017F0186A1650135C106E17501458116E8C
:1016300018501558126E0C6A010E0D6E0E6A10C00D
:1016400007F011C008F012C009F0E7EC11F003C078
:1016500010F004C011F005C012F00350B26EA08269
:10166000A192A292B18EB198B19AB192B180E55295
:10167000E7CFD9FF120013681468156A00CF16F07F
:1016800001CF17F0186A1650135C106E17501458DB
:10169000116E18501558126E0C6A010E0D6E0E6AFE
:1016A00010C007F011C008F012C009F0E7EC11F00B
:1016B0000350D66E13681468156A00CF16F001CF78
:1016C00017F0186A1650135C106E17501458116EEC
:1016D00018501558126E0C6A010E0D6E0E6A10C06D
:1016E00007F011C008F012C009F0E7EC11F007C0D4
:1016F00010F008C011F009C012F00750D76ED58E57
:101700001200F50E136E1468156A02CF16F003CF9F
:1017100017F0186A1650135C106E17501458116E9B
:1017200018501558126E0C6A010E0D6E0E6A10C01C
:1017300007F011C008F012C009F0E7EC11F00350F7
:10174000CF6E13681468156A02CF16F003CF17F036
:10175000186A1650135C106E17501458116E1850FA
:101760001558126E0C6A010E0D6E0E6A10C007F04D
:1017700011C008F012C009F0E7EC11F007C010F03A
:1017800008C011F009C012F00750CE6ECD801200D3
:1017900004CFCBFFCA84120013681468156A06CF01
:1017A00016F007CF17F0186A1650135C106E17501A
:1017B0001458116E18501558126E0C6A010E0D6EE9
:1017C0000E6A10C007F011C008F012C009F0E7EC73
:1017D00011F00350B26E13681468156A06CF16F044
:1017E00007CF17F0186A1650135C106E1750145874
:1017F000116E18501558126E0C6A010E0D6E0E6A9D
:1018000010C007F011C008F012C009F0E7EC11F0A9
:1018100007C010F008C011F009C012F00750B36EF5
:10182000B1801200D59E1200CD901200CA94120011
:10183000B19012000F01082B000E09231051085D12
:101840001151095905E3086B096B0F01010E3A6F3D
:1018500012000F010A2B000E0B2312510A5D1351C7
:101860000B5905E30A6B0B6B0F01010E3B6F120066
:101870000F010C2B000E0D2314510C5D15510D5949
:1018800005E30C6B0D6B0F01010E3C6F12000F0195
:101890000E2B000E0F2316510E5D17510F5905E345
:1018A0000E6B0F6B0F01010E3D6F1200D9CFE6FFDB
:1018B000E1CFD9FFFD0EDBCF10FFFE0EDBCF11FF16
:1018C0000F01086B096B0F013A6BE552E7CFD9FFA7
:1018D0001200D9CFE6FFE1CFD9FFFD0EDBCF12FF1B
:1018E000FE0EDBCF13FF010E0F0B0F0105E0D890AA
:1018F00013331233E806FBE10F010A6B0B6B0F0188
:101900003B6BE552E7CFD9FF1200D9CFE6FFE1CF1D
:10191000D9FFFD0EDBCF14FFFE0EDBCF15FF0F014D
:101920000C6B0D6B0F013C6BE552E7CFD9FF12003A
:10193000D9CFE6FFE1CFD9FFFD0EDBCF16FFFE0EBC
:10194000DBCF17FF0A0E0D6E0E6A16CF08F017CF09
:1019500009F055EC12F008C016FF09C017FF0F017F
:101960000E6B0F6B0F013D6BE552E7CFD9FF1200F5
:101970000F0E946E82681200D9CFE6FFE1CFD9FF37
:10198000030EE126DF6A040EDF5C01E3D8D0DF50EE
:10199000EA6A280FE96E0F0EEA22EF1C826E010E32
:1019A000DB6A040EF36E010EDBCFF4FFF350F45C40
:1019B00001E3C3D0010EDBCFE6FF040EDF02F350DC
:1019C000E552E724E76E020EE7CFDBFFDB50EA6A61
:1019D000800FE96E000EEA22EF50E66E020EDB5039
:1019E000EA6A900FE96E000EEA22E552E750EF6EC8
:1019F000010EDB50EA6A2C0FE96E0F0EEA22EF505F
:101A00008214E66E020EDB50EA6A800FE96E000E69
:101A1000EA22E552E750EF6E020EDB50EA6A800FD1
:101A2000E96E000EEA22EFCF10F0020EDB50EA6AF8
:101A3000900FE96E000EEA22EF50105C01E07AD0C0
:101A4000020EDB50EA6A800FE96E000EEA22EF50C8
:101A5000E66E020EDB50EA6A180FE96E0F0EEA22FC
:101A6000E552E750EF6E020EDB50EA6A180FE96E9E
:101A70000F0EEA22EF5021E1020EEA6ADB34FE0B80
:101A8000EA36E96EB00EE926000EEA22EECF10F03B
:101A9000EFCF11F0E80E105C030E11584BE2020E6E
:101AA000EA6ADB34FE0BEA36E96EB00EE926000E78
:101AB000EA22EE2A000EEF223DD0020EEA6ADB3463
:101AC000FE0BEA36E96EB00EE926000EEA22000EA1
:101AD000D880EE54000EED5413E2020EEA6ADB34B5
:101AE000FE0BEA36E96EB00EE926000EEA22EECFD2
:101AF00010F0EFCF11F0320E105C000E115802E31F
:101B0000000E01D0010EE66E020EDB50EA6AA00F55
:101B1000E96E000EEA22E552E750EF6E020EEA6A25
:101B2000DB34FE0BEA36E96EB00EE926000EEA223F
:101B3000EE6AED6A010EDB2A34D7DF2A24D7030EC2
:101B4000E15C02E2E16AE552E16EE552E7CFD9FFDE
:101B50001200D9CFE6FFE1CFD9FFFE0EDB5010080F
:101B600002E2000E0BD0FE0EEA6ADB34FE0BEA3610
:101B7000E96EB00EE926000EEA22EF50E552E7CFFB
:101B8000D9FF1200D9CFE6FFE1CFD9FFE652FE0E12
:101B9000DB50100802E2000E12D0FE0EDB50EA6AA3
:101BA000A00FE96E000EEA22EFCFDFFFFE0EDB5042
:101BB000EA6AA00FE96E000EEA22EF6ADF50E552F2
:101BC000E552E7CFD9FF1200D9CFE6FFE1CFD9FF29
:101BD000100EF36EFE0EDBCFF4FFF350F45C22E246
:101BE000FE0EEA6ADB34FE0BEA36E96EB00EE92639
:101BF000000EEA22EECF10F0EFCF11F0FC0EDBCF9B
:101C000012F0FD0EDBCF13F00A0E0D6E0E6A12C03D
:101C100008F013C009F055EC12F01050085C115098
:101C2000095802E3000E01D0010EE552E7CFD9FFBB
:021C30001200A0
:0E1C32003DD875D8760EE66E220EE66EE66A96
:101C4000E66A85EC09F0E552E552E552E552DDEC35
:101C500009F0D00EE66E070EE66E07D9E552E552A2
:101C6000CFEC07F007EC01F00F013A5109E03A6BB5
:101C70000001010EFA6F0001FD51000801E2FD07AD
:101C80000F013B5103E03B6BBCEC0CF00F013D51ED
:101C9000E9E03D6B0001FC5101E0A1D8DDEC09F069
:101CA0000001FE510008DEE2320EFE5FDBD765EC7C
:101CB00007F05DEC10F0B8EC0CF0C3EC0FF02EEC7C
:101CC00000F0570EE66E120EE66E12EC0AF0E552C8
:101CD000E552AE0EE66E240EE66E6CEC0AF0E552AE
:101CE000E552660EE66EB70EE66EE0EC0AF0E552DF
:101CF000E552E80EE66E030EE66E56EC0CF0E55289
:101D0000E5520A0EE66EE66A69EC0CF0E552E55221
:101D1000320EE66EE66A98EC0CF0E552E5521200DF
:101D2000250EE66E23EC10F0E552600856E0010E39
:101D3000E66EE66AEDEC0FF0E552E552010EE66E56
:101D4000E66EEDEC0FF0E552E552010EE66E020E86
:101D5000E66EEDEC0FF0E552E552010EE66E030E75
:101D6000E66EEDEC0FF0E552E552010EE66E040E64
:101D7000E66EEDEC0FF0E552E552010EE66E050E53
:101D8000E66EEDEC0FF0E552E552010EE66E060E42
:101D9000E66EEDEC0FF0E552E552E66A280EE66ECF
:101DA000EDEC0FF0E552E552010EE66E260EE66E02
:101DB000EDEC0FF0E552E552010EE66E270EE66EF1
:101DC000EDEC0FF0E552E552600EE66E250EE66E84
:101DD000EDEC0FF0E552E5521200EFEF0EF0E66A7F
:101DE00023EC10F0E5520001F26F010EE66E23ECD9
:101DF00010F0E5520001F16F020EE66E23EC10F0D8
:101E0000E5520001F06F030EE66E23EC10F0E55290
:101E10000001F36F040EE66E23EC10F0E5520001B2
:101E2000F46F050EE66E23EC10F0E5520001F56F3D
:101E3000060EE66E23EC10F0E5520001F66F260E5A
:101E4000E66E23EC10F0E5520001F76F270EE66E08
:101E500023EC10F0E5520001F86F280EE66E23EC3B
:101E600010F0E5520001F96F1200D9CFE6FFE1CF83
:101E7000D9FF040EE126DE6ADD6ADECF10F0DDCF89
:101E800011F0FD0EDBCF12F0FE0EDBCF13F0115080
:101E90001318E8AE02D0133404D01250105C135063
:101EA00011581DE2020EDB6A030EDB6A020EDBCF65
:101EB00010F0030EDBCF11F0D890115004E6A00E05
:101EC000105C000E115806E2020EDB2A030EEEE350
:101ED000DB2AECD7DF2A010ED0E3DB2ACED7040EB3
:101EE000E15C02E2E16AE552E16EE552E7CFD9FF3B
:021EF0001200DE
:0E1EF200D9CFE6FFE1CFD9FF020EE126FE0EAA
:101F0000DB500F0BDF6EFE0EDB380F0B0A0D010EE0
:101F1000F3CFDBFFDB50DF24106E020EE15C02E248
:101F2000E16AE552E16E1050E552E7CFD9FF1200A9
:101F3000D9CFE6FFE1CFD9FF020EE1260A0E106EDF
:101F40000E6EFE0EDBCF09F089EC12F00550DF6E4D
:101F50000A0E106E0E6EFE0EDBCF09F089EC12F049
:101F60000950100D010EF3CFDBFFDB50DF24106EA4
:101F7000020EE15C02E2E16AE552E16E1050E552C8
:101F8000E7CFD9FF120094869488C79EC79CC68A63
:101F9000C686C694C692C690310EC86E12009E9632
:101FA000C5809EA6FED712009E96C5849EA6FED72B
:101FB0001200D9CFE6FFE1CFD9FF9E96FE0EDB508F
:101FC000C96E9EA6FED7E552E7CFD9FF12009E96B6
:101FD000C5869EA6FED7C9501200D9CFE6FFE1CF35
:101FE000D9FFDDDFD00EE66EE4DFE5520001010E21
:101FF000FF6FE85004E0C550400BFAE0F8D7FE0E42
:10200000DBCFE6FFD6DFE5520001010EFF6FE8509F
:1020100004E0C550400BFAE0F8D7FD0EDBCFE6FF39
:1020200087DFE552E66EC5DFE5520001010EFF6F66
:10203000E85004E0C550400BFAE0F8D7B5DFE552B0
:10204000E7CFD9FF1200D9CFE6FFE1CFD9FFE652A3
:10205000A6DFD00EE66EADDFE5520001010EFF6F88
:10206000E85004E0C550400BFAE0F8D7FE0EDBCF95
:10207000E6FF9FDFE5520001010EFF6FE85004E02C
:10208000C550400BFAE0F8D78ADFD10EE66E91DF3B
:10209000E5520001010EFF6FE85004E0C550400B0F
:1020A000FAE0F8D794DFDF6EDFCFE6FF22DFE552FC
:0A20B000E552E552E7CFD9FF120018
:0620BA00F28ED08EF28CC4
:1020C0001200D8CFE4FFE0CFE4FFE46EDACFE4FF04
:1020D000E2CFDAFFE9CFE4FFEACFE4FFF6CFE4FF97
:1020E000F7CFE4FFF5CFE4FFF3CFE4FFF4CFE4FF55
:1020F000FACFE4FF00EE00F0100EE80403E3EECFA9
:10210000E4FFFBD700EE10F0090EE80403E3EECF86
:10211000E4FFFBD7E652F2A407D012EC0CF0F294E5
:102120003BEC0BF01AEC0CF09EA007D014EC0CF07A
:102130009E9081EC0BF029EC0CF0A1A207D018ECDA
:102140000CF0A192CCEC0BF047EC0CF0F2B2F29256
:102150009EBA9E9AE55200EE18F0090EE80403E3D9
:10216000E5CFEDFFFBD700EE0FF0100EE80403E320
:10217000E5CFEDFFFBD7E5CFFAFFE5CFF4FFE5CFE5
:10218000F3FFE5CFF5FFE5CFF7FFE5CFF6FFE5CFAE
:10219000EAFFE5CFE9FFE5CFDAFFE550E5CFE0FF65
:1021A000E5CFD8FF1000DACFE4FFE2CFDAFFE9CFC6
:1021B000E4FFEACFE4FFF6CFE4FFF7CFE4FFF5CF8B
:1021C000E4FFF3CFE4FFF4CFE4FFFACFE4FF00EE47
:1021D00000F0100EE80403E3EECFE4FFFBD700EEBF
:1021E00010F0090EE80403E3EECFE4FFFBD7E6525C
:1021F000F2A407D012EC0CF0F2943BEC0BF01AECCA
:102200000CF09EA007D014EC0CF09E9081EC0BF02B
:1022100029EC0CF0A1A207D018EC0CF0A192CCECA8
:102220000BF047EC0CF0F2B2F2929EBA9E9AE55295
:1022300000EE18F0090EE80403E3E5CFEDFFFBD74D
:1022400000EE0FF0100EE80403E3E5CFEDFFFBD73F
:10225000E5CFFAFFE5CFF4FFE5CFF3FFE5CFF5FFDC
:10226000E5CFF7FFE5CFF6FFE5CFEAFFE5CFE9FFE2
:06227000E5CFDAFF1100CA
:0A2276002020534D41525420204314
:102280004C4F434B202000483A2020202020204D56
:102290003A20202020202000202020200020202064
:1022A00000202000203C4F4E3E20202020203C4F8C
:1022B00046463E20002020205455524E20414C419D
:1022C000524D3A20200052454E474747474720523B
:1022D000454E474747470052494E474747472052D8
:1022E000494E4747474747004F4646004F4E00205C
:1022F0002020202020202F20202F202020202000E0
:1023000020203A20203A2020202020202020202099
:102310000032300053554E0053415400465249009C
:102320005448550057454E00545545004D4F4E00FA
:102330001E0EF66E000EF76E000EF86E0F0109000D
:10234000F550356F0900F550366F03E1356701D060
:102350003DD00900F550306F0900F550316F09008C
:10236000F550326F09000900F550E96E0900F5508B
:10237000EA6E090009000900F550336F0900F550B5
:10238000346F09000900F6CF37FFF7CF38FFF8CFD9
:1023900039FF30CFF6FF31CFF7FF32CFF8FF0F0113
:1023A000335302E1345307E00900F550EE6E330772
:1023B000F8E23407F9D737CFF6FF38CFF7FF39CF38
:0E23C000F8FF0F013507000E365BBFD7120085
:0223CE00006AA3
:1023D0000EAEF2EF11F00C6C0D1E0E1EE86A0D220F
:1023E0000E22001E09AEFCEF11F0076C081E091E3C
:1023F000E86A08220922001E38EC12F009BE0FEF2D
:1024000012F000AE000C076C081E091EE86A0822D4
:102410000922036C041E051E04220522000C00BEC6
:0824200003EF12F00188FF0C2C
:08242800056A046A036A026AF6
:10243000200EE76ED8900636073608360936023683
:102440000336043605360B50025C0C5003580D5011
:1024500004580E50055809E30B50025E0C50035A05
:102460000D50045A0E50055A062AE72EE4D71200E2
:10247000056A046A036A180EE76ED89007360836B4
:1024800009360336043605360C50035C0D500458EB
:102490000E50055807E30C50035E0D50045A0E50C1
:0A24A000055A072AE72EEAD71200BA
:0624AA00056A046A100E31
:1024B000E76ED89008360936043605360D50045CB0
:1024C0000E50055805E30D50045E0E50055A082ABB
:0624D000E72EF0D7120018
:0A24D600800EF36E00EE00F00F0E12
:1024E00001D81200EA6002D0EE6AFCD7F350E9602E
:0624F0001200EE6AFCD7A9
:0A24F6001EEE00F02EEE00F0F86A72
:10250000019C98EC11F003EC00F019EC0EF0FBD7F5
:022510001200B7
:0E251200056A080EE76ED890093605360E50A1
:0E252000055C02E3056E092AE72EF7D71200CC
:02252E000000AB
:10253000000000000000000000000000000000009B
:0625400000000000000095
:0A254600202020202020202020204B
:10255000202020202020202020202020202020207B
:06256000202020202020B5
:0A256600000000000000000000006B
:05257000000000000066
:0B25750000000000000000000000005B
:0D258000000000000010204080010204084F
:020000040030CA
:0100010002FC
:0100020003FA
:010003001EDE
:010005008179
:010006008178
:010008000FE8
:01000900C036
:01000A000FE6
:01000B00E014
:01000C000FE4
:01000D0040B2
:00000001FF
