:020000040000FA
:060000002DEF0CF01200D0
:020006001200E6
:0600080081EF0AF0120076
:02000E001020C0
:060010004080010204081B
:0600180048EF0AF012009F
:02001E000500DB
:100020000E000000320F000008000000FA18000067
:10003000180F000010000000DA180000E0000000B7
:1000400020000000AA180000B000000030000000EE
:0C00500092180000000F000018000000D3
:04005C000F01426BE3
:100060001200D9CFE6FFE1CFD9FFFE0EDB50070A21
:1000700024E0010A1EE0030A18E0010A12E0070A60
:100080000CE0010A06E0030A1CE1900EE66E160E73
:1000900017D08C0EE66E160E13D0880EE66E160E76
:1000A0000FD0840EE66E160E0BD0800EE66E160E86
:1000B00007D07C0EE66E160E03D0780EE66E160E96
:1000C000F8DAE552E7CFD9FF1200D5DACFDA1ACF46
:1000D00010F0A7DA1ACFE6FF81DA060EE66E92DAA2
:1000E000B2DAE552D1DAEBDA27EF03F00F01425131
:1000F0000C0A01E160D2070A01E12DD2010A01E1F7
:10010000F5D1030A01E1C9D1010A01E18FD10F0A3A
:1001100001E159D1010A01E122D1030A01E1DFD055
:10012000010A01E1A7D0070A6FE0010A67E0030AAC
:1001300022E0010A01E046D2640EE66E160ED1DA24
:10014000530EE66E160EB5DA0F01215104E0500E83
:10015000E66E160E05D0215108E14C0EE66E160E25
:10016000E66E0A0EE66EE66A46DAAFDF0F01010EB2
:10017000236F0F01A5D1A9DF0F0121511DE00F0150
:100180001F510F01185D18E10F0120510F01195D7A
:1001900013E10F011A5110E13B0EE66E160EA1DAC3
:1001A0002A0EE66E160E85DA0F01300E246F750EDC
:1001B000256F0F010C0E426F99DA04E086DF0F0104
:1001C000020E7ED1E80EE66E030EE66E050EE66EBA
:1001D00044EC09F0E552E552E552000901E1F3D1A2
:1001E000190EE66E160E7DDA080EE66E160E61DA50
:1001F000FCD90F01236B0F01090E62D10F01236B94
:10020000F4D90F01040E5CD11ADA0DE103DA06E02D
:100210000CDA030EE66EE66AEED905D0225103E150
:10022000010E226F23DA65DA09E0DFD90F011951D7
:10023000000802E219050CD03B0E0AD05DDA0AE094
:10024000D4D93B0E0F01195D02E2192901D0000E2D
:10025000196F12004BDA07E009DA19CFE6FF010E39
:1002600025DA050E2DD1E7D901E0ADD119CFE6FF92
:10027000010E2FD1E4D90CE1CDD905E0D6D9E66A3B
:10028000E66AB9D905D0225103E1010E226FF3D9F4
:1002900030DA09E0AAD90F011851000802E2180566
:1002A0000CD0170E0AD028DA0AE09FD9170E0F01DA
:1002B000185D02E2182901D0000E186F120016DA3C
:1002C00007E0D9D918CFE6FF020EF0D9030EF8D017
:1002D000B2D901E078D118CFE6FF020EFAD0AFD93B
:1002E00016E198D90EE0226B010EE66E160EE66E50
:1002F000E66A010EE66E19EC05F0E552E552E552AC
:1003000005D0225104E1010E226F9DD9E552F1D9A9
:1003100009E06BD90F011B51010802E21B050CD04B
:10032000070E0AD0E9D90AE060D9070E0F011B5D5C
:1003300002E21B2901D0000E1B6F1200D7D908E082
:1003400082D9E5521BCFE6FF030EB0D9060EB8D016
:1003500072D901E038D11BCFE6FF030EBAD06FD9B6
:100360000BE158D904E061D9050ED0D905D022514E
:1003700003E1010E226F88D9BCD909E036D90F01FB
:100380001C51000802E21C050CD01F0E0AD0B4D983
:100390000AE02BD91F0E0F011C5D02E21C2901D0BF
:1003A000000E1C6F1200A2D907E06ED91CCFE6FF29
:1003B000040E7CD9070E84D03ED901E004D11CCFB5
:1003C000E6FF040E86D03BD90BE124D904E02DD9F9
:1003D000080E9CD905D0225103E1010E226F6FD97E
:1003E00088D909E002D90F011D51010802E21D055B
:1003F0000CD0010E0AD080D90AE0F7D80C0E0F01FC
:100400001D5D02E21D2901D00C0E1D6F12006ED978
:1004100006E01DCFE6FF050E49D9080E51D00BD9D5
:1004200001E0D1D01DCFE6FF050E53D008D90FE172
:10043000F1D808E0226BFC0EE66E150EE66E0B0E90
:1004400065D905D0225103E1010E226F00D951D99F
:1004500009E0CBD80F011E51000802E21E050CD0A6
:10046000630E0AD049D90AE0C0D8630E0F011E5DA1
:1004700002E21E2901D0000E1E6F120037D906E0DD
:10048000E6D81ECFE6FF060E4DD924D0D4D801E021
:100490009AD01ECFE6FF060E1CD02BD913E0190E02
:1004A000E66E160E1ED9EB0EE66E150E02D9F5D8C5
:1004B0000FD90F01010E216FE66E280EF7D80A0E34
:1004C000426F120019D909E00F01216B21CFE6FF1D
:1004D000280E9AD80F01426B12000F01010E241949
:1004E00004E1255170E10F01426B1200A8D80BE125
:1004F00091D804E09AD8030E09D905D0225103E11E
:10050000010E226FCAD8F5D809E06FD80F011F512C
:10051000000802E21F050CD0170E0AD0EDD80AE041
:1005200064D8170E0F011F5D02E21F2901D0000ED3
:100530001F6F1200DBD808E0B0D81FCFE6FF260EF1
:10054000B5D80B0E426F120076D83DE11FCFE6FF03
:10055000260E5AD834D073D80BE15CD804E065D8A5
:100560000B0ED4D805D0225103E1010E226FB0D872
:10057000C0D809E03AD80F012051000802E2200556
:100580000CD03B0E0AD0B8D80AE02FD83B0E0F0192
:10059000205D02E2202901D0000E206F1200A6D8B3
:1005A00002E149D810E1B7D80B0E0ED820CFE6FFF4
:1005B000270EB8D804D09AD802E13DD804E10F0143
:1005C000426B1200426B1200E66E010EE66E97D08F
:1005D000E66E32EC09F0E5520009120011C0E6FFA8
:1005E00012C0E6FF13C0E6FF12000F01980E246F41
:1005F0003A0E256F120019EC05F0E552E552E5526E
:10060000E5521200E66A7BD0E66ECFEC09F0E552C7
:10061000E55212002C0E266F010E276F0F0122519A
:100620001200116A126A136A1200226B050EE66E3E
:10063000160EE66E12000F012451251112000F0153
:100640002651271112001BCFE6FF31EF00F0750E87
:10065000E66E160EE66E0B0E59D81ECF10F0E1DFD7
:100660001ECFE6FFBBDF0D0EE4EF02F054D8030E01
:10067000E66E02EF03F018CF10F0D3DF18CFE6FFDD
:10068000ADDFE66A02EF03F01CCF10F0CADF1CCF2B
:10069000E6FFA4DF050EE4EF02F01FCF10F0C1DF8C
:1006A0001FCFE6FF9BDF030EE4EF02F03BD80F0104
:1006B0001200E66EE66A010EE66EFBEF02F01DCF59
:1006C00010F0AFDF1DCFE6FF89DF080EE4EF02F088
:1006D00020CF10F0A6DF20CFE6FF80DF0B0EE4EF87
:1006E00002F0E66EE66AE66AFBEF02F0050EE8EF5E
:1006F00002F0040EE8EF02F0060EE8EF02F071ECF3
:1007000004F0146E060EE15E14501200E66E010E47
:10071000E66EFBEF02F019CF10F083DF19CFE6FF92
:0A072000EEEF02F071DFF5EF02F0DA
:06072A00F4D9020EE126E5
:10073000DE6ADD6A30DA05E2DF2A010EFBE3DB2A3E
:10074000F9D7020EE15C02E2E16AE552E16EE7D11F
:10075000E1D9040EE126DE6ADD6A1DDA1AE2020E34
:10076000DB6A030EDB6A020EDBCF10F0030EDBCF79
:1007700011F0FA0E105C000E115806E2020EDB2A90
:10078000030EF1E3DB2AEFD7DF2A010EE6E3DB2AD3
:10079000E4D7040EE15C02E2E16AE552E16EBFD10A
:1007A0003EDA81128186010EE66EBFDFE552819648
:1007B000010EE66EBADFE552B2D1ACD981841CD20B
:1007C000A9D9819419D22BDAF00B24DAFE0EDB388A
:1007D000F00B81129AD9A3D19DD9E652936AFA0EF1
:1007E000E66EB6DFE5520F0E8116F80E81160F0E7B
:1007F0008116300E0FDA300E0DDA300E0BDA818AE8
:1008000084D9280EE66EDFDFE5520C0EE66EDBDFE4
:10081000E552E55284D17ED9FE0EDB50010A06E096
:10082000010A0AE1FD0EDB50800F03D0FD0EDB5004
:10083000C00FE66EC5DFE55272D16CD9020EE1261B
:10084000DF6A020EDF5C22E2010EDB6A100EF36E3D
:10085000010EDBCFF4FFF350F45C16E2DF50100D15
:10086000F3CF10F0F4CF11F0E00E1026000E11229D
:10087000010EDB501024E96E000E1120EA6E200EEE
:10088000EF6E010EDB2AE2D7DF2ADBD7020EE15C36
:1008900002E2E16AE552E16E42D13CD93ECF10F06E
:1008A0003FCF11F0040ED89010361136E806FBE168
:1008B0007ED9FE0EDBCFEFFF402B000E41232FD160
:1008C00029D931D93ECF10F03FCF11F0040ED89086
:1008D00010361136E806FBE16AD9FC0EDBCFEFFFDC
:1008E0001ED118D9060EE126DF6A020EDB6ACA0E97
:1008F000F36E030EF3CFDBFF9A0EF36E040EF3CF0D
:10090000DBFF3B0EF36E050EF3CFDBFF0CD98DD969
:1009100002E6000E62D90EE21FD9000EEE6CEF1E49
:10092000EE22EF1EEE22EF1EEF22ED52ED52ED52BF
:100930002D0E11D018D9105011101210131005E1FE
:10094000300E25D9300E23D96DD06FD902E60A0EAC
:1009500044D902E2300E1BD9DE520A0EDD6E010EC2
:10096000DB5000085FE2FFD810C006F011C007F0AE
:1009700012C008F013C009F0E2D8C6EC0BF0065024
:1009800007100810091029E0010EDF6EF90EDBCF09
:1009900014F0FA0EDBCF15F0FB0EDBCF16F0FC0ED9
:1009A000DBCF17F014C006F015C007F016C008F032
:1009B00017C009F0C4D8C6EC0BF006C010F007C091
:1009C00011F008C012F009C013F0300E1026000E0E
:1009D000112212221322105003D0DF5002E0300EF9
:1009E000D6D8BAD8ACD8EFD805C0EDFF04C0EDFF1B
:1009F00003C0EDFF02C0EFFFD950020FE96EDACF5E
:100A0000EAFF0A0E0B6E0C6A0D6A0E6ADCD809C08A
:100A1000EDFF08C0EDFF07C0EDFF06C0EFFF010EC0
:100A2000DB069DD7060EE15C02E2E16AE552E16E6B
:100A300076D070D878D8D9D80800F5500DE0FB0EE4
:100A4000DBCFF6FFDB2AFC0EDBCFF7FF01E3DB2A6F
:100A50000800F5509CD8EFD762D05CD8E65263D836
:100A6000DF6AFA0EDB50DF5C0CE2DF50E76EBDD8C8
:100A7000E750F626000EF7220800F55088D8DF2A46
:100A8000F0D7E5524CD046D8E652E66AE66AC3DEB5
:100A9000E552E552DF6A100EDF5C07E2DF50EA6ADA
:100AA000E00FE96E000E6CD8F6D7E66A010EE66E2E
:100AB000B2DEE552E552DF6A100EDF5C07E2DF507E
:100AC000EA6AF00FE96E000E5BD8F6D7E55227D040
:100AD00021D8E652FE0EDB50080DF350400FE66EB3
:100AE0006FDEE552DF6A080EDF5C0DE2DF50E76E75
:100AF000FC0EDBCFE9FFFD0EDBCFEAFFE750E92676
:100B0000000E3ED8F0D7E5520AD0818694D881965F
:100B10001BEF06F0D9CFE6FFE1CFD9FF1200E55277
:100B2000E7CFD9FF1200FE0EDB50010B0F013E6F25
:100B30003F6BFD0EDB500F0B406F416B1200020E3E
:100B4000DBCF0BF0030EDBCF0CF0040EDBCF0DF090
:100B5000050EDBCF0EF01200D950F90FE96EFF0E33
:100B6000DA20EA6E1200F90EDBCF10F0FA0EDBCFBE
:100B700011F0FB0EDBCF12F0FC0EDBCF13F01200F6
:100B8000EA22EF50E66E19DEE552DF2A1200E66E29
:100B900084DEE5521200DECF10F0DDCF11F0FE0E44
:100BA000DB50136AE850105C135011581200E00E2D
:100BB0001026000E112210500F014025E96E115031
:100BC0004121EA6E1200EECF06F0EECF07F0EECF35
:100BD00008F0EFCF09F0C6EF0BF0EE5C000EEE5818
:100BE000000EEE58000EEE581200FB0EDBCFF6FFA3
:100BF000FC0EDBCFF7FF12001ED8FE0EDBCFE6FFA8
:100C0000CFDDE552FE0EDB38F00BE66EC9DDE552B6
:100C1000819485D7811279DF0F0E811612007ADF59
:100C20000F0E8116FE0EDB50120096DFD890030ED9
:100C3000EB50000A1200010EE66E8ADDE55212004A
:100C400053D86CD8DA0EE66E150EE66EE66AE66AE2
:100C500019EC05F0E552E552E552E55233D9AFD82B
:100C60001DEC04F0E80EE66E030EE66ED1D8E552F8
:100C7000E552E66A060E3BD9010EE66E070E37D93D
:100C8000020EE66E080E33D9030EE66E060E2AD962
:100C9000040EE66E070E26D9050EE66E080E22D962
:100CA00011D90F013D51FDE03D6BC3EC08F00F0180
:100CB000320E245D000E255904E3320E245F000E2F
:100CC000255B0F01320E265D000E275904E3320E1C
:100CD000265F000E275B0F01235101E045D876EC1B
:100CE00000F043EC05F0DDD7ECEC03F044EC0AF047
:100CF000BFEC08F0ABEC09F02EEC00F0660EE66EEF
:100D0000B70EE66EB0EC07F0E552E552320EE66E35
:100D1000E66A53EC08F0E552E5521200250EC0D801
:100D2000600820E0010EE66EE66ACFEC09F0E552BD
:100D3000E552010EE66EB0D8020EAED8030EACD866
:100D4000040EAAD8050EA8D8060EC6D8E66A280E44
:100D5000A3D8260EA1D8270EBFD8600EE66E250EAA
:100D60006CEF07F0B4EF06F0E66AF6EC09F0E55236
:100D70000F011A6F010E94D80F01196F020E90D84F
:100D80000F01186F030E8CD80F011B6F040E88D84B
:100D90000F011C6F050E84D80F011D6F060E80D841
:100DA0000F011E6F260E7CD80F011F6F270E78D8FB
:100DB0000F01206F280E74D80F01216F1200B00EA2
:100DC000E66E000EE66EE66A68EC05F0E552E55266
:100DD000E552B80EE66E000EE66E010E66D8C00E45
:100DE000E66E000EE66E020E60D8C80EE66E000ECD
:100DF000E66E030E5AD8D00EE66E000EE66E040EB6
:100E000054D8D80EE66E000EE66E050E55EF07F0CC
:100E1000D9CFE6FFE1CFD9FF040EE126DE6ADD6A15
:100E2000DECF10F0DDCF11F0FD0EDBCF12F0FE0EA5
:100E3000DBCF13F011501318E8AE02D0133404D0F6
:100E40001250105C135011581DE2020EDB6A030EA3
:100E5000DB6A020EDBCF10F0030EDBCF11F0D8906F
:100E6000115004E6A00E105C000E115806E2020EAE
:100E7000DB2A030EEEE3DB2AECD7DF2A010ED0E3F8
:100E8000DB2ACED7040EE15C02E2E16AE552E16EB4
:100E9000E552E7CFD9FF12001FD8010EE66E12000F
:100EA000E66EF6EC09F0E5521200E66E68EC05F02D
:100EB000E552E552E552120060EC04F0E552E552CD
:100EC000E552120043EC05F0D00EE66E070EE66E1A
:100ED0009FDFE552E5521200E66ECFEC09F0E552D5
:100EE000E5521200E66E010EE66E5CEF07F0E66E6C
:060EF000E66A5CEF07F06A
:0A0EF6000FD9D59EFD0EDBCF00FFE3
:100F0000FE0EDBCF01FFD59C1FD9D59AD586F28A7C
:100F1000F294F184D58E04D1FED8CD90FD0EDBCFB6
:100F200002FFFE0EDBCF03FF03D99D809E909F90B2
:100F3000CD8ECD8CCD98CD9ACD96CD92CD80F0D062
:100F4000EAD8CA94CC6AFE0EDB500F01046F056B21
:100F5000CB6E9D829E929F92CA90CA92CA84E0D024
:100F6000DAD8B190FD0EDBCF06FFFE0EDBCF07FF18
:100F7000F2D80750B36EEFD803C010F004C011F0E0
:100F800005C012F00350B26EA082A192A292B18E5F
:100F9000B198B19AB192B180C3D0D6D8D58E120093
:100FA000C7D8CD80120004CFCBFFCA841200D3D89B
:100FB0000350B26ED0D8A7D8B36EB1801200D59EC0
:100FC0001200CD901200CA941200B19012000F01CD
:100FD000082B000E09231051085D1151095905E332
:100FE000086B096B0F01010E3A6F12000F010A2BFB
:100FF000000E0B2312510A5D13510B5905E30A6BC6
:101000000B6B0F01010E3B6F12000F010C2B000E3A
:101010000D2314510C5D15510D5905E30C6B0D6B2F
:101020000F01010E3C6F12000F010E2B000E0F235B
:1010300016510E5D17510F5905E30E6B0F6B0F0123
:10104000010E3D6F120067D8FD0EDBCF10FFFE0EC4
:10105000DBCF11FF0F01086B096B0F013A6B60D0FA
:101060005AD8FD0EDBCF12FFFE0EDBCF13FF010EB1
:101070000F0B0F0105E0D89013331233E806FBE1A4
:101080000F010A6B0B6B0F013B6B4AD044D8FD0E6E
:10109000DBCF14FFFE0EDBCF15FF0F010C6B0D6BCA
:1010A0000F013C6B3DD037D8FD0EDBCF16FFFE0E97
:1010B000DBCF17FF0A0E0D6E0E6A16CF08F017CFA2
:1010C00009F007EC0CF008C016FF09C017FF0F016C
:1010D0000E6B0F6B0F013D6B23D0186A1650135C1B
:1010E000106E17501458116E18501558126E0C6A65
:1010F000010E0D6E0E6A10C007F011C008F012C08C
:1011000009F099EF0BF007C010F008C011F009C00A
:1011100012F007501200D9CFE6FFE1CFD9FF12003D
:10112000E552E7CFD9FF120013681468156A120060
:10113000F50E136E1468156A1CD80350CF6EF4DFD9
:1011400018D8E1DFCE6E12000DD80350D66E0AD843
:10115000DADFD76E1200E8DF06CF16F007CF17F000
:101160006DEF08F0E1DF00CF16F001CF17F06DEF63
:0E11700008F002CF16F003CF17F06DEF08F075
:02117E000F0E52
:10118000946E82681200B4D8030EE126DF6A040E62
:10119000DF5C56E2DF50EA6A320FE96E0F0EEA2298
:1011A000EF1C826E010EDB6A040EF36E010EDBCFC4
:1011B000F4FFF350F45C42E2010EDBCFE6FF040ED5
:1011C000DF02F350E552E724E76E020EE7CFDBFFC4
:1011D000010EDB50EA6A360FE96E0F0EEA22EF507D
:1011E00082140DE1020E92D8C80E105C000E115848
:1011F00022E2020E6CD8EE2A000EEF221CD0020E64
:1012000066D8000ED880EE54000EED5407E2020EB0
:101210007DD80A0E105C000E115802E3000E01D0BA
:10122000010EE66E020E5DD8E552E750EF6E020E3B
:101230004ED8EE6AED6A010EDB2AB6D7DF2AA7D7B1
:10124000030EE15C02E2E16AE552E16E56D050D84D
:10125000FE0EDB50100802E2000E03D0FE0E37D85F
:10126000EF504BD045D8E652FE0EDB50100802E29C
:10127000000E08D0FE0E35D8EFCFDFFFFE0E31D8BE
:10128000EF6ADF50E55239D033D8100EF36EFE0E00
:10129000DBCFF4FFF350F45C16E2FE0E37D8FC0E01
:1012A000DBCF12F0FD0EDBCF13F0320E0D6E0E6AA7
:1012B00012C008F013C009F007EC0CF01050085CE5
:1012C0001150095802E3000E01D0010E16D0EA6A4F
:1012D000DB34FE0BEA36E96E900EE926000EEA22B8
:1012E0001200DB50EA6A800FE96E000EEA2212005B
:1012F000D9CFE6FFE1CFD9FF1200E552E7CFD9FF02
:101300001200EECF10F0EFCF11F01200E0DF81EF0E
:0213100009F0E2
:0E1312009BD8020EE126FE0EDB500F0BDF6EA5
:10132000FE0EDB380F0B0A0D99D802E2E16AE55296
:10133000E16E10508FD089D8020EE12698D8055062
:10134000DF6E95D80950100D89D802E2E16AE552A6
:10135000E16E10507FD094869488C79EC79CC68A41
:10136000C686C694C692C690310EC86E12009E966E
:10137000C5809EA6FED712009E96C5849EA6FED767
:10138000120063D89E96FE0EDB50C96E9EA6FED755
:1013900061D09E96C5869EA6FED7C950120055D82C
:1013A0006ED8010E446FE85004E0C550400BFAE0DF
:1013B000F8D7FE0EDBCFE6FF44D8010E446FE850AD
:1013C00004E0C550400BFAE0F8D7FD0EDBCFE6FF96
:1013D000B2DFE552E66E35D8010E446FE85004E006
:1013E000C550400BFAE0F8D7C7DF34D02ED8E6520C
:1013F00046D8010E446FE85004E0C550400BFAE0B7
:10140000F8D7FE0EDBCFE6FF1CD8010E446FE85084
:1014100004E0C550400BFAE0F8D7A9DFD10EE66E24
:1014200010D8010E446FE85004E0C550400BFAE0BC
:10143000F8D7AFDFDF6EDFCFE6FF6BDFE552E552B7
:1014400009D09FDFE5520F011200D9CFE6FFE1CFAF
:10145000D9FF1200E552E7CFD9FF1200010EF3CFFA
:10146000DBFFDB50DF24106E020EE15C12000A0E7F
:10147000106E0E6EFE0EDBCF09F03BEF0CF077DF47
:08148000D00EE66E21EF0AF028
:08148800F28ED08EF28C1200EE
:10149000D8CFE4FFE0CFE4FFE46E62D800EE00F0C6
:1014A000100EE80403E3EECFE4FFFBD700EE10F0EC
:1014B000090EE80403E3EECFE4FFFBD7E652F2B4F3
:1014C00077D89EB07CD8A1B281D8F2B2F2929EBAFF
:1014D0009E9AE55200EE18F0090EE80403E3E5CF0A
:1014E000EDFFFBD700EE0FF0100EE80403E3E5CFAD
:1014F000EDFFFBD74AD8E550E5CFE0FFE5CFD8FFB9
:1015000010002ED800EE00F0100EE80403E3EECF3A
:10151000E4FFFBD700EE10F0090EE80403E3EECF82
:10152000E4FFFBD7E652F2B443D89EB048D8A1B24C
:101530004DD8F2B2F2929EBA9E9AE55200EE18F0A1
:10154000090EE80403E3E5CFEDFFFBD700EE0FF053
:10155000100EE80403E3E5CFEDFFFBD716D811002A
:10156000DACFE4FFE2CFDAFFE9CFE4FFEACFE4FF2E
:10157000F6CFE4FFF7CFE4FFF5CFE4FFF3CFE4FFCE
:10158000F4CFE4FFFACFE4FF1200E5CFFAFFE5CF96
:10159000F4FFE5CFF3FFE5CFF5FFE5CFF7FFE5CFAC
:1015A000F6FFE5CFEAFFE5CFE9FFE5CFDAFF12006E
:1015B000DFEC07F0F294CDEC07F0E7EF07F0E1EC99
:1015C00007F09E90D0EC07F0F6EF07F0E5EC07F09F
:0A15D000A192D7EC07F014EF08F029
:0615DA002020534D415298
:1015E000542020434C4F434B202000483A202020D9
:1015F0002020204D3A2020202020200020202020C4
:101600000020202000202000203C4F4E3E202020A3
:1016100020203C4F46463E20002020205455524E6C
:1016200020414C41524D3A20200052454E474747F9
:1016300047472052454E474747470052494E474784
:1016400047472052494E4747474747004F464600C5
:101650004F4E00202020202020202F20202F20202F
:101660002020200020203A20203A20202020202066
:10167000202020200032300053554E0053415400AA
:10168000465249005448550057454E0054554500B0
:041690004D4F4E006C
:0C1694001E0EF66E000EF76E000EF86ED3
:1016A0000F010900F5502D6F0900F5502E6F03E171
:1016B0002D6701D03DD00900F550286F0900F55085
:1016C000296F0900F5502A6F09000900F550E96EED
:1016D0000900F550EA6E090009000900F5502B6F6A
:1016E0000900F5502C6F09000900F6CF2FFFF7CF46
:1016F00030FFF8CF31FF28CFF6FF29CFF7FF2ACFF1
:10170000F8FF0F012B5302E12C5307E00900F550BD
:10171000EE6E2B07F8E22C07F9D72FCFF6FF30CF6C
:10172000F7FF31CFF8FF0F012D07000E2E5BBFD75B
:021730001200A5
:0E173200006A0EAEA4EF0BF00C6C0D1E0E1E26
:10174000E86A0D220E22001E09AEAEEF0BF0076C08
:10175000081E091EE86A08220922001EEAEC0BF0A6
:1017600009BEC1EF0BF000AE000C076C081E091E8D
:10177000E86A08220922036C041E051E04220522C1
:0C178000000C00BEB5EF0BF00188FF0C60
:04178C00056A046A7C
:10179000036A026A200EE76ED890063607360836CE
:1017A000093602360336043605360B50025C0C50FF
:1017B00003580D5004580E50055809E30B50025EB3
:1017C0000C50035A0D50045A0E50055A062AE72EA3
:0417D000E4D7120048
:0C17D400056A046A036A180EE76ED890DC
:1017E0000736083609360336043605360C50035CD6
:1017F0000D5004580E50055807E30C50035E0D5071
:0E180000045A0E50055A072AE72EEAD71200A6
:02180E00056A69
:10181000046A100EE76ED89008360936043605368D
:101820000D50045C0E50055805E30D50045E0E503B
:0A183000055A082AE72EF0D712002F
:06183A00800EF36E00EECB
:1018400000F00F0E01D81200EA6002D0EE6AFCD759
:0A185000F350E9601200EE6AFCD7C5
:06185A001EEE00F02EEE70
:1018600000F0F86A019C4AEC0BF003EC00F020EC6D
:0618700006F0FBD7120098
:0A187600056A080EE76ED8900936E7
:1018800005360E50055C02E3056E092AE72EF7D7F0
:02189000120044
:0E189200000000000000000000000000000048
:0A18A000000000000000000000003E
:0618AA0000000001020233
:1018B0000202040A1F0000000000000000100808D7
:1018C0000808020204080F000000000000001F11B9
:0A18D0000E00080804021E000000CC
:0618DA0020202020202048
:1018E00020202020202020202020202020202020F8
:0A18F00020202020202020202020AE
:0618FA00000000000000E8
:0A19000000000000000000000000DD
:020000040030CA
:0100010002FC
:0100020003FA
:010003001EDE
:010005008179
:010006008178
:010008000FE8
:01000900C036
:01000A000FE6
:01000B00E014
:01000C000FE4
:01000D0040B2
:00000001FF
