:020000040000FA
:06000000D6EF0EF0120025
:020006001200E6
:06000800BCEF0CF0120039
:02000E001020C0
:060010004080010204081B
:060018004AEF0CF012009B
:02001E000400DC
:100020000E00000000010000080000001C1E00007F
:10003000680F000011000000FC1D0000D50000004A
:1000400020000000E41D0000500F00001800000018
:100050000F017D6B7E6B120068CFE6FFE66AE66AF1
:10006000D6EC07F0E552E552E55269CFE6FF030E04
:10007000E66EE66AD6EC07F0E552E552E5526ACF45
:10008000E6FF060EE66EE66AD6EC07F0E552E552AC
:10009000E5526CCFE6FFE66A010EE66ED6EC07F09D
:1000A000E552E552E5526DCFE6FF030EE66E010E16
:1000B000E66ED6EC07F0E552E552E5526ECFE6FF6C
:1000C000060EE66E010EE66ED6EC07F0E552E5523E
:1000D000E55212000F017D51070A01E12BD2010AFE
:1000E00001E1ADD1030A01E134D1060A01E1BBD03F
:1000F000070A45E0060A39E0030A21E0010A01E0A7
:1001000097D21C0EE66E1D0EE66EE66AE66A26ECD7
:1001100008F0E552E552E552E552130EE66E1D0E6B
:10012000E66EE66A010EE66E26EC08F0E552E55250
:10013000E552E55291DF0F01010E6F6FFFD00F0105
:100140007151721104E1320E716F726B85DF050E11
:10015000E66E0BEC0BF0E552000901E16AD20F01EB
:100160006F6B7ADF0F01020EDAD10F016F6B0F0197
:10017000DC0E736F050E746F0F01040ED0D10F01EA
:10018000755176111EE11E0E756F766B0F01705161
:100190000BE0706B100EE66E1D0EE66EE66AE66A08
:1001A00026EC08F0E5520AD070510BE1010E706F99
:1001B00068CFE6FFE66AE66AD6EC07F0E552E5525C
:1001C000E552040EE66E0BEC0BF0E55200090DE073
:1001D0000F01DC0E736F050E746F0F01685100087C
:1001E00002E2680515D0170E13D0060EE66E0BEC72
:1001F0000BF0E55200090EE00F01DC0E736F050EE7
:10020000746F170E0F01685D02E2682901D0000EBD
:10021000686F1200050EE66E0BEC0BF0E55200095C
:1002200019E068CFE6FFE66AE66AD6EC07F0E55229
:10023000E552E55268CFE6FF020EE66ED6EC0BF013
:10024000E552E5520F01DC0E736F050E746F0F015E
:10025000030E65D10F017351741101E0EAD168CF2B
:10026000E6FF020EDDD10F017551761120E11E0E61
:10027000756F766B0F0170510CE0706B100EE66EAF
:100280001D0EE66E030EE66EE66A26EC08F0E552F9
:100290000BD070510CE1010E706F69CFE6FF030EB9
:1002A000E66EE66AD6EC07F0E552E552E552040E3A
:1002B000E66E0BEC0BF0E55200090DE00F01DC0ED1
:1002C000736F050E746F0F016951000802E2690532
:1002D00015D03B0E13D0060EE66E0BEC0BF0E5527C
:1002E00000090EE00F01DC0E736F050E746F3B0EFC
:1002F0000F01695D02E2692901D0000E696F1200E9
:10030000050EE66E0BEC0BF0E552000919E069CF23
:10031000E6FF030EE66EE66AD6EC07F0E552E5521C
:10032000E55269CFE6FF010EE66ED6EC0BF0E55222
:10033000E5520F01DC0E736F050E746F0F01EFD0E5
:100340000F017351741101E074D169CFE6FF010E02
:1003500067D10F01755176111FE11E0E756F766B17
:100360000F0170510CE0706B100EE66E1D0EE66E04
:10037000E66A010EE66E26EC08F0E5520AD07051EE
:100380000BE1010E706F6CCFE6FFE66AE66ED6EC0D
:1003900007F0E552E552E552040EE66E0BEC0BF069
:1003A000E55200090DE00F01DC0E736F050E746F4E
:1003B0000F016C51000802E26C0515D01F0E13D01E
:1003C000060EE66E0BEC0BF0E55200090EE00F0195
:1003D000DC0E736F050E746F1F0E0F016C5D02E271
:1003E0006C2901D0000E6C6F1200050EE66E0BEC4E
:1003F0000BF0E55200091AE06CCFE6FFE66A010E49
:10040000E66ED6EC07F0E552E552E5526CCFE6FF1A
:10041000040EE66ED6EC0BF0E552E5520F01DC0E51
:10042000736F050E746F0F01060E79D00F017351B3
:10043000741101E0FED06CCFE6FF040EF1D00F0185
:100440007551761122E11E0E756F766B0F0170519A
:100450000DE0706B100EE66E1D0EE66E030EE66E7E
:10046000010EE66E26EC08F0E5520CD070510DE15D
:10047000010E706F6DCFE6FF030EE66E010EE66EA5
:10048000D6EC07F0E552E552E552040EE66E0BECB1
:100490000BF0E55200090DE00F01DC0E736F050E45
:1004A000746F0F016D51010802E26D0515D0010E48
:1004B00013D0060EE66E0BEC0BF0E55200090EE0D1
:1004C0000F01DC0E736F050E746F0C0E0F016D5D66
:1004D00002E26D2901D00C0E6D6F1200050EE66E62
:1004E0000BEC0BF0E55200091CE06DCFE6FF050EAA
:1004F000E66ED6EC0BF0E552E5526DCFE6FF030E4B
:10050000E66E010EE66ED6EC07F0E552E552E552D6
:100510000F01DC0E736F050E746F0F01070E7D6FF8
:1005200012000F017351741101E083D06DCFE6FF0B
:10053000050E76D00F017551761122E11E0E756FF2
:10054000766B0F0170510DE0706B100EE66E1D0E94
:10055000E66E060EE66E010EE66E26EC08F0E5523B
:100560000CD070510DE1010E706F6ECFE6FF060EDC
:10057000E66E010EE66ED6EC07F0E552E552E55266
:10058000040EE66E0BEC0BF0E55200090DE00F01D6
:10059000DC0E736F050E746F0F016E51000802E2DE
:1005A0006E0515D0630E13D0060EE66E0BEC0BF045
:1005B000E55200090EE00F01DC0E736F050E746F3B
:1005C000630E0F016E5D02E26E2901D0000E6E6FA8
:1005D0001200050EE66E0BEC0BF0E552000919E077
:1005E0006ECFE6FF060EE66E010EE66ED6EC07F065
:1005F000E552E552E5526ECFE6FF060EE66ED6EC0A
:100600000BF0E552E5520F01DC0E736F050E746FAF
:100610000CD00F01735174110CE16ECFE6FF060E82
:10062000E66ED6EC0BF0E552E5520F017D6B120041
:100630007D6B12000F017E51020A4FE0030A2AE08F
:10064000010A4EE1070EE66E1D0EE66E080EE66E1E
:10065000E66A26EC08F0E552E552E552E552FE0E58
:10066000E66E1C0EE66E080EE66E010EE66E26ECD9
:1006700008F0E552E552E552E552DF0EE66E0E0E49
:10068000E66EE66AABEC07F0E552E552E5520F0183
:10069000010E24D00F017751781123E1640E776F9A
:1006A000786B97EC0DF0E6EC0DF0E66E0C0EE66E56
:1006B000E66AD6EC07F0E552E552E552ECEC0DF0B7
:1006C000E66E0C0EE66E010EE66ED6EC07F0E55215
:1006D000E552E5520F01020E01D0010E7E6F1200AD
:0406E0007E6B12001B
:0C06E400D9CFE6FFE1CFD9FFD59EFD0E77
:1006F000DBCF50FFFE0EDBCF51FFD59C1368146893
:10070000156A50CF16F051CF17F0186A1650135CC7
:10071000106E17501458116E18501558126E0C6A3E
:10072000010E0D6E0E6A10C007F011C008F012C065
:1007300009F041EC0EF00350D66E13681468156A88
:1007400050CF16F051CF17F0186A1650135C106E88
:1007500017501458116E18501558126E0C6A010E6D
:100760000D6E0E6A10C007F011C008F012C009F03B
:1007700041EC0EF007C010F008C011F009C012F0F3
:100780000750D76ED59AD586F28AF294F184D58E29
:10079000E552E7CFD9FF1200D9CFE6FFE1CFD9FF6D
:1007A000CD90FD0EDBCF52FFFE0EDBCF53FFF50EDB
:1007B000136E1468156A52CF16F053CF17F0186AEB
:1007C0001650135C106E17501458116E18501558AF
:1007D000126E0C6A010E0D6E0E6A10C007F011C089
:1007E00008F012C009F041EC0EF00350CF6E136810
:1007F0001468156A52CF16F053CF17F0186A1650C6
:10080000135C106E17501458116E18501558126E54
:100810000C6A010E0D6E0E6A10C007F011C008F0D0
:1008200012C009F041EC0EF007C010F008C011F042
:1008300009C012F00750CE6E9D809E909F90CD8E85
:10084000CD8CCD98CD9ACD96CD92CD80E552E7CF87
:10085000D9FF1200D9CFE6FFE1CFD9FFCA94CC6A05
:10086000FE0EDB500F01546F556BCB6E9D829E9236
:100870009F92CA90CA92CA84E552E7CFD9FF12006C
:10088000D9CFE6FFE1CFD9FFB190FD0EDBCF56FF08
:10089000FE0EDBCF57FF13681468156A56CF16F0AB
:1008A00057CF17F0186A1650135C106E1750145873
:1008B000116E18501558126E0C6A010E0D6E0E6AEC
:1008C00010C007F011C008F012C009F041EC0EF0A2
:1008D0000750B36E13681468156A56CF16F057CFD9
:1008E00017F0186A1650135C106E17501458116EDA
:1008F00018501558126E0C6A010E0D6E0E6A10C05B
:1009000007F011C008F012C009F041EC0EF003C06E
:1009100010F004C011F005C012F00350B26EA082B6
:10092000A192A292B18EB198B19AB192B180E552E2
:10093000E7CFD9FF120013681468156A50CF16F07C
:1009400051CF17F0186A1650135C106E17501458D8
:10095000116E18501558126E0C6A010E0D6E0E6A4B
:1009600010C007F011C008F012C009F041EC0EF001
:100970000350D66E13681468156A50CF16F051CF25
:1009800017F0186A1650135C106E17501458116E39
:1009900018501558126E0C6A010E0D6E0E6A10C0BA
:1009A00007F011C008F012C009F041EC0EF007C0CA
:1009B00010F008C011F009C012F00750D76ED58EA4
:1009C0001200F50E136E1468156A52CF16F053CF4D
:1009D00017F0186A1650135C106E17501458116EE9
:1009E00018501558126E0C6A010E0D6E0E6A10C06A
:1009F00007F011C008F012C009F041EC0EF00350EE
:100A0000CF6E13681468156A52CF16F053CF17F0E3
:100A1000186A1650135C106E17501458116E185047
:100A20001558126E0C6A010E0D6E0E6A10C007F09A
:100A300011C008F012C009F041EC0EF007C010F030
:100A400008C011F009C012F00750CE6ECD80120020
:100A500054CFCBFFCA84120013681468156A56CFAE
:100A600016F057CF17F0186A1650135C106E175017
:100A70001458116E18501558126E0C6A010E0D6E36
:100A80000E6A10C007F011C008F012C009F041EC66
:100A90000EF00350B26E13681468156A56CF16F044
:100AA00057CF17F0186A1650135C106E1750145871
:100AB000116E18501558126E0C6A010E0D6E0E6AEA
:100AC00010C007F011C008F012C009F041EC0EF0A0
:100AD00007C010F008C011F009C012F00750B36E43
:100AE000B1801200D59E1200CD901200CA9412005F
:100AF000B19012000F01582B000E59236051585D20
:100B00006151595905E3586B596B0F01010E796F0B
:100B100012000F015A2B000E5B2362515A5D635184
:100B20005B5905E35A6B5B6B0F01010E7A6F120084
:100B30000F015C2B000E5D2364515C5D65515D59B6
:100B400005E35C6B5D6B0F01010E7B6F12000F0103
:100B50005E2B000E5F2366515E5D67515F5905E3B2
:100B60005E6B5F6B0F01010E7C6F1200D9CFE6FF49
:100B7000E1CFD9FFFD0EDBCF60FFFE0EDBCF61FFC3
:100B80000F01586B596B0F01796BE552E7CFD9FF15
:100B90001200D9CFE6FFE1CFD9FFFD0EDBCF62FF18
:100BA000FE0EDBCF63FF050E0D6E0E6A62CF08F0FE
:100BB00063CF09F0B0EC0EF008C062FF09C063FF1C
:100BC0000F015A6B5B6B0F017A6BE552E7CFD9FFD0
:100BD0001200D9CFE6FFE1CFD9FFFD0EDBCF64FFD6
:100BE000FE0EDBCF65FF0F015C6B5D6B0F017B6B56
:100BF000E552E7CFD9FF1200D9CFE6FFE1CFD9FF09
:100C0000FD0EDBCF66FFFE0EDBCF67FF0A0E0D6E1B
:100C10000E6A66CF08F067CF09F0B0EC0EF008C09E
:100C200066FF09C067FF0F015E6B5F6B0F017C6B96
:080C3000E552E7CFD9FF1200E5
:080C3800D9CFE6FFE1CFD9FF9F
:100C4000020EE126DE6ADD6ADECF10F0DDCF11F0A4
:100C5000FE0EDB50136AE850105C1350115805E289
:100C6000DF2A010EF1E3DB2AEFD7020EE15C02E29C
:100C7000E16AE552E16EE552E7CFD9FF1200D9CF24
:100C8000E6FFE1CFD9FF040EE126DE6ADD6ADECFA2
:100C900010F0DDCF11F0FE0EDB50136AE850105C4F
:100CA000135011581AE2020EDB6A030EDB6A020EC1
:100CB000DBCF10F0030EDBCF11F0FA0E105C000E4C
:100CC000115806E2020EDB2A030EF1E3DB2AEFD70E
:100CD000DF2A010EDCE3DB2ADAD7040EE15C02E254
:100CE000E16AE552E16EE552E7CFD9FF1200D9CFB4
:100CF000E6FFE1CFD9FF0F0E8116FE0EDB50811209
:100D00008186010EE66E98DFE5528196010EE66E51
:100D100093DFE552E552E7CFD9FF1200D9CFE6FFC6
:100D2000E1CFD9FF8184010EE66EA9DFE552FE0E08
:100D3000DBCFE6FFDCDFE552FE0EDB38F00BE66EC4
:100D4000D6DFE5528194E552E7CFD9FF1200D9CF23
:100D5000E6FFE1CFD9FF8194010EE66E90DFE55208
:100D6000FE0EDBCFE6FFC3DFE552FE0EDB38F00BF5
:100D7000E66EBDDFE5528194E552E7CFD9FF120060
:100D8000D9CFE6FFE1CFD9FF0F0E8116FE0EDB5063
:100D9000F00B81128186010EE66E71DFE5528196BD
:100DA000010EE66E6CDFE5520F0E8116FE0EDB388B
:100DB000F00B81128186010EE66E61DFE5528196AD
:100DC000010EE66E5CDFE552E552E7CFD9FF120077
:100DD000D9CFE6FFE1CFD9FFE652936AFA0EE66E6D
:100DE0004EDFE5520F0E8116F80E81160F0E81169A
:100DF000300E81128186010EE66E41DFE55281964A
:100E0000010EE66E3CDFE5520F0E8116300E8112A8
:100E10008186010EE66E33DFE5528196010EE66EA5
:100E20002EDFE5520F0E8116300E81128186010EE3
:100E3000E66E25DFE5528196010EE66E20DFE55273
:100E40000F0E8116818A8186010EE66E18DFE5524B
:100E50008196010EE66E13DFE552280EE66E90DFF6
:100E6000E5520C0EE66E8CDFE552E552E552E7CF17
:100E7000D9FF1200D9CFE6FFE1CFD9FFFE0EDB503C
:100E8000010A06E0010A0AE1FD0EDB50800F03D0E3
:100E9000FD0EDB50C00FE66E5ADFE552E552E7CF9C
:100EA000D9FF1200D9CFE6FFE1CFD9FF020EE1262C
:100EB000DF6A020EDF5C22E2010EDB6A100EF36EC7
:100EC000010EDBCFF4FFF350F45C16E2DF50100D9F
:100ED000F3CF10F0F4CF11F0D50E1026000E112232
:100EE000010EDB501024E96E000E1120EA6E200E78
:100EF000EF6E010EDB2AE2D7DF2ADBD7020EE15CC0
:100F000002E2E16AE552E16EE552E7CFD9FF120055
:100F1000D9CFE6FFE1CFD9FF08C110F009C111F028
:100F2000040ED89010361136E806FBE1D50E1026D7
:100F3000000E1122105001010A25E96E11500B21FB
:100F4000EA6EFE0EDBCFEFFF0A2B000E0B23E552FD
:100F5000E7CFD9FF1200D9CFE6FFE1CFD9FFFE0ED0
:100F6000DB50010B0101086F096BFD0EDB500F0B0D
:100F70000A6F0B6B08C110F009C111F0040ED89074
:100F800010361136E806FBE1D50E1026000E1122B0
:100F9000105001010A25E96E11500B21EA6EFC0E7A
:100FA000DBCFEFFFE552E7CFD9FF1200D9CFE6FF45
:100FB000E1CFD9FF060EE126DF6A020EDB6ACA0E18
:100FC000F36E030EF3CFDBFF9A0EF36E040EF3CF36
:100FD000DBFF3B0EF36E050EF3CFDBFFFE0EDB50A7
:100FE000010B0101086F096BFD0EDB500F0B0A6F3F
:100FF0000B6BFC0EDB5006E1300EE66E89DFE5522E
:10100000300E17D00A0E106E0E6EFC0EDBCF09F0FC
:10101000E4EC0EF00950300FE66E7ADFE5520A0E6E
:10102000106E0E6EFC0EDBCF09F0E4EC0EF00550F6
:10103000300FE66E6DDFE552060EE15C02E2E16A1A
:10104000E552E16EE552E7CFD9FF1200D9CFE6FFB6
:10105000E1CFD9FFFE0EDB50010B0101086F096BD8
:10106000FD0EDB500F0B0A6F0B6BFB0EDBCFF6FF99
:10107000FC0EDBCFF7FF0800F5500FE0FB0EDBCFD7
:10108000F6FFDB2AFC0EDBCFF7FF01E3DB2A0800CB
:10109000F550E66E3DDFE552E8D7E552E7CFD9FFE0
:1010A0001200D9CFE6FFE1CFD9FFE652FE0EDB50AA
:1010B000010B0101086F096BFD0EDB500F0B0A6F6E
:1010C0000B6BDF6AFA0EDB50DF5C13E2DF50E76E7A
:1010D000FB0EDBCFF6FFFC0EDBCFF7FFE750F6266B
:1010E000000EF7220800F550E66E12DFE552DF2A07
:1010F000E9D7E552E552E7CFD9FF1200D9CFE6FF95
:10110000E1CFD9FFE652E66AE66AB4DEE552E5527F
:10111000DF6A100EDF5C0CE2DF50EA6AD50FE96E81
:10112000000EEA22EF50E66EF9DDE552DF2AF1D734
:10113000E66A010EE66E9EDEE552E552DF6A100EAB
:10114000DF5C0CE2DF50EA6AE50FE96E000EEA228E
:10115000EF50E66EE3DDE552DF2AF1D7E552E552C6
:06116000E7CFD9FF1200E9
:0A11660062D88CD8ED0EE66E1C0E68
:10117000E66EE66AE66A26EC08F0E552E552E552CC
:10118000E552DC0EE66E1C0EE66EE66A010EE66EB9
:1011900026EC08F0E552E552E552E5527EEC08F007
:1011A000E80EE66E030EE66EFCD8E552E55252EC10
:1011B00007F06AEC00F01AEC03F00F01795103E03C
:1011C000796B19EC0AF00F017C51F3E07C6B0F0195
:1011D0006F5101E0B5D80F01050E715D000E725917
:1011E00004E3050E715F000E725B0F01050E735D67
:1011F000000E745904E3050E735F000E745B0F015B
:10120000050E755D000E765904E3050E755F000E40
:10121000765B0F01050E775D000E785904E3050E2D
:10122000775F000E785B7EEC08F0C3D7E8EC06F041
:1012300046EC0CF015EC0AF0ACEC0BF094EC0DF075
:1012400028EC00F0570EE66E120EE66E72EC03F01C
:10125000E552E552660EE66EB70EE66E40EC04F01F
:10126000E552E5520A0EE66EE66AB6EC05F0E55286
:10127000E552320EE66EE66AFCEC05F0E552E55208
:101280001200250EE66E0CEC0CF0E552600856E0FC
:10129000010EE66EE66AD6EC0BF0E552E552010E61
:1012A000E66EE66ED6EC0BF0E552E552010EE66E08
:1012B000020EE66ED6EC0BF0E552E552010EE66E3C
:1012C000030EE66ED6EC0BF0E552E552010EE66E2B
:1012D000040EE66ED6EC0BF0E552E552010EE66E1A
:1012E000050EE66ED6EC0BF0E552E552010EE66E09
:1012F000060EE66ED6EC0BF0E552E552E66A280ED5
:10130000E66ED6EC0BF0E552E552010EE66E260EC7
:10131000E66ED6EC0BF0E552E552010EE66E270EB6
:10132000E66ED6EC0BF0E552E552600EE66E250E49
:10133000E66ED6EC0BF0E552E5521200A0EF09F094
:10134000E66A0CEC0CF0E5520F016A6F010EE66ED6
:101350000CEC0CF0E5520F01696F020EE66E0CEC1E
:101360000CF0E5520F01686F030EE66E0CEC0CF00A
:10137000E5520F016B6F040EE66E0CEC0CF0E552BB
:101380000F016C6F050EE66E0CEC0CF0E5520F01D0
:101390006D6F060EE66E0CEC0CF0E5520F016E6FF1
:1013A0001200D9CFE6FFE1CFD9FF040EE126DE6AB5
:1013B000DD6ADECF10F0DDCF11F0FD0EDBCF12F0D5
:1013C000FE0EDBCF13F011501318E8AE02D0133429
:1013D00004D01250105C135011581DE2020EDB6A4B
:1013E000030EDB6A020EDBCF10F0030EDBCF11F031
:1013F000D890115004E6A00E105C000E115806E2C1
:10140000020EDB2A030EEEE3DB2AECD7DF2A010E05
:10141000D0E3DB2ACED7040EE15C02E2E16AE552BA
:0A142000E16EE552E7CFD9FF12009C
:06142A000F0E946E8268B3
:101430001200D9CFE6FFE1CFD9FF030EE126DF6A24
:10144000040EDF5C01E3C4D0DF50EA6A000FE96EEE
:10145000010EEA22EF1C826E010EDB6A040EF36EAF
:10146000010EDBCFF4FFF350F45C01E3AFD0010ECB
:10147000DBCFE6FF040EDF02F350E552E724E76E10
:10148000020EE7CFDBFFDB50EA6A000FE96E0F0EBA
:10149000EA22EF50E66E020EDB50EA6A100FE96EA8
:1014A0000F0EEA22E552E750EF6E010EDB50EA6ABA
:1014B000040FE96E010EEA22EF508214E66E020E6E
:1014C000DB50EA6A000FE96E0F0EEA22E552E750A0
:1014D000EF6E020EDB50EA6A000FE96E0F0EEA2291
:1014E000EFCF10F0020EDB50EA6A100FE96E0F0E1C
:1014F000EA22EF50105C67E1020EDB50EA6A000F4F
:10150000E96E0F0EEA22EF5021E1020EEA6ADB34A7
:10151000FE0BEA36E96E300EE9260F0EEA22EECF18
:1015200010F0EFCF11F0E80E105C030E11584BE2F3
:10153000020EEA6ADB34FE0BEA36E96E300EE9266B
:101540000F0EEA22EE2A000EEF223DD0020EEA6ACA
:10155000DB34FE0BEA36E96E300EE9260F0EEA2286
:10156000000ED880EE54000EED5413E2020EEA6A2B
:10157000DB34FE0BEA36E96E300EE9260F0EEA2266
:10158000EECF10F0EFCF11F0320E105C000E1158BC
:1015900002E3000E01D0010EE66E020EDB50EA6A95
:1015A000200FE96E0F0EEA22E552E750EF6E020EB1
:1015B000EA6ADB34FE0BEA36E96E300EE9260F0EDE
:1015C000EA22EE6AED6A010EDB2A48D7DF2A38D715
:1015D000030EE15C02E2E16AE552E16EE552E7CF1B
:1015E000D9FF1200D9CFE6FFE1CFD9FFFE0EDB50C5
:1015F000100802E2000E0BD0FE0EEA6ADB34FE0B8E
:10160000EA36E96E300EE9260F0EEA22EF50E55277
:10161000E7CFD9FF1200D9CFE6FFE1CFD9FFE652DD
:10162000FE0EDB50100802E2000E12D0FE0EDB5060
:10163000EA6A200FE96E0F0EEA22EFCFDFFFFE0EFF
:10164000DB50EA6A200FE96E0F0EEA22EF6ADF50E4
:10165000E552E552E7CFD9FF1200D9CFE6FFE1CF3F
:10166000D9FF100EF36EFE0EDBCFF4FFF350F45CE7
:1016700022E2FE0EEA6ADB34FE0BEA36E96E300E39
:10168000E9260F0EEA22EECF10F0EFCF11F0FC0E9C
:10169000DBCF12F0FD0EDBCF13F00A0E0D6E0E6ADB
:1016A00012C008F013C009F0B0EC0EF01050085C46
:1016B0001150095802E3000E01D0010EE552E7CFA8
:0416C000D9FF12003C
:0C16C400D9CFE6FFE1CFD9FF020EE126EE
:1016D000FE0EDB500F0BDF6EFE0EDB380F0B0A0D1C
:1016E000010EF3CFDBFFDB50DF24106E020EE15C56
:1016F00002E2E16AE552E16E1050E552E7CFD9FF10
:101700001200D9CFE6FFE1CFD9FF020EE1260A0E83
:10171000106E0E6EFE0EDBCF09F0E4EC0EF00550FD
:10172000DF6E0A0E106E0E6EFE0EDBCF09F0E4ECDB
:101730000EF00950100D010EF3CFDBFFDB50DF245C
:10174000106E020EE15C02E2E16AE552E16E1050B9
:10175000E552E7CFD9FF120094869488C79EC79CB4
:10176000C68AC686C694C692C690310EC86E12004E
:101770009E96C5809EA6FED712009E96C5849EA604
:10178000FED71200D9CFE6FFE1CFD9FF9E96FE0E1D
:10179000DB50C96E9EA6FED7E552E7CFD9FF1200F7
:1017A0009E96C5869EA6FED7C9501200D9CFE6FFE9
:1017B000E1CFD9FFDDDFD00EE66EE4DFE5520001B8
:1017C000010EFF6FE85004E0C550400BFAE0F8D777
:1017D000FE0EDBCFE6FFD6DFE5520001010EFF6F04
:1017E000E85004E0C550400BFAE0F8D7FD0EDBCF1F
:1017F000E6FF87DFE552E66EC5DFE5520001010E28
:10180000FF6FE85004E0C550400BFAE0F8D7B5DFB1
:10181000E552E7CFD9FF1200D9CFE6FFE1CFD9FFDC
:10182000E652A6DFD00EE66EADDFE5520001010EF6
:10183000FF6FE85004E0C550400BFAE0F8D7FE0E09
:10184000DBCFE6FF9FDFE5520001010EFF6FE8509E
:1018500004E0C550400BFAE0F8D78ADFD10EE66EFF
:1018600091DFE5520001010EFF6FE85004E0C55022
:10187000400BFAE0F8D794DFDF6EDFCFE6FF22DF20
:0C188000E552E552E552E7CFD9FF120017
:04188C00F28ED08E7A
:10189000F28C1200D8CFE4FFE0CFE4FFE46EDACFA1
:1018A000E4FFE2CFDAFFE9CFE4FFEACFE4FFF6CFCF
:1018B000E4FFF7CFE4FFF5CFE4FFF3CFE4FFF4CF8D
:1018C000E4FFFACFE4FF00EE00F0100EE80403E3BB
:1018D000EECFE4FFFBD700EE10F0090EE80403E3BF
:1018E000EECFE4FFFBD7E652F2A407D072EC05F08E
:1018F000F2949BEC04F07AEC05F09EA007D074EC17
:1019000005F09E90E1EC04F089EC05F0A1A207D06F
:1019100078EC05F0A1922CEC05F0A7EC05F0F2B202
:10192000F2929EBA9E9AE55200EE18F0090EE80473
:1019300003E3E5CFEDFFFBD700EE0FF0100EE80458
:1019400003E3E5CFEDFFFBD7E5CFFAFFE5CFF4FFEB
:10195000E5CFF3FFE5CFF5FFE5CFF7FFE5CFF6FFE6
:10196000E5CFEAFFE5CFE9FFE5CFDAFFE550E5CFC8
:10197000E0FFE5CFD8FF1000DACFE4FFE2CFDAFFD7
:10198000E9CFE4FFEACFE4FFF6CFE4FFF7CFE4FFCF
:10199000F5CFE4FFF3CFE4FFF4CFE4FFFACFE4FFA9
:1019A00000EE00F0100EE80403E3EECFE4FFFBD7F7
:1019B00000EE10F0090EE80403E3EECFE4FFFBD7DE
:1019C000E652F2A407D072EC05F0F2949BEC04F01E
:1019D0007AEC05F09EA007D074EC05F09E90E1EC47
:1019E00004F089EC05F0A1A207D078EC05F0A192F3
:1019F0002CEC05F0A7EC05F0F2B2F2929EBA9E9A9A
:101A0000E55200EE18F0090EE80403E3E5CFEDFF20
:101A1000FBD700EE0FF0100EE80403E3E5CFEDFF77
:101A2000FBD7E5CFFAFFE5CFF4FFE5CFF3FFE5CF36
:101A3000F5FFE5CFF7FFE5CFF6FFE5CFEAFFE5CF0E
:081A4000E9FFE5CFDAFF110018
:081A4800D9CFE6FFE1CFD9FF81
:101A5000E652DF6AFE0EDB50DF5C02E2DF2AFAD7D5
:101A6000E552E552E7CFD9FF1200D9CFE6FFE1CF2B
:101A7000D9FF030EE126DF6A030EDF5C4BE2020EA4
:101A8000DB6A010EDB6A100EF36E010EDBCFF4FF92
:101A9000F350F45C34E2010EDBCFE6FF100EDF0200
:101AA000F350E552E724EA6A850FE96E000EEA2258
:101AB000EFCF11F0010EDBCFE6FF100EDF02F35087
:101AC000E552E724010FEA6A850FE96E000EEA226B
:101AD000EF50115C02E3000E01D0010E106E020EF9
:101AE000DB50E8241024E76E020EE7CFDBFF010E87
:101AF000DB50020FE76E010EE7CFDBFFC4D7DF50EC
:101B0000EA6A800FE96E000EEA22020EDBCFEFFFD9
:101B1000DF2AB2D7030EE15C02E2E16AE552E16E30
:101B2000E552E7CFD9FF1200929880981200D9CFE2
:101B3000E6FF030EE1263DD080B8FED780A8FED791
:101B400080B8FED7DF6A500EDF5C30E2020EDB6A3F
:101B500080B808D0020EDBCFF3FFDB2AF350640815
:101B6000F7E213D0DF50EA6A850FE96E000EEA2231
:101B7000020EDBCFEFFFDB6A80A80CD0020EDBCFBA
:101B8000F3FFDB2AF3506408F7E2929880986DDF48
:101B9000DF5010D0DF28EA6A850FE96E000EEA22D6
:101BA000020EDBCFEFFFDF24DF6ECDD75EDF929832
:101BB0008098010E106E030EE15C02E2E16AE552CC
:101BC000E16E1050E552E7CFD9FF120000018251BB
:101BD0001200000183511200000180511200000127
:041BE000815112001D
:0C1BE4001E0EF66E000EF76E000EF86E7E
:101BF00000010900F550FA6F0900F550FB6F03E191
:101C0000FA6701D03DD00900F550F56F0900F55095
:101C1000F66F0900F550F76F09000900F550E96EFD
:101C20000900F550EA6E090009000900F550F86F47
:101C30000900F550F96F09000900F6CFFCF0F7CF65
:101C4000FDF0F8CFFEF0F5C0F6FFF6C0F7FFF7C0E5
:101C5000F8FF0001F85302E1F95307E00900F550DD
:101C6000EE6EF807F8E2F907F9D7FCC0F6FFFDC001
:101C7000F7FFFEC0F8FF0001FA07000EFB5BBFD7BD
:021C8000120050
:0E1C8200006A0EAE4CEF0EF00C6C0D1E0E1E26
:101C9000E86A0D220E22001E09AE56EF0EF0076C08
:101CA000081E091EE86A08220922001E93EC0EF0A5
:101CB00009BE69EF0EF000AE000C076C081E091E8D
:101CC000E86A08220922036C041E051E042205226C
:0C1CD000000C00BE5DEF0EF00188FF0C60
:041CDC00204D4F4EFA
:101CE00049544F52494E4720535953200020454EE6
:101CF0005649524F4E4D454E54414C2020002048ED
:101D00003A20202025200020543A20202020430083
:101D100020200020202F20202F20200020203A20CB
:051D2000203A20200024
:0A1D2600056A046A036A180EE76EEE
:101D3000D8900736083609360336043605360C5077
:101D4000035C0D5004580E50055807E30C50035E19
:101D50000D50045A0E50055A072AE72EEAD71200F2
:101D6000056A046A100EE76ED89008360936043604
:101D700005360D50045C0E50055805E30D50045E09
:0C1D80000E50055A082AE72EF0D712007A
:041D8C00800EF36E64
:101D900000EE00F00F0E01D81200EA6002D0EE6AE9
:0C1DA000FCD7F350E9601200EE6AFCD79B
:041DAC001EEE00F037
:101DB0002EEE00F0F86A019CF2EC0DF003EC00F05E
:081DC000B3EC08F0FBD71200A0
:081DC800056A080EE76ED890D1
:101DD000093605360E50055C02E3056E092AE72E2A
:041DE000F7D712001F
:0C1DE400000000000000000000000000F3
:0C1DF000000000000000000000000000E7
:041DFC002020202063
:101E000020202020202020202020202020202020D2
:0C1E100020202020202020202020202046
:041E1C0000000000C2
:0D1E200000000000000000000000000000B5
:020000040030CA
:0100010002FC
:0100020003FA
:010003001EDE
:010005008179
:010006008178
:010008000FE8
:01000900C036
:01000A000FE6
:01000B00E014
:01000C000FE4
:01000D0040B2
:00000001FF
